{
  "contracts/Database.sol": {
    "Database": {
      "abi": [
        {
          "inputs": [
            {
              "internalType": "string",
              "name": "authkey",
              "type": "string"
            }
          ],
          "stateMutability": "nonpayable",
          "type": "constructor"
        },
        {
          "anonymous": false,
          "inputs": [
            {
              "indexed": false,
              "internalType": "address",
              "name": "useraddr",
              "type": "address"
            },
            {
              "indexed": false,
              "internalType": "address",
              "name": "contactaddr",
              "type": "address"
            }
          ],
          "name": "ContactAdded",
          "type": "event"
        },
        {
          "anonymous": false,
          "inputs": [
            {
              "indexed": false,
              "internalType": "address",
              "name": "useraddr",
              "type": "address"
            },
            {
              "indexed": false,
              "internalType": "address",
              "name": "contactaddr",
              "type": "address"
            }
          ],
          "name": "ContactRemoved",
          "type": "event"
        },
        {
          "anonymous": false,
          "inputs": [
            {
              "indexed": false,
              "internalType": "address",
              "name": "useraddr",
              "type": "address"
            }
          ],
          "name": "ContactsRemoved",
          "type": "event"
        },
        {
          "anonymous": false,
          "inputs": [
            {
              "indexed": false,
              "internalType": "address",
              "name": "owneraddr",
              "type": "address"
            },
            {
              "indexed": false,
              "internalType": "address",
              "name": "fileaddr",
              "type": "address"
            },
            {
              "indexed": false,
              "internalType": "string",
              "name": "name",
              "type": "string"
            },
            {
              "indexed": false,
              "internalType": "string",
              "name": "path",
              "type": "string"
            }
          ],
          "name": "FileAdded",
          "type": "event"
        },
        {
          "anonymous": false,
          "inputs": [
            {
              "indexed": false,
              "internalType": "address",
              "name": "fileaddr",
              "type": "address"
            },
            {
              "indexed": false,
              "internalType": "address",
              "name": "owneraddr",
              "type": "address"
            }
          ],
          "name": "FileDeleted",
          "type": "event"
        },
        {
          "anonymous": false,
          "inputs": [
            {
              "indexed": false,
              "internalType": "address",
              "name": "fileaddr",
              "type": "address"
            },
            {
              "indexed": false,
              "internalType": "address",
              "name": "owneraddr",
              "type": "address"
            },
            {
              "indexed": false,
              "internalType": "address",
              "name": "useraddr",
              "type": "address"
            }
          ],
          "name": "FileShared",
          "type": "event"
        },
        {
          "anonymous": false,
          "inputs": [
            {
              "indexed": false,
              "internalType": "address",
              "name": "fileaddr",
              "type": "address"
            },
            {
              "indexed": false,
              "internalType": "address",
              "name": "owneraddr",
              "type": "address"
            }
          ],
          "name": "FileSharedWithAll",
          "type": "event"
        },
        {
          "anonymous": false,
          "inputs": [
            {
              "indexed": false,
              "internalType": "address",
              "name": "fileaddr",
              "type": "address"
            },
            {
              "indexed": false,
              "internalType": "address",
              "name": "owneraddr",
              "type": "address"
            }
          ],
          "name": "FileSharedWithSome",
          "type": "event"
        },
        {
          "anonymous": false,
          "inputs": [
            {
              "indexed": false,
              "internalType": "address",
              "name": "fileaddr",
              "type": "address"
            },
            {
              "indexed": false,
              "internalType": "address",
              "name": "owneraddr",
              "type": "address"
            },
            {
              "indexed": false,
              "internalType": "address",
              "name": "useraddr",
              "type": "address"
            }
          ],
          "name": "FileUnshared",
          "type": "event"
        },
        {
          "anonymous": false,
          "inputs": [
            {
              "indexed": false,
              "internalType": "address",
              "name": "fileaddr",
              "type": "address"
            },
            {
              "indexed": false,
              "internalType": "address",
              "name": "owneraddr",
              "type": "address"
            }
          ],
          "name": "FileUnsharedWithAll",
          "type": "event"
        },
        {
          "anonymous": false,
          "inputs": [
            {
              "indexed": false,
              "internalType": "address",
              "name": "fileaddr",
              "type": "address"
            },
            {
              "indexed": false,
              "internalType": "address",
              "name": "owneraddr",
              "type": "address"
            }
          ],
          "name": "FileUnsharedWithSome",
          "type": "event"
        },
        {
          "anonymous": false,
          "inputs": [
            {
              "indexed": false,
              "internalType": "address",
              "name": "fileaddr",
              "type": "address"
            },
            {
              "indexed": false,
              "internalType": "address",
              "name": "owneraddr",
              "type": "address"
            }
          ],
          "name": "FileUpdated",
          "type": "event"
        },
        {
          "anonymous": false,
          "inputs": [
            {
              "indexed": false,
              "internalType": "address",
              "name": "useraddr",
              "type": "address"
            },
            {
              "indexed": false,
              "internalType": "uint256",
              "name": "id",
              "type": "uint256"
            },
            {
              "indexed": false,
              "internalType": "string",
              "name": "name",
              "type": "string"
            },
            {
              "indexed": false,
              "internalType": "string",
              "name": "email",
              "type": "string"
            }
          ],
          "name": "UserAdded",
          "type": "event"
        },
        {
          "inputs": [
            {
              "internalType": "address",
              "name": "useraddr",
              "type": "address"
            },
            {
              "internalType": "address",
              "name": "contactaddr",
              "type": "address"
            }
          ],
          "name": "addContact",
          "outputs": [
            {
              "internalType": "bool",
              "name": "",
              "type": "bool"
            }
          ],
          "stateMutability": "nonpayable",
          "type": "function"
        },
        {
          "inputs": [
            {
              "internalType": "address",
              "name": "owneraddr",
              "type": "address"
            },
            {
              "internalType": "address",
              "name": "fileaddr",
              "type": "address"
            },
            {
              "internalType": "string",
              "name": "name",
              "type": "string"
            },
            {
              "internalType": "string",
              "name": "path",
              "type": "string"
            },
            {
              "internalType": "string",
              "name": "filestring",
              "type": "string"
            }
          ],
          "name": "addFile",
          "outputs": [
            {
              "internalType": "bool",
              "name": "",
              "type": "bool"
            }
          ],
          "stateMutability": "nonpayable",
          "type": "function"
        },
        {
          "inputs": [
            {
              "internalType": "address",
              "name": "useraddr",
              "type": "address"
            },
            {
              "internalType": "string",
              "name": "name",
              "type": "string"
            },
            {
              "internalType": "string",
              "name": "email",
              "type": "string"
            }
          ],
          "name": "addUser",
          "outputs": [
            {
              "internalType": "bool",
              "name": "",
              "type": "bool"
            }
          ],
          "stateMutability": "nonpayable",
          "type": "function"
        },
        {
          "inputs": [
            {
              "internalType": "address",
              "name": "owneraddr",
              "type": "address"
            },
            {
              "internalType": "address",
              "name": "fileaddr",
              "type": "address"
            }
          ],
          "name": "deleteFile",
          "outputs": [
            {
              "internalType": "bool",
              "name": "",
              "type": "bool"
            }
          ],
          "stateMutability": "nonpayable",
          "type": "function"
        },
        {
          "inputs": [
            {
              "internalType": "string",
              "name": "",
              "type": "string"
            }
          ],
          "name": "emails",
          "outputs": [
            {
              "internalType": "bool",
              "name": "",
              "type": "bool"
            }
          ],
          "stateMutability": "view",
          "type": "function"
        },
        {
          "inputs": [],
          "name": "filecount",
          "outputs": [
            {
              "internalType": "uint256",
              "name": "",
              "type": "uint256"
            }
          ],
          "stateMutability": "view",
          "type": "function"
        },
        {
          "inputs": [
            {
              "internalType": "address",
              "name": "useraddr",
              "type": "address"
            }
          ],
          "name": "getContacts",
          "outputs": [
            {
              "internalType": "address[]",
              "name": "",
              "type": "address[]"
            }
          ],
          "stateMutability": "view",
          "type": "function"
        },
        {
          "inputs": [
            {
              "internalType": "address",
              "name": "fileaddr",
              "type": "address"
            }
          ],
          "name": "getFile",
          "outputs": [
            {
              "internalType": "uint256",
              "name": "",
              "type": "uint256"
            },
            {
              "internalType": "address",
              "name": "",
              "type": "address"
            },
            {
              "internalType": "string",
              "name": "",
              "type": "string"
            },
            {
              "internalType": "uint256",
              "name": "",
              "type": "uint256"
            },
            {
              "internalType": "bool",
              "name": "",
              "type": "bool"
            }
          ],
          "stateMutability": "view",
          "type": "function"
        },
        {
          "inputs": [
            {
              "internalType": "address",
              "name": "fileaddr",
              "type": "address"
            }
          ],
          "name": "getFileusers",
          "outputs": [
            {
              "internalType": "address[]",
              "name": "",
              "type": "address[]"
            }
          ],
          "stateMutability": "view",
          "type": "function"
        },
        {
          "inputs": [
            {
              "internalType": "address",
              "name": "useraddr",
              "type": "address"
            }
          ],
          "name": "getSharedfiles",
          "outputs": [
            {
              "internalType": "address[]",
              "name": "",
              "type": "address[]"
            }
          ],
          "stateMutability": "view",
          "type": "function"
        },
        {
          "inputs": [
            {
              "internalType": "address",
              "name": "useraddr",
              "type": "address"
            }
          ],
          "name": "getUser",
          "outputs": [
            {
              "internalType": "uint256",
              "name": "",
              "type": "uint256"
            },
            {
              "internalType": "string",
              "name": "",
              "type": "string"
            },
            {
              "internalType": "string",
              "name": "",
              "type": "string"
            },
            {
              "internalType": "bool",
              "name": "",
              "type": "bool"
            }
          ],
          "stateMutability": "view",
          "type": "function"
        },
        {
          "inputs": [
            {
              "internalType": "address",
              "name": "useraddr",
              "type": "address"
            }
          ],
          "name": "getUserfiles",
          "outputs": [
            {
              "internalType": "address[]",
              "name": "",
              "type": "address[]"
            }
          ],
          "stateMutability": "view",
          "type": "function"
        },
        {
          "inputs": [
            {
              "internalType": "address",
              "name": "fileaddr",
              "type": "address"
            },
            {
              "internalType": "string",
              "name": "filestring",
              "type": "string"
            }
          ],
          "name": "matchFile",
          "outputs": [
            {
              "internalType": "bool",
              "name": "",
              "type": "bool"
            }
          ],
          "stateMutability": "view",
          "type": "function"
        },
        {
          "inputs": [],
          "name": "maxfileid",
          "outputs": [
            {
              "internalType": "uint256",
              "name": "",
              "type": "uint256"
            }
          ],
          "stateMutability": "view",
          "type": "function"
        },
        {
          "inputs": [],
          "name": "maxuserid",
          "outputs": [
            {
              "internalType": "uint256",
              "name": "",
              "type": "uint256"
            }
          ],
          "stateMutability": "view",
          "type": "function"
        },
        {
          "inputs": [
            {
              "internalType": "string",
              "name": "",
              "type": "string"
            }
          ],
          "name": "paths",
          "outputs": [
            {
              "internalType": "bool",
              "name": "",
              "type": "bool"
            }
          ],
          "stateMutability": "view",
          "type": "function"
        },
        {
          "inputs": [
            {
              "internalType": "address",
              "name": "useraddr",
              "type": "address"
            },
            {
              "internalType": "address",
              "name": "contactaddr",
              "type": "address"
            }
          ],
          "name": "removeContact",
          "outputs": [
            {
              "internalType": "bool",
              "name": "",
              "type": "bool"
            }
          ],
          "stateMutability": "nonpayable",
          "type": "function"
        },
        {
          "inputs": [
            {
              "internalType": "address",
              "name": "useraddr",
              "type": "address"
            },
            {
              "internalType": "address[]",
              "name": "contactaddrs",
              "type": "address[]"
            }
          ],
          "name": "removeContacts",
          "outputs": [
            {
              "internalType": "bool",
              "name": "",
              "type": "bool"
            }
          ],
          "stateMutability": "nonpayable",
          "type": "function"
        },
        {
          "inputs": [
            {
              "internalType": "address",
              "name": "owneraddr",
              "type": "address"
            },
            {
              "internalType": "address",
              "name": "fileaddr",
              "type": "address"
            },
            {
              "internalType": "address",
              "name": "useraddr",
              "type": "address"
            }
          ],
          "name": "shareFile",
          "outputs": [
            {
              "internalType": "bool",
              "name": "",
              "type": "bool"
            }
          ],
          "stateMutability": "nonpayable",
          "type": "function"
        },
        {
          "inputs": [
            {
              "internalType": "address",
              "name": "owneraddr",
              "type": "address"
            },
            {
              "internalType": "address",
              "name": "fileaddr",
              "type": "address"
            }
          ],
          "name": "shareFileWithAll",
          "outputs": [
            {
              "internalType": "bool",
              "name": "",
              "type": "bool"
            }
          ],
          "stateMutability": "nonpayable",
          "type": "function"
        },
        {
          "inputs": [
            {
              "internalType": "address",
              "name": "owneraddr",
              "type": "address"
            },
            {
              "internalType": "address",
              "name": "fileaddr",
              "type": "address"
            },
            {
              "internalType": "address[]",
              "name": "useraddrs",
              "type": "address[]"
            }
          ],
          "name": "shareFileWithSome",
          "outputs": [
            {
              "internalType": "bool",
              "name": "",
              "type": "bool"
            }
          ],
          "stateMutability": "nonpayable",
          "type": "function"
        },
        {
          "inputs": [
            {
              "internalType": "address",
              "name": "owneraddr",
              "type": "address"
            },
            {
              "internalType": "address",
              "name": "fileaddr",
              "type": "address"
            },
            {
              "internalType": "address",
              "name": "useraddr",
              "type": "address"
            }
          ],
          "name": "unshareFile",
          "outputs": [
            {
              "internalType": "bool",
              "name": "",
              "type": "bool"
            }
          ],
          "stateMutability": "nonpayable",
          "type": "function"
        },
        {
          "inputs": [
            {
              "internalType": "address",
              "name": "owneraddr",
              "type": "address"
            },
            {
              "internalType": "address",
              "name": "fileaddr",
              "type": "address"
            }
          ],
          "name": "unshareFileWithAll",
          "outputs": [
            {
              "internalType": "bool",
              "name": "",
              "type": "bool"
            }
          ],
          "stateMutability": "nonpayable",
          "type": "function"
        },
        {
          "inputs": [
            {
              "internalType": "address",
              "name": "owneraddr",
              "type": "address"
            },
            {
              "internalType": "address",
              "name": "fileaddr",
              "type": "address"
            },
            {
              "internalType": "address[]",
              "name": "useraddrs",
              "type": "address[]"
            }
          ],
          "name": "unshareFileWithSome",
          "outputs": [
            {
              "internalType": "bool",
              "name": "",
              "type": "bool"
            }
          ],
          "stateMutability": "nonpayable",
          "type": "function"
        },
        {
          "inputs": [
            {
              "internalType": "address",
              "name": "owneraddr",
              "type": "address"
            },
            {
              "internalType": "address",
              "name": "fileaddr",
              "type": "address"
            },
            {
              "internalType": "string",
              "name": "filestring",
              "type": "string"
            }
          ],
          "name": "updateFile",
          "outputs": [
            {
              "internalType": "bool",
              "name": "",
              "type": "bool"
            }
          ],
          "stateMutability": "nonpayable",
          "type": "function"
        },
        {
          "inputs": [],
          "name": "usercount",
          "outputs": [
            {
              "internalType": "uint256",
              "name": "",
              "type": "uint256"
            }
          ],
          "stateMutability": "view",
          "type": "function"
        }
      ],
      "evm": {
        "bytecode": {
          "linkReferences": {
            "contracts/libraries/IterableMap.sol": {
              "IterableMap": [
                {
                  "length": 20,
                  "start": 1706
                },
                {
                  "length": 20,
                  "start": 1860
                },
                {
                  "length": 20,
                  "start": 1993
                },
                {
                  "length": 20,
                  "start": 2232
                },
                {
                  "length": 20,
                  "start": 2389
                },
                {
                  "length": 20,
                  "start": 2521
                },
                {
                  "length": 20,
                  "start": 2885
                },
                {
                  "length": 20,
                  "start": 3047
                },
                {
                  "length": 20,
                  "start": 3182
                },
                {
                  "length": 20,
                  "start": 3347
                },
                {
                  "length": 20,
                  "start": 3789
                },
                {
                  "length": 20,
                  "start": 3921
                },
                {
                  "length": 20,
                  "start": 4265
                },
                {
                  "length": 20,
                  "start": 4421
                },
                {
                  "length": 20,
                  "start": 4552
                },
                {
                  "length": 20,
                  "start": 4929
                },
                {
                  "length": 20,
                  "start": 5089
                },
                {
                  "length": 20,
                  "start": 5224
                },
                {
                  "length": 20,
                  "start": 5369
                },
                {
                  "length": 20,
                  "start": 6127
                },
                {
                  "length": 20,
                  "start": 6601
                },
                {
                  "length": 20,
                  "start": 7163
                },
                {
                  "length": 20,
                  "start": 7392
                },
                {
                  "length": 20,
                  "start": 7606
                },
                {
                  "length": 20,
                  "start": 7816
                },
                {
                  "length": 20,
                  "start": 8012
                },
                {
                  "length": 20,
                  "start": 8239
                },
                {
                  "length": 20,
                  "start": 8457
                },
                {
                  "length": 20,
                  "start": 8708
                },
                {
                  "length": 20,
                  "start": 8828
                },
                {
                  "length": 20,
                  "start": 9532
                },
                {
                  "length": 20,
                  "start": 9698
                },
                {
                  "length": 20,
                  "start": 9858
                },
                {
                  "length": 20,
                  "start": 9993
                },
                {
                  "length": 20,
                  "start": 10147
                }
              ]
            }
          },
          "object": "60806040526000805460ff1916815560038190556004553480156200002357600080fd5b50604051620032e6380380620032e68339810160408190526200004691620000a0565b604051806060016040528060348152602001620032b2603491398051906020012081805190602001200362000083576000805460ff191660011790555b5062000175565b634e487b7160e01b600052604160045260246000fd5b60006020808385031215620000b457600080fd5b82516001600160401b0380821115620000cc57600080fd5b818501915085601f830112620000e157600080fd5b815181811115620000f657620000f66200008a565b604051601f8201601f19908116603f011681019083821181831017156200012157620001216200008a565b8160405282815288868487010111156200013a57600080fd5b600093505b828410156200015e57848401860151818501870152928501926200013f565b600086848301015280965050505050505092915050565b61312d80620001856000396000f3fe608060405234801561001057600080fd5b506004361061018e5760003560e01c80638261dcc8116100de578063c4b3199c11610097578063d5b0d30d11610071578063d5b0d30d146103a3578063d7554a68146103d1578063e2c427db146103e4578063ee43437f146103f757600080fd5b8063c4b3199c1461037e578063d265347014610387578063d34cb3301461039a57600080fd5b80638261dcc81461030c578063842a15841461031f57806399a2c2ae14610332578063a3f0423614610345578063bb18a65b14610358578063c17d41901461036b57600080fd5b806327080fbb1161014b5780633c88a3e1116101255780633c88a3e1146102955780635de8c116146102a85780635df9d4ae146102d65780636f77926b146102e957600080fd5b806327080fbb1461025c5780632d1d6b8d1461026f57806337858b0c1461028257600080fd5b80630a3f1cc7146101935780630b87c1e0146101af5780630f322c1e146101d3578063177caf35146101dc5780632101772a146101ff578063263095551461023c575b600080fd5b61019c60035481565b6040519081526020015b60405180910390f35b6101c26101bd366004612721565b61040a565b6040516101a6959493929190612795565b61019c60015481565b6101ef6101ea3660046127d8565b6104f1565b60405190151581526020016101a6565b6101ef61020d3660046128da565b6001600160a01b0382166000908152600660209081526040909120600501548251918301919091201492915050565b61024f61024a366004612721565b6106fe565b6040516101a6919061292a565b6101ef61026a366004612977565b61079c565b6101ef61027d366004612977565b6108f7565b6101ef610290366004612977565b610c9b565b6101ef6102a33660046127d8565b610e71565b6101ef6102b63660046129b0565b805160208183018101805160088252928201919093012091525460ff1681565b6101ef6102e4366004612977565b6110fd565b6102fc6102f7366004612721565b6114d4565b6040516101a694939291906129ed565b61024f61031a366004612721565b611635565b6101ef61032d366004612a2c565b61168c565b6101ef610340366004612ada565b611939565b6101ef610353366004612b88565b611a45565b61024f610366366004612721565b611bfd565b6101ef610379366004612bdd565b611c53565b61019c60025481565b6101ef610395366004612bdd565b611f53565b61019c60045481565b6101ef6103b13660046129b0565b805160208183018101805160078252928201919093012091525460ff1681565b6101ef6103df366004612c42565b6121da565b61024f6103f2366004612721565b612382565b6101ef610405366004612977565b6123d9565b6001600160a01b03808216600090815260066020526040812080546001820154600383015460098401546002909401805495968796606096889687969095931693929160ff90911690839061045e90612cae565b80601f016020809104026020016040519081016040528092919081815260200182805461048a90612cae565b80156104d75780601f106104ac576101008083540402835291602001916104d7565b820191906000526020600020905b8154815290600101906020018083116104ba57829003601f168201915b505050505092509450945094509450945091939590929450565b6000805460ff16156106f0576001600160a01b0384166000908152600560205260409081902090516376df7bff60e01b815273__$fff9ae4b06e46ab93aa37f30cb41b1f7bb$__916376df7bff9161055191600901908690600401612ce8565b602060405180830381865af415801561056e573d6000803e3d6000fd5b505050506040513d601f19601f820116820180604052508101906105929190612cff565b156106f0576001600160a01b038216600090815260056020526040908190209051630f00c56f60e41b815273__$fff9ae4b06e46ab93aa37f30cb41b1f7bb$__9163f00c56f0916105eb91600601908790600401612ce8565b60006040518083038186803b15801561060357600080fd5b505af4158015610617573d6000803e3d6000fd5b5050506001600160a01b0384166000908152600660208190526040918290209151630f00c56f60e41b815273__$fff9ae4b06e46ab93aa37f30cb41b1f7bb$__935063f00c56f09261066f9201908690600401612ce8565b60006040518083038186803b15801561068757600080fd5b505af415801561069b573d6000803e3d6000fd5b5050604080516001600160a01b03808816825280891660208301528616918101919091527e3d084bcd6d65c03b3ada258da4839c348614ea44a675b9d25c87d6d04ff8c2925060600190505b60405180910390a15b5060005460ff169392505050565b6001600160a01b03811660009081526005602052604090819020905163535ff66560e01b81526006909101600482015260609073__$fff9ae4b06e46ab93aa37f30cb41b1f7bb$__9063535ff665906024015b600060405180830381865af415801561076e573d6000803e3d6000fd5b505050506040513d6000823e601f3d908101601f191682016040526107969190810190612d21565b92915050565b6000805460ff16156108ea576001600160a01b038316600090815260056020526040908190209051630f00c56f60e41b815273__$fff9ae4b06e46ab93aa37f30cb41b1f7bb$__9163f00c56f0916107fc91600901908690600401612ce8565b60006040518083038186803b15801561081457600080fd5b505af4158015610828573d6000803e3d6000fd5b505050506001600160a01b038216600090815260056020526040908190209051630f00c56f60e41b815273__$fff9ae4b06e46ab93aa37f30cb41b1f7bb$__9163f00c56f09161088091600901908790600401612ce8565b60006040518083038186803b15801561089857600080fd5b505af41580156108ac573d6000803e3d6000fd5b505050507f0c65bfcfc9323f4e0510884c021b5a6dbb865ff94299eb9a8f89b36412a7d99883836040516108e1929190612dd3565b60405180910390a15b5060005460ff1692915050565b6001600160a01b0382166000908152600560205260408120600c0154839060ff1661093d5760405162461bcd60e51b815260040161093490612ded565b60405180910390fd5b6001600160a01b03808416600090815260066020526040902060010154859185918184169116146109805760405162461bcd60e51b815260040161093490612e1b565b60005460ff1615610c8b5760005b6001600160a01b038716600090815260056020526040908190209051630b7e4a6960e11b81526009909101600482015273__$fff9ae4b06e46ab93aa37f30cb41b1f7bb$__906316fc94d290602401602060405180830381865af41580156109fa573d6000803e3d6000fd5b505050506040513d601f19601f82011682018060405250810190610a1e9190612e52565b811015610c50576001600160a01b038716600090815260056020819052604080832090516339ab02eb60e21b8152600990910160048201526024810184905290919073__$fff9ae4b06e46ab93aa37f30cb41b1f7bb$__9063e6ac0bac90604401602060405180830381865af4158015610a9c573d6000803e3d6000fd5b505050506040513d601f19601f82011682018060405250810190610ac09190612e6b565b6001600160a01b031681526020810191909152604090810160002090516301c058a960e21b815273__$fff9ae4b06e46ab93aa37f30cb41b1f7bb$__9163070162a491610b1591600601908a90600401612ce8565b60006040518083038186803b158015610b2d57600080fd5b505af4158015610b41573d6000803e3d6000fd5b505050506001600160a01b038681166000908152600660208181526040808420948c16845260059091529182902091516339ab02eb60e21b8152600990920160048301526024820184905273__$fff9ae4b06e46ab93aa37f30cb41b1f7bb$__9263070162a492910190839063e6ac0bac90604401602060405180830381865af4158015610bd3573d6000803e3d6000fd5b505050506040513d601f19601f82011682018060405250810190610bf79190612e6b565b6040518363ffffffff1660e01b8152600401610c14929190612ce8565b60006040518083038186803b158015610c2c57600080fd5b505af4158015610c40573d6000803e3d6000fd5b50506001909201915061098e9050565b507f511a33c21ca1dfd7c3757f4cc04f0dc8e2e26fedf5e74be30e61bb71a920e82a8587604051610c82929190612dd3565b60405180910390a15b505060005460ff16949350505050565b6001600160a01b0382166000908152600560205260408120600c0154839060ff16610cd85760405162461bcd60e51b815260040161093490612ded565b6001600160a01b0383166000908152600560205260409020600c0154839060ff16610d155760405162461bcd60e51b815260040161093490612ded565b60005460ff1615610e62576001600160a01b0385166000908152600560205260409081902090516301c058a960e21b815273__$fff9ae4b06e46ab93aa37f30cb41b1f7bb$__9163070162a491610d7491600901908890600401612ce8565b60006040518083038186803b158015610d8c57600080fd5b505af4158015610da0573d6000803e3d6000fd5b505050506001600160a01b0384166000908152600560205260409081902090516301c058a960e21b815273__$fff9ae4b06e46ab93aa37f30cb41b1f7bb$__9163070162a491610df891600901908990600401612ce8565b60006040518083038186803b158015610e1057600080fd5b505af4158015610e24573d6000803e3d6000fd5b505050507f991da500dc9f910ce2a64c3d13783d3f75d912d123ae2d8334ad0a817c91f23b8585604051610e59929190612dd3565b60405180910390a15b505060005460ff169392505050565b6001600160a01b0383166000908152600560205260408120600c0154849060ff16610eae5760405162461bcd60e51b815260040161093490612ded565b6001600160a01b0380851660009081526006602052604090206001015486918691818416911614610ef15760405162461bcd60e51b815260040161093490612e1b565b60005460ff16156110ec576001600160a01b0387166000908152600560205260409081902090516376df7bff60e01b815273__$fff9ae4b06e46ab93aa37f30cb41b1f7bb$__916376df7bff91610f5091600901908990600401612ce8565b602060405180830381865af4158015610f6d573d6000803e3d6000fd5b505050506040513d601f19601f82011682018060405250810190610f919190612cff565b156110a0576001600160a01b03861660009081526006602081905260409182902091516301c058a960e21b815273__$fff9ae4b06e46ab93aa37f30cb41b1f7bb$__9263070162a492610feb929101908990600401612ce8565b60006040518083038186803b15801561100357600080fd5b505af4158015611017573d6000803e3d6000fd5b505050506001600160a01b0385166000908152600560205260409081902090516301c058a960e21b815273__$fff9ae4b06e46ab93aa37f30cb41b1f7bb$__9163070162a49161106f91600601908a90600401612ce8565b60006040518083038186803b15801561108757600080fd5b505af415801561109b573d6000803e3d6000fd5b505050505b604080516001600160a01b038881168252898116602083015287168183015290517f14dd0b4b05df5e2d084d0ed825d4149376d62cbf6632aa97cfb20891bacee74c9181900360600190a15b505060005460ff1695945050505050565b6001600160a01b0382166000908152600560205260408120600c0154839060ff1661113a5760405162461bcd60e51b815260040161093490612ded565b6001600160a01b038084166000908152600660205260409020600101548591859181841691161461117d5760405162461bcd60e51b815260040161093490612e1b565b60005460ff1615610c8b5760005b6001600160a01b0386166000908152600660208190526040918290209151630b7e4a6960e11b81529101600482015273__$fff9ae4b06e46ab93aa37f30cb41b1f7bb$__906316fc94d290602401602060405180830381865af41580156111f6573d6000803e3d6000fd5b505050506040513d601f19601f8201168201806040525081019061121a9190612e52565b81101561134b576001600160a01b038616600090815260066020819052604080832090516339ab02eb60e21b815291016004820152602481018390526005919073__$fff9ae4b06e46ab93aa37f30cb41b1f7bb$__9063e6ac0bac90604401602060405180830381865af4158015611296573d6000803e3d6000fd5b505050506040513d601f19601f820116820180604052508101906112ba9190612e6b565b6001600160a01b03168152602081019190915260409081016000209051630f00c56f60e41b815273__$fff9ae4b06e46ab93aa37f30cb41b1f7bb$__9163f00c56f09161130f91600601908a90600401612ce8565b60006040518083038186803b15801561132757600080fd5b505af415801561133b573d6000803e3d6000fd5b50506001909201915061118b9050565b506001600160a01b038616600090815260056020526040908190209051630f00c56f60e41b815273__$fff9ae4b06e46ab93aa37f30cb41b1f7bb$__9163f00c56f0916113a091600301908990600401612ce8565b60006040518083038186803b1580156113b857600080fd5b505af41580156113cc573d6000803e3d6000fd5b5050506001600160a01b03861660009081526006602052604081208181556001810180546001600160a01b0319169055915061140b600283018261269c565b6003820160009055600482016000611423919061269c565b600060058301819055600683019061143b82826126d9565b505050600901805460ff191690556001600160a01b03851660009081526006602052604090819020905160089161147791600490910190612e88565b908152604051908190036020019020805460ff191690556002805490600061149e83612f14565b91905055507f4bbe610abcbb36dfdc44c6f9719cf0d679122ba9f2349dc036e6f2e6d7f135ae8587604051610c82929190612dd3565b6001600160a01b03811660009081526005602052604081208054600c8201546001830180546060948594879490939260029092019160ff90911690839061151a90612cae565b80601f016020809104026020016040519081016040528092919081815260200182805461154690612cae565b80156115935780601f1061156857610100808354040283529160200191611593565b820191906000526020600020905b81548152906001019060200180831161157657829003601f168201915b505050505092508180546115a690612cae565b80601f01602080910402602001604051908101604052809291908181526020018280546115d290612cae565b801561161f5780601f106115f45761010080835404028352916020019161161f565b820191906000526020600020905b81548152906001019060200180831161160257829003601f168201915b5050505050915093509350935093509193509193565b6001600160a01b03811660009081526005602052604090819020905163535ff66560e01b81526003909101600482015260609073__$fff9ae4b06e46ab93aa37f30cb41b1f7bb$__9063535ff66590602401610751565b6001600160a01b0385166000908152600560205260408120600c0154869060ff166116c95760405162461bcd60e51b815260040161093490612ded565b6001600160a01b0386166000908152600660205260409020600901548690859060ff1615801561171957506008816040516117049190612f2b565b9081526040519081900360200190205460ff16155b61175c5760405162461bcd60e51b81526020600482015260146024820152732334b6329030b63932b0b23c9032bc34b9ba399760611b6044820152606401610934565b60005460ff161561192657600480548691600061177883612f47565b909155506001600160a01b038a811660009081526006602052604090209182556001820180546001600160a01b031916918d169190911790556002016117be8982612fb1565b5080516001600160a01b038a16600090815260066020526040902060038101919091556004016117ee8882612fb1565b5080516020808301919091206001600160a01b03808c166000908152600684526040808220600580820195909555600901805460ff19166001179055918e1681529190925281902090516301c058a960e21b815273__$fff9ae4b06e46ab93aa37f30cb41b1f7bb$__9163070162a49161187091600301908d90600401612ce8565b60006040518083038186803b15801561188857600080fd5b505af415801561189c573d6000803e3d6000fd5b5050505060016008886040516118b29190612f2b565b908152604051908190036020019020805491151560ff19909216919091179055600280549060006118e283612f47565b91905055507fe0f76fb99d0fdcc765fe6a79952945f024346ab3418e7d8cc9eed19185d31d4c8a8a8a8a60405161191c9493929190613071565b60405180910390a1505b505060005460ff16979650505050505050565b6001600160a01b0383166000908152600560205260408120600c0154849060ff166119765760405162461bcd60e51b815260040161093490612ded565b6001600160a01b03808516600090815260066020526040902060010154869186918184169116146119b95760405162461bcd60e51b815260040161093490612e1b565b60005460ff16156110ec5784516001600160a01b03871660009081526006602090815260409182902060038101939093558751908801206005909201919091555185907f5001157a468bbef1c03dba122785f55c5c7cef98e8e79e9661e00c0be74700a690611a2b9089908b90612dd3565b60405180910390a1505060005460ff169695505050505050565b6000805460ff16156106f05760005b82811015611bc3576001600160a01b038516600090815260056020526040902073__$fff9ae4b06e46ab93aa37f30cb41b1f7bb$__9063f00c56f090600901868685818110611aa557611aa56130ba565b9050602002016020810190611aba9190612721565b6040518363ffffffff1660e01b8152600401611ad7929190612ce8565b60006040518083038186803b158015611aef57600080fd5b505af4158015611b03573d6000803e3d6000fd5b5050505060056000858584818110611b1d57611b1d6130ba565b9050602002016020810190611b329190612721565b6001600160a01b03168152602081019190915260409081016000209051630f00c56f60e41b815273__$fff9ae4b06e46ab93aa37f30cb41b1f7bb$__9163f00c56f091611b8791600901908990600401612ce8565b60006040518083038186803b158015611b9f57600080fd5b505af4158015611bb3573d6000803e3d6000fd5b505060019092019150611a549050565b506040516001600160a01b03851681527fb8132c270e672746207d3fd022b2c141a3183a6c1504b7a0d4916c1c5510c0f5906020016106e7565b6001600160a01b038116600090815260066020819052604091829020915163535ff66560e01b81529101600482015260609073__$fff9ae4b06e46ab93aa37f30cb41b1f7bb$__9063535ff66590602401610751565b6001600160a01b0384166000908152600560205260408120600c0154859060ff16611c905760405162461bcd60e51b815260040161093490612ded565b6001600160a01b0380861660009081526006602052604090206001015487918791818416911614611cd35760405162461bcd60e51b815260040161093490612e1b565b60005460ff1615611f415760005b85811015611f0f576001600160a01b038916600090815260056020526040902073__$fff9ae4b06e46ab93aa37f30cb41b1f7bb$__906376df7bff90600901898985818110611d3257611d326130ba565b9050602002016020810190611d479190612721565b6040518363ffffffff1660e01b8152600401611d64929190612ce8565b602060405180830381865af4158015611d81573d6000803e3d6000fd5b505050506040513d601f19601f82011682018060405250810190611da59190612cff565b15611f07576001600160a01b038816600090815260066020819052604090912073__$fff9ae4b06e46ab93aa37f30cb41b1f7bb$__9163070162a49101898985818110611df457611df46130ba565b9050602002016020810190611e099190612721565b6040518363ffffffff1660e01b8152600401611e26929190612ce8565b60006040518083038186803b158015611e3e57600080fd5b505af4158015611e52573d6000803e3d6000fd5b5050505060056000888884818110611e6c57611e6c6130ba565b9050602002016020810190611e819190612721565b6001600160a01b031681526020810191909152604090810160002090516301c058a960e21b815273__$fff9ae4b06e46ab93aa37f30cb41b1f7bb$__9163070162a491611ed691600601908c90600401612ce8565b60006040518083038186803b158015611eee57600080fd5b505af4158015611f02573d6000803e3d6000fd5b505050505b600101611ce1565b507f83b7e751ca40152ecb3f193bad2bdec238f8e455238659dc5b21de9af3e4951e8789604051611a2b929190612dd3565b505060005460ff169695505050505050565b6000805460ff16156121cb5760005b82811015612190576001600160a01b038616600090815260056020526040902073__$fff9ae4b06e46ab93aa37f30cb41b1f7bb$__906376df7bff90600901868685818110611fb357611fb36130ba565b9050602002016020810190611fc89190612721565b6040518363ffffffff1660e01b8152600401611fe5929190612ce8565b602060405180830381865af4158015612002573d6000803e3d6000fd5b505050506040513d601f19601f820116820180604052508101906120269190612cff565b156121885760056000858584818110612041576120416130ba565b90506020020160208101906120569190612721565b6001600160a01b03168152602081019190915260409081016000209051630f00c56f60e41b815273__$fff9ae4b06e46ab93aa37f30cb41b1f7bb$__9163f00c56f0916120ab91600601908990600401612ce8565b60006040518083038186803b1580156120c357600080fd5b505af41580156120d7573d6000803e3d6000fd5b5050506001600160a01b038616600090815260066020819052604090912073__$fff9ae4b06e46ab93aa37f30cb41b1f7bb$__925063f00c56f09101868685818110612125576121256130ba565b905060200201602081019061213a9190612721565b6040518363ffffffff1660e01b8152600401612157929190612ce8565b60006040518083038186803b15801561216f57600080fd5b505af4158015612183573d6000803e3d6000fd5b505050505b600101611f62565b507f869ba4359358aed5de3d3cb02c3c622e762cd5a563823281f89dc5b3bf955ac184866040516121c2929190612dd3565b60405180910390a15b5060005460ff16949350505050565b6001600160a01b0383166000908152600560205260408120600c01548490839060ff1615801561222a57506007816040516122159190612f2b565b9081526040519081900360200190205460ff16155b61226d5760405162461bcd60e51b81526020600482015260146024820152732ab9b2b91030b63932b0b23c9032bc34b9ba399760611b6044820152606401610934565b60005460ff1615610c8b576003805490600061228883612f47565b909155506001600160a01b03871660009081526005602052604090209081556001016122b48682612fb1565b506001600160a01b03861660009081526005602052604090206002016122da8582612fb1565b506001600160a01b03861660009081526005602052604090819020600c01805460ff191660019081179091559051600790612316908790612f2b565b908152604051908190036020019020805491151560ff199092169190911790556001805490600061234683612f47565b91905055507fe42b7e5ce4f4d261f8411f66412b019fbff329671721a467c933e254cfe79133866003548787604051610c8294939291906130d0565b6001600160a01b03811660009081526005602052604090819020905163535ff66560e01b81526009909101600482015260609073__$fff9ae4b06e46ab93aa37f30cb41b1f7bb$__9063535ff66590602401610751565b6001600160a01b0380821660009081526006602052604081206001015490918491849180841691161461241e5760405162461bcd60e51b815260040161093490612e1b565b60005460ff1615610e625760005b6001600160a01b0385166000908152600660208190526040918290209151630b7e4a6960e11b81529101600482015273__$fff9ae4b06e46ab93aa37f30cb41b1f7bb$__906316fc94d290602401602060405180830381865af4158015612497573d6000803e3d6000fd5b505050506040513d601f19601f820116820180604052508101906124bb9190612e52565b8110156125ec576001600160a01b038516600090815260066020819052604080832090516339ab02eb60e21b815291016004820152602481018390526005919073__$fff9ae4b06e46ab93aa37f30cb41b1f7bb$__9063e6ac0bac90604401602060405180830381865af4158015612537573d6000803e3d6000fd5b505050506040513d601f19601f8201168201806040525081019061255b9190612e6b565b6001600160a01b03168152602081019190915260409081016000209051630f00c56f60e41b815273__$fff9ae4b06e46ab93aa37f30cb41b1f7bb$__9163f00c56f0916125b091600601908990600401612ce8565b60006040518083038186803b1580156125c857600080fd5b505af41580156125dc573d6000803e3d6000fd5b50506001909201915061242c9050565b506001600160a01b03841660009081526006602081905260409182902091516344dd2d7160e01b81529101600482015273__$fff9ae4b06e46ab93aa37f30cb41b1f7bb$__906344dd2d719060240160006040518083038186803b15801561265357600080fd5b505af4158015612667573d6000803e3d6000fd5b505050507f7dfa20ddc214724f0cba405349540340823d557e6fe0bec9dc15dd3540f67ca88486604051610e59929190612dd3565b5080546126a890612cae565b6000825580601f106126b8575050565b601f0160209004906000526020600020908101906126d691906126f3565b50565b50805460008255906000526020600020908101906126d691905b5b8082111561270857600081556001016126f4565b5090565b6001600160a01b03811681146126d657600080fd5b60006020828403121561273357600080fd5b813561273e8161270c565b9392505050565b60005b83811015612760578181015183820152602001612748565b50506000910152565b60008151808452612781816020860160208601612745565b601f01601f19169290920160200192915050565b8581526001600160a01b038516602082015260a0604082018190526000906127bf90830186612769565b6060830194909452509015156080909101529392505050565b6000806000606084860312156127ed57600080fd5b83356127f88161270c565b925060208401356128088161270c565b915060408401356128188161270c565b809150509250925092565b634e487b7160e01b600052604160045260246000fd5b604051601f8201601f1916810167ffffffffffffffff8111828210171561286257612862612823565b604052919050565b600082601f83011261287b57600080fd5b813567ffffffffffffffff81111561289557612895612823565b6128a8601f8201601f1916602001612839565b8181528460208386010111156128bd57600080fd5b816020850160208301376000918101602001919091529392505050565b600080604083850312156128ed57600080fd5b82356128f88161270c565b9150602083013567ffffffffffffffff81111561291457600080fd5b6129208582860161286a565b9150509250929050565b6020808252825182820181905260009190848201906040850190845b8181101561296b5783516001600160a01b031683529284019291840191600101612946565b50909695505050505050565b6000806040838503121561298a57600080fd5b82356129958161270c565b915060208301356129a58161270c565b809150509250929050565b6000602082840312156129c257600080fd5b813567ffffffffffffffff8111156129d957600080fd5b6129e58482850161286a565b949350505050565b848152608060208201526000612a066080830186612769565b8281036040840152612a188186612769565b915050821515606083015295945050505050565b600080600080600060a08688031215612a4457600080fd5b8535612a4f8161270c565b94506020860135612a5f8161270c565b9350604086013567ffffffffffffffff80821115612a7c57600080fd5b612a8889838a0161286a565b94506060880135915080821115612a9e57600080fd5b612aaa89838a0161286a565b93506080880135915080821115612ac057600080fd5b50612acd8882890161286a565b9150509295509295909350565b600080600060608486031215612aef57600080fd5b8335612afa8161270c565b92506020840135612b0a8161270c565b9150604084013567ffffffffffffffff811115612b2657600080fd5b612b328682870161286a565b9150509250925092565b60008083601f840112612b4e57600080fd5b50813567ffffffffffffffff811115612b6657600080fd5b6020830191508360208260051b8501011115612b8157600080fd5b9250929050565b600080600060408486031215612b9d57600080fd5b8335612ba88161270c565b9250602084013567ffffffffffffffff811115612bc457600080fd5b612bd086828701612b3c565b9497909650939450505050565b60008060008060608587031215612bf357600080fd5b8435612bfe8161270c565b93506020850135612c0e8161270c565b9250604085013567ffffffffffffffff811115612c2a57600080fd5b612c3687828801612b3c565b95989497509550505050565b600080600060608486031215612c5757600080fd5b8335612c628161270c565b9250602084013567ffffffffffffffff80821115612c7f57600080fd5b612c8b8783880161286a565b93506040860135915080821115612ca157600080fd5b50612b328682870161286a565b600181811c90821680612cc257607f821691505b602082108103612ce257634e487b7160e01b600052602260045260246000fd5b50919050565b9182526001600160a01b0316602082015260400190565b600060208284031215612d1157600080fd5b8151801515811461273e57600080fd5b60006020808385031215612d3457600080fd5b825167ffffffffffffffff80821115612d4c57600080fd5b818501915085601f830112612d6057600080fd5b815181811115612d7257612d72612823565b8060051b9150612d83848301612839565b8181529183018401918481019088841115612d9d57600080fd5b938501935b83851015612dc75784519250612db78361270c565b8282529385019390850190612da2565b98975050505050505050565b6001600160a01b0392831681529116602082015260400190565b6020808252601490820152732ab9b2b9103237b2b9903737ba1032bc34b9ba1760611b604082015260600190565b6020808252601b908201527f55736572206973206e6f74207468652066696c65206f776e65722e0000000000604082015260600190565b600060208284031215612e6457600080fd5b5051919050565b600060208284031215612e7d57600080fd5b815161273e8161270c565b6000808354612e9681612cae565b60018281168015612eae5760018114612ec357612ef2565b60ff1984168752821515830287019450612ef2565b8760005260208060002060005b85811015612ee95781548a820152908401908201612ed0565b50505082870194505b50929695505050505050565b634e487b7160e01b600052601160045260246000fd5b600081612f2357612f23612efe565b506000190190565b60008251612f3d818460208701612745565b9190910192915050565b600060018201612f5957612f59612efe565b5060010190565b601f821115612fac576000816000526020600020601f850160051c81016020861015612f895750805b601f850160051c820191505b81811015612fa857828155600101612f95565b5050505b505050565b815167ffffffffffffffff811115612fcb57612fcb612823565b612fdf81612fd98454612cae565b84612f60565b602080601f8311600181146130145760008415612ffc5750858301515b600019600386901b1c1916600185901b178555612fa8565b600085815260208120601f198616915b8281101561304357888601518255948401946001909101908401613024565b50858210156130615787850151600019600388901b60f8161c191681555b5050505050600190811b01905550565b6001600160a01b0385811682528416602082015260806040820181905260009061309d90830185612769565b82810360608401526130af8185612769565b979650505050505050565b634e487b7160e01b600052603260045260246000fd5b60018060a01b038516815283602082015260806040820152600061309d608083018561276956fea2646970667358221220c3e6c39fed3924068e6356d5f8687081a80b682315ec24ec4bb552f12e0fb84f64736f6c63430008180033646a6965696a33494b244b482d666a64406b665f666b6b666c6b64515746254843422b333632683435673d4f39336a64682a403f",
          "opcodes": "PUSH1 0x80 PUSH1 0x40 MSTORE PUSH1 0x0 DUP1 SLOAD PUSH1 0xFF NOT AND DUP2 SSTORE PUSH1 0x3 DUP2 SWAP1 SSTORE PUSH1 0x4 SSTORE CALLVALUE DUP1 ISZERO PUSH3 0x23 JUMPI PUSH1 0x0 DUP1 REVERT JUMPDEST POP PUSH1 0x40 MLOAD PUSH3 0x32E6 CODESIZE SUB DUP1 PUSH3 0x32E6 DUP4 CODECOPY DUP2 ADD PUSH1 0x40 DUP2 SWAP1 MSTORE PUSH3 0x46 SWAP2 PUSH3 0xA0 JUMP JUMPDEST PUSH1 0x40 MLOAD DUP1 PUSH1 0x60 ADD PUSH1 0x40 MSTORE DUP1 PUSH1 0x34 DUP2 MSTORE PUSH1 0x20 ADD PUSH3 0x32B2 PUSH1 0x34 SWAP2 CODECOPY DUP1 MLOAD SWAP1 PUSH1 0x20 ADD KECCAK256 DUP2 DUP1 MLOAD SWAP1 PUSH1 0x20 ADD KECCAK256 SUB PUSH3 0x83 JUMPI PUSH1 0x0 DUP1 SLOAD PUSH1 0xFF NOT AND PUSH1 0x1 OR SWAP1 SSTORE JUMPDEST POP PUSH3 0x175 JUMP JUMPDEST PUSH4 0x4E487B71 PUSH1 0xE0 SHL PUSH1 0x0 MSTORE PUSH1 0x41 PUSH1 0x4 MSTORE PUSH1 0x24 PUSH1 0x0 REVERT JUMPDEST PUSH1 0x0 PUSH1 0x20 DUP1 DUP4 DUP6 SUB SLT ISZERO PUSH3 0xB4 JUMPI PUSH1 0x0 DUP1 REVERT JUMPDEST DUP3 MLOAD PUSH1 0x1 PUSH1 0x1 PUSH1 0x40 SHL SUB DUP1 DUP3 GT ISZERO PUSH3 0xCC JUMPI PUSH1 0x0 DUP1 REVERT JUMPDEST DUP2 DUP6 ADD SWAP2 POP DUP6 PUSH1 0x1F DUP4 ADD SLT PUSH3 0xE1 JUMPI PUSH1 0x0 DUP1 REVERT JUMPDEST DUP2 MLOAD DUP2 DUP2 GT ISZERO PUSH3 0xF6 JUMPI PUSH3 0xF6 PUSH3 0x8A JUMP JUMPDEST PUSH1 0x40 MLOAD PUSH1 0x1F DUP3 ADD PUSH1 0x1F NOT SWAP1 DUP2 AND PUSH1 0x3F ADD AND DUP2 ADD SWAP1 DUP4 DUP3 GT DUP2 DUP4 LT OR ISZERO PUSH3 0x121 JUMPI PUSH3 0x121 PUSH3 0x8A JUMP JUMPDEST DUP2 PUSH1 0x40 MSTORE DUP3 DUP2 MSTORE DUP9 DUP7 DUP5 DUP8 ADD ADD GT ISZERO PUSH3 0x13A JUMPI PUSH1 0x0 DUP1 REVERT JUMPDEST PUSH1 0x0 SWAP4 POP JUMPDEST DUP3 DUP5 LT ISZERO PUSH3 0x15E JUMPI DUP5 DUP5 ADD DUP7 ADD MLOAD DUP2 DUP6 ADD DUP8 ADD MSTORE SWAP3 DUP6 ADD SWAP3 PUSH3 0x13F JUMP JUMPDEST PUSH1 0x0 DUP7 DUP5 DUP4 ADD ADD MSTORE DUP1 SWAP7 POP POP POP POP POP POP POP SWAP3 SWAP2 POP POP JUMP JUMPDEST PUSH2 0x312D DUP1 PUSH3 0x185 PUSH1 0x0 CODECOPY PUSH1 0x0 RETURN INVALID PUSH1 0x80 PUSH1 0x40 MSTORE CALLVALUE DUP1 ISZERO PUSH2 0x10 JUMPI PUSH1 0x0 DUP1 REVERT JUMPDEST POP PUSH1 0x4 CALLDATASIZE LT PUSH2 0x18E JUMPI PUSH1 0x0 CALLDATALOAD PUSH1 0xE0 SHR DUP1 PUSH4 0x8261DCC8 GT PUSH2 0xDE JUMPI DUP1 PUSH4 0xC4B3199C GT PUSH2 0x97 JUMPI DUP1 PUSH4 0xD5B0D30D GT PUSH2 0x71 JUMPI DUP1 PUSH4 0xD5B0D30D EQ PUSH2 0x3A3 JUMPI DUP1 PUSH4 0xD7554A68 EQ PUSH2 0x3D1 JUMPI DUP1 PUSH4 0xE2C427DB EQ PUSH2 0x3E4 JUMPI DUP1 PUSH4 0xEE43437F EQ PUSH2 0x3F7 JUMPI PUSH1 0x0 DUP1 REVERT JUMPDEST DUP1 PUSH4 0xC4B3199C EQ PUSH2 0x37E JUMPI DUP1 PUSH4 0xD2653470 EQ PUSH2 0x387 JUMPI DUP1 PUSH4 0xD34CB330 EQ PUSH2 0x39A JUMPI PUSH1 0x0 DUP1 REVERT JUMPDEST DUP1 PUSH4 0x8261DCC8 EQ PUSH2 0x30C JUMPI DUP1 PUSH4 0x842A1584 EQ PUSH2 0x31F JUMPI DUP1 PUSH4 0x99A2C2AE EQ PUSH2 0x332 JUMPI DUP1 PUSH4 0xA3F04236 EQ PUSH2 0x345 JUMPI DUP1 PUSH4 0xBB18A65B EQ PUSH2 0x358 JUMPI DUP1 PUSH4 0xC17D4190 EQ PUSH2 0x36B JUMPI PUSH1 0x0 DUP1 REVERT JUMPDEST DUP1 PUSH4 0x27080FBB GT PUSH2 0x14B JUMPI DUP1 PUSH4 0x3C88A3E1 GT PUSH2 0x125 JUMPI DUP1 PUSH4 0x3C88A3E1 EQ PUSH2 0x295 JUMPI DUP1 PUSH4 0x5DE8C116 EQ PUSH2 0x2A8 JUMPI DUP1 PUSH4 0x5DF9D4AE EQ PUSH2 0x2D6 JUMPI DUP1 PUSH4 0x6F77926B EQ PUSH2 0x2E9 JUMPI PUSH1 0x0 DUP1 REVERT JUMPDEST DUP1 PUSH4 0x27080FBB EQ PUSH2 0x25C JUMPI DUP1 PUSH4 0x2D1D6B8D EQ PUSH2 0x26F JUMPI DUP1 PUSH4 0x37858B0C EQ PUSH2 0x282 JUMPI PUSH1 0x0 DUP1 REVERT JUMPDEST DUP1 PUSH4 0xA3F1CC7 EQ PUSH2 0x193 JUMPI DUP1 PUSH4 0xB87C1E0 EQ PUSH2 0x1AF JUMPI DUP1 PUSH4 0xF322C1E EQ PUSH2 0x1D3 JUMPI DUP1 PUSH4 0x177CAF35 EQ PUSH2 0x1DC JUMPI DUP1 PUSH4 0x2101772A EQ PUSH2 0x1FF JUMPI DUP1 PUSH4 0x26309555 EQ PUSH2 0x23C JUMPI JUMPDEST PUSH1 0x0 DUP1 REVERT JUMPDEST PUSH2 0x19C PUSH1 0x3 SLOAD DUP2 JUMP JUMPDEST PUSH1 0x40 MLOAD SWAP1 DUP2 MSTORE PUSH1 0x20 ADD JUMPDEST PUSH1 0x40 MLOAD DUP1 SWAP2 SUB SWAP1 RETURN JUMPDEST PUSH2 0x1C2 PUSH2 0x1BD CALLDATASIZE PUSH1 0x4 PUSH2 0x2721 JUMP JUMPDEST PUSH2 0x40A JUMP JUMPDEST PUSH1 0x40 MLOAD PUSH2 0x1A6 SWAP6 SWAP5 SWAP4 SWAP3 SWAP2 SWAP1 PUSH2 0x2795 JUMP JUMPDEST PUSH2 0x19C PUSH1 0x1 SLOAD DUP2 JUMP JUMPDEST PUSH2 0x1EF PUSH2 0x1EA CALLDATASIZE PUSH1 0x4 PUSH2 0x27D8 JUMP JUMPDEST PUSH2 0x4F1 JUMP JUMPDEST PUSH1 0x40 MLOAD SWAP1 ISZERO ISZERO DUP2 MSTORE PUSH1 0x20 ADD PUSH2 0x1A6 JUMP JUMPDEST PUSH2 0x1EF PUSH2 0x20D CALLDATASIZE PUSH1 0x4 PUSH2 0x28DA JUMP JUMPDEST PUSH1 0x1 PUSH1 0x1 PUSH1 0xA0 SHL SUB DUP3 AND PUSH1 0x0 SWAP1 DUP2 MSTORE PUSH1 0x6 PUSH1 0x20 SWAP1 DUP2 MSTORE PUSH1 0x40 SWAP1 SWAP2 KECCAK256 PUSH1 0x5 ADD SLOAD DUP3 MLOAD SWAP2 DUP4 ADD SWAP2 SWAP1 SWAP2 KECCAK256 EQ SWAP3 SWAP2 POP POP JUMP JUMPDEST PUSH2 0x24F PUSH2 0x24A CALLDATASIZE PUSH1 0x4 PUSH2 0x2721 JUMP JUMPDEST PUSH2 0x6FE JUMP JUMPDEST PUSH1 0x40 MLOAD PUSH2 0x1A6 SWAP2 SWAP1 PUSH2 0x292A JUMP JUMPDEST PUSH2 0x1EF PUSH2 0x26A CALLDATASIZE PUSH1 0x4 PUSH2 0x2977 JUMP JUMPDEST PUSH2 0x79C JUMP JUMPDEST PUSH2 0x1EF PUSH2 0x27D CALLDATASIZE PUSH1 0x4 PUSH2 0x2977 JUMP JUMPDEST PUSH2 0x8F7 JUMP JUMPDEST PUSH2 0x1EF PUSH2 0x290 CALLDATASIZE PUSH1 0x4 PUSH2 0x2977 JUMP JUMPDEST PUSH2 0xC9B JUMP JUMPDEST PUSH2 0x1EF PUSH2 0x2A3 CALLDATASIZE PUSH1 0x4 PUSH2 0x27D8 JUMP JUMPDEST PUSH2 0xE71 JUMP JUMPDEST PUSH2 0x1EF PUSH2 0x2B6 CALLDATASIZE PUSH1 0x4 PUSH2 0x29B0 JUMP JUMPDEST DUP1 MLOAD PUSH1 0x20 DUP2 DUP4 ADD DUP2 ADD DUP1 MLOAD PUSH1 0x8 DUP3 MSTORE SWAP3 DUP3 ADD SWAP2 SWAP1 SWAP4 ADD KECCAK256 SWAP2 MSTORE SLOAD PUSH1 0xFF AND DUP2 JUMP JUMPDEST PUSH2 0x1EF PUSH2 0x2E4 CALLDATASIZE PUSH1 0x4 PUSH2 0x2977 JUMP JUMPDEST PUSH2 0x10FD JUMP JUMPDEST PUSH2 0x2FC PUSH2 0x2F7 CALLDATASIZE PUSH1 0x4 PUSH2 0x2721 JUMP JUMPDEST PUSH2 0x14D4 JUMP JUMPDEST PUSH1 0x40 MLOAD PUSH2 0x1A6 SWAP5 SWAP4 SWAP3 SWAP2 SWAP1 PUSH2 0x29ED JUMP JUMPDEST PUSH2 0x24F PUSH2 0x31A CALLDATASIZE PUSH1 0x4 PUSH2 0x2721 JUMP JUMPDEST PUSH2 0x1635 JUMP JUMPDEST PUSH2 0x1EF PUSH2 0x32D CALLDATASIZE PUSH1 0x4 PUSH2 0x2A2C JUMP JUMPDEST PUSH2 0x168C JUMP JUMPDEST PUSH2 0x1EF PUSH2 0x340 CALLDATASIZE PUSH1 0x4 PUSH2 0x2ADA JUMP JUMPDEST PUSH2 0x1939 JUMP JUMPDEST PUSH2 0x1EF PUSH2 0x353 CALLDATASIZE PUSH1 0x4 PUSH2 0x2B88 JUMP JUMPDEST PUSH2 0x1A45 JUMP JUMPDEST PUSH2 0x24F PUSH2 0x366 CALLDATASIZE PUSH1 0x4 PUSH2 0x2721 JUMP JUMPDEST PUSH2 0x1BFD JUMP JUMPDEST PUSH2 0x1EF PUSH2 0x379 CALLDATASIZE PUSH1 0x4 PUSH2 0x2BDD JUMP JUMPDEST PUSH2 0x1C53 JUMP JUMPDEST PUSH2 0x19C PUSH1 0x2 SLOAD DUP2 JUMP JUMPDEST PUSH2 0x1EF PUSH2 0x395 CALLDATASIZE PUSH1 0x4 PUSH2 0x2BDD JUMP JUMPDEST PUSH2 0x1F53 JUMP JUMPDEST PUSH2 0x19C PUSH1 0x4 SLOAD DUP2 JUMP JUMPDEST PUSH2 0x1EF PUSH2 0x3B1 CALLDATASIZE PUSH1 0x4 PUSH2 0x29B0 JUMP JUMPDEST DUP1 MLOAD PUSH1 0x20 DUP2 DUP4 ADD DUP2 ADD DUP1 MLOAD PUSH1 0x7 DUP3 MSTORE SWAP3 DUP3 ADD SWAP2 SWAP1 SWAP4 ADD KECCAK256 SWAP2 MSTORE SLOAD PUSH1 0xFF AND DUP2 JUMP JUMPDEST PUSH2 0x1EF PUSH2 0x3DF CALLDATASIZE PUSH1 0x4 PUSH2 0x2C42 JUMP JUMPDEST PUSH2 0x21DA JUMP JUMPDEST PUSH2 0x24F PUSH2 0x3F2 CALLDATASIZE PUSH1 0x4 PUSH2 0x2721 JUMP JUMPDEST PUSH2 0x2382 JUMP JUMPDEST PUSH2 0x1EF PUSH2 0x405 CALLDATASIZE PUSH1 0x4 PUSH2 0x2977 JUMP JUMPDEST PUSH2 0x23D9 JUMP JUMPDEST PUSH1 0x1 PUSH1 0x1 PUSH1 0xA0 SHL SUB DUP1 DUP3 AND PUSH1 0x0 SWAP1 DUP2 MSTORE PUSH1 0x6 PUSH1 0x20 MSTORE PUSH1 0x40 DUP2 KECCAK256 DUP1 SLOAD PUSH1 0x1 DUP3 ADD SLOAD PUSH1 0x3 DUP4 ADD SLOAD PUSH1 0x9 DUP5 ADD SLOAD PUSH1 0x2 SWAP1 SWAP5 ADD DUP1 SLOAD SWAP6 SWAP7 DUP8 SWAP7 PUSH1 0x60 SWAP7 DUP9 SWAP7 DUP8 SWAP7 SWAP1 SWAP6 SWAP4 AND SWAP4 SWAP3 SWAP2 PUSH1 0xFF SWAP1 SWAP2 AND SWAP1 DUP4 SWAP1 PUSH2 0x45E SWAP1 PUSH2 0x2CAE JUMP JUMPDEST DUP1 PUSH1 0x1F ADD PUSH1 0x20 DUP1 SWAP2 DIV MUL PUSH1 0x20 ADD PUSH1 0x40 MLOAD SWAP1 DUP2 ADD PUSH1 0x40 MSTORE DUP1 SWAP3 SWAP2 SWAP1 DUP2 DUP2 MSTORE PUSH1 0x20 ADD DUP3 DUP1 SLOAD PUSH2 0x48A SWAP1 PUSH2 0x2CAE JUMP JUMPDEST DUP1 ISZERO PUSH2 0x4D7 JUMPI DUP1 PUSH1 0x1F LT PUSH2 0x4AC JUMPI PUSH2 0x100 DUP1 DUP4 SLOAD DIV MUL DUP4 MSTORE SWAP2 PUSH1 0x20 ADD SWAP2 PUSH2 0x4D7 JUMP JUMPDEST DUP3 ADD SWAP2 SWAP1 PUSH1 0x0 MSTORE PUSH1 0x20 PUSH1 0x0 KECCAK256 SWAP1 JUMPDEST DUP2 SLOAD DUP2 MSTORE SWAP1 PUSH1 0x1 ADD SWAP1 PUSH1 0x20 ADD DUP1 DUP4 GT PUSH2 0x4BA JUMPI DUP3 SWAP1 SUB PUSH1 0x1F AND DUP3 ADD SWAP2 JUMPDEST POP POP POP POP POP SWAP3 POP SWAP5 POP SWAP5 POP SWAP5 POP SWAP5 POP SWAP5 POP SWAP2 SWAP4 SWAP6 SWAP1 SWAP3 SWAP5 POP JUMP JUMPDEST PUSH1 0x0 DUP1 SLOAD PUSH1 0xFF AND ISZERO PUSH2 0x6F0 JUMPI PUSH1 0x1 PUSH1 0x1 PUSH1 0xA0 SHL SUB DUP5 AND PUSH1 0x0 SWAP1 DUP2 MSTORE PUSH1 0x5 PUSH1 0x20 MSTORE PUSH1 0x40 SWAP1 DUP2 SWAP1 KECCAK256 SWAP1 MLOAD PUSH4 0x76DF7BFF PUSH1 0xE0 SHL DUP2 MSTORE PUSH20 0x0 SWAP2 PUSH4 0x76DF7BFF SWAP2 PUSH2 0x551 SWAP2 PUSH1 0x9 ADD SWAP1 DUP7 SWAP1 PUSH1 0x4 ADD PUSH2 0x2CE8 JUMP JUMPDEST PUSH1 0x20 PUSH1 0x40 MLOAD DUP1 DUP4 SUB DUP2 DUP7 GAS DELEGATECALL ISZERO DUP1 ISZERO PUSH2 0x56E JUMPI RETURNDATASIZE PUSH1 0x0 DUP1 RETURNDATACOPY RETURNDATASIZE PUSH1 0x0 REVERT JUMPDEST POP POP POP POP PUSH1 0x40 MLOAD RETURNDATASIZE PUSH1 0x1F NOT PUSH1 0x1F DUP3 ADD AND DUP3 ADD DUP1 PUSH1 0x40 MSTORE POP DUP2 ADD SWAP1 PUSH2 0x592 SWAP2 SWAP1 PUSH2 0x2CFF JUMP JUMPDEST ISZERO PUSH2 0x6F0 JUMPI PUSH1 0x1 PUSH1 0x1 PUSH1 0xA0 SHL SUB DUP3 AND PUSH1 0x0 SWAP1 DUP2 MSTORE PUSH1 0x5 PUSH1 0x20 MSTORE PUSH1 0x40 SWAP1 DUP2 SWAP1 KECCAK256 SWAP1 MLOAD PUSH4 0xF00C56F PUSH1 0xE4 SHL DUP2 MSTORE PUSH20 0x0 SWAP2 PUSH4 0xF00C56F0 SWAP2 PUSH2 0x5EB SWAP2 PUSH1 0x6 ADD SWAP1 DUP8 SWAP1 PUSH1 0x4 ADD PUSH2 0x2CE8 JUMP JUMPDEST PUSH1 0x0 PUSH1 0x40 MLOAD DUP1 DUP4 SUB DUP2 DUP7 DUP1 EXTCODESIZE ISZERO DUP1 ISZERO PUSH2 0x603 JUMPI PUSH1 0x0 DUP1 REVERT JUMPDEST POP GAS DELEGATECALL ISZERO DUP1 ISZERO PUSH2 0x617 JUMPI RETURNDATASIZE PUSH1 0x0 DUP1 RETURNDATACOPY RETURNDATASIZE PUSH1 0x0 REVERT JUMPDEST POP POP POP PUSH1 0x1 PUSH1 0x1 PUSH1 0xA0 SHL SUB DUP5 AND PUSH1 0x0 SWAP1 DUP2 MSTORE PUSH1 0x6 PUSH1 0x20 DUP2 SWAP1 MSTORE PUSH1 0x40 SWAP2 DUP3 SWAP1 KECCAK256 SWAP2 MLOAD PUSH4 0xF00C56F PUSH1 0xE4 SHL DUP2 MSTORE PUSH20 0x0 SWAP4 POP PUSH4 0xF00C56F0 SWAP3 PUSH2 0x66F SWAP3 ADD SWAP1 DUP7 SWAP1 PUSH1 0x4 ADD PUSH2 0x2CE8 JUMP JUMPDEST PUSH1 0x0 PUSH1 0x40 MLOAD DUP1 DUP4 SUB DUP2 DUP7 DUP1 EXTCODESIZE ISZERO DUP1 ISZERO PUSH2 0x687 JUMPI PUSH1 0x0 DUP1 REVERT JUMPDEST POP GAS DELEGATECALL ISZERO DUP1 ISZERO PUSH2 0x69B JUMPI RETURNDATASIZE PUSH1 0x0 DUP1 RETURNDATACOPY RETURNDATASIZE PUSH1 0x0 REVERT JUMPDEST POP POP PUSH1 0x40 DUP1 MLOAD PUSH1 0x1 PUSH1 0x1 PUSH1 0xA0 SHL SUB DUP1 DUP9 AND DUP3 MSTORE DUP1 DUP10 AND PUSH1 0x20 DUP4 ADD MSTORE DUP7 AND SWAP2 DUP2 ADD SWAP2 SWAP1 SWAP2 MSTORE PUSH31 0x3D084BCD6D65C03B3ADA258DA4839C348614EA44A675B9D25C87D6D04FF8C2 SWAP3 POP PUSH1 0x60 ADD SWAP1 POP JUMPDEST PUSH1 0x40 MLOAD DUP1 SWAP2 SUB SWAP1 LOG1 JUMPDEST POP PUSH1 0x0 SLOAD PUSH1 0xFF AND SWAP4 SWAP3 POP POP POP JUMP JUMPDEST PUSH1 0x1 PUSH1 0x1 PUSH1 0xA0 SHL SUB DUP2 AND PUSH1 0x0 SWAP1 DUP2 MSTORE PUSH1 0x5 PUSH1 0x20 MSTORE PUSH1 0x40 SWAP1 DUP2 SWAP1 KECCAK256 SWAP1 MLOAD PUSH4 0x535FF665 PUSH1 0xE0 SHL DUP2 MSTORE PUSH1 0x6 SWAP1 SWAP2 ADD PUSH1 0x4 DUP3 ADD MSTORE PUSH1 0x60 SWAP1 PUSH20 0x0 SWAP1 PUSH4 0x535FF665 SWAP1 PUSH1 0x24 ADD JUMPDEST PUSH1 0x0 PUSH1 0x40 MLOAD DUP1 DUP4 SUB DUP2 DUP7 GAS DELEGATECALL ISZERO DUP1 ISZERO PUSH2 0x76E JUMPI RETURNDATASIZE PUSH1 0x0 DUP1 RETURNDATACOPY RETURNDATASIZE PUSH1 0x0 REVERT JUMPDEST POP POP POP POP PUSH1 0x40 MLOAD RETURNDATASIZE PUSH1 0x0 DUP3 RETURNDATACOPY PUSH1 0x1F RETURNDATASIZE SWAP1 DUP2 ADD PUSH1 0x1F NOT AND DUP3 ADD PUSH1 0x40 MSTORE PUSH2 0x796 SWAP2 SWAP1 DUP2 ADD SWAP1 PUSH2 0x2D21 JUMP JUMPDEST SWAP3 SWAP2 POP POP JUMP JUMPDEST PUSH1 0x0 DUP1 SLOAD PUSH1 0xFF AND ISZERO PUSH2 0x8EA JUMPI PUSH1 0x1 PUSH1 0x1 PUSH1 0xA0 SHL SUB DUP4 AND PUSH1 0x0 SWAP1 DUP2 MSTORE PUSH1 0x5 PUSH1 0x20 MSTORE PUSH1 0x40 SWAP1 DUP2 SWAP1 KECCAK256 SWAP1 MLOAD PUSH4 0xF00C56F PUSH1 0xE4 SHL DUP2 MSTORE PUSH20 0x0 SWAP2 PUSH4 0xF00C56F0 SWAP2 PUSH2 0x7FC SWAP2 PUSH1 0x9 ADD SWAP1 DUP7 SWAP1 PUSH1 0x4 ADD PUSH2 0x2CE8 JUMP JUMPDEST PUSH1 0x0 PUSH1 0x40 MLOAD DUP1 DUP4 SUB DUP2 DUP7 DUP1 EXTCODESIZE ISZERO DUP1 ISZERO PUSH2 0x814 JUMPI PUSH1 0x0 DUP1 REVERT JUMPDEST POP GAS DELEGATECALL ISZERO DUP1 ISZERO PUSH2 0x828 JUMPI RETURNDATASIZE PUSH1 0x0 DUP1 RETURNDATACOPY RETURNDATASIZE PUSH1 0x0 REVERT JUMPDEST POP POP POP POP PUSH1 0x1 PUSH1 0x1 PUSH1 0xA0 SHL SUB DUP3 AND PUSH1 0x0 SWAP1 DUP2 MSTORE PUSH1 0x5 PUSH1 0x20 MSTORE PUSH1 0x40 SWAP1 DUP2 SWAP1 KECCAK256 SWAP1 MLOAD PUSH4 0xF00C56F PUSH1 0xE4 SHL DUP2 MSTORE PUSH20 0x0 SWAP2 PUSH4 0xF00C56F0 SWAP2 PUSH2 0x880 SWAP2 PUSH1 0x9 ADD SWAP1 DUP8 SWAP1 PUSH1 0x4 ADD PUSH2 0x2CE8 JUMP JUMPDEST PUSH1 0x0 PUSH1 0x40 MLOAD DUP1 DUP4 SUB DUP2 DUP7 DUP1 EXTCODESIZE ISZERO DUP1 ISZERO PUSH2 0x898 JUMPI PUSH1 0x0 DUP1 REVERT JUMPDEST POP GAS DELEGATECALL ISZERO DUP1 ISZERO PUSH2 0x8AC JUMPI RETURNDATASIZE PUSH1 0x0 DUP1 RETURNDATACOPY RETURNDATASIZE PUSH1 0x0 REVERT JUMPDEST POP POP POP POP PUSH32 0xC65BFCFC9323F4E0510884C021B5A6DBB865FF94299EB9A8F89B36412A7D998 DUP4 DUP4 PUSH1 0x40 MLOAD PUSH2 0x8E1 SWAP3 SWAP2 SWAP1 PUSH2 0x2DD3 JUMP JUMPDEST PUSH1 0x40 MLOAD DUP1 SWAP2 SUB SWAP1 LOG1 JUMPDEST POP PUSH1 0x0 SLOAD PUSH1 0xFF AND SWAP3 SWAP2 POP POP JUMP JUMPDEST PUSH1 0x1 PUSH1 0x1 PUSH1 0xA0 SHL SUB DUP3 AND PUSH1 0x0 SWAP1 DUP2 MSTORE PUSH1 0x5 PUSH1 0x20 MSTORE PUSH1 0x40 DUP2 KECCAK256 PUSH1 0xC ADD SLOAD DUP4 SWAP1 PUSH1 0xFF AND PUSH2 0x93D JUMPI PUSH1 0x40 MLOAD PUSH3 0x461BCD PUSH1 0xE5 SHL DUP2 MSTORE PUSH1 0x4 ADD PUSH2 0x934 SWAP1 PUSH2 0x2DED JUMP JUMPDEST PUSH1 0x40 MLOAD DUP1 SWAP2 SUB SWAP1 REVERT JUMPDEST PUSH1 0x1 PUSH1 0x1 PUSH1 0xA0 SHL SUB DUP1 DUP5 AND PUSH1 0x0 SWAP1 DUP2 MSTORE PUSH1 0x6 PUSH1 0x20 MSTORE PUSH1 0x40 SWAP1 KECCAK256 PUSH1 0x1 ADD SLOAD DUP6 SWAP2 DUP6 SWAP2 DUP2 DUP5 AND SWAP2 AND EQ PUSH2 0x980 JUMPI PUSH1 0x40 MLOAD PUSH3 0x461BCD PUSH1 0xE5 SHL DUP2 MSTORE PUSH1 0x4 ADD PUSH2 0x934 SWAP1 PUSH2 0x2E1B JUMP JUMPDEST PUSH1 0x0 SLOAD PUSH1 0xFF AND ISZERO PUSH2 0xC8B JUMPI PUSH1 0x0 JUMPDEST PUSH1 0x1 PUSH1 0x1 PUSH1 0xA0 SHL SUB DUP8 AND PUSH1 0x0 SWAP1 DUP2 MSTORE PUSH1 0x5 PUSH1 0x20 MSTORE PUSH1 0x40 SWAP1 DUP2 SWAP1 KECCAK256 SWAP1 MLOAD PUSH4 0xB7E4A69 PUSH1 0xE1 SHL DUP2 MSTORE PUSH1 0x9 SWAP1 SWAP2 ADD PUSH1 0x4 DUP3 ADD MSTORE PUSH20 0x0 SWAP1 PUSH4 0x16FC94D2 SWAP1 PUSH1 0x24 ADD PUSH1 0x20 PUSH1 0x40 MLOAD DUP1 DUP4 SUB DUP2 DUP7 GAS DELEGATECALL ISZERO DUP1 ISZERO PUSH2 0x9FA JUMPI RETURNDATASIZE PUSH1 0x0 DUP1 RETURNDATACOPY RETURNDATASIZE PUSH1 0x0 REVERT JUMPDEST POP POP POP POP PUSH1 0x40 MLOAD RETURNDATASIZE PUSH1 0x1F NOT PUSH1 0x1F DUP3 ADD AND DUP3 ADD DUP1 PUSH1 0x40 MSTORE POP DUP2 ADD SWAP1 PUSH2 0xA1E SWAP2 SWAP1 PUSH2 0x2E52 JUMP JUMPDEST DUP2 LT ISZERO PUSH2 0xC50 JUMPI PUSH1 0x1 PUSH1 0x1 PUSH1 0xA0 SHL SUB DUP8 AND PUSH1 0x0 SWAP1 DUP2 MSTORE PUSH1 0x5 PUSH1 0x20 DUP2 SWAP1 MSTORE PUSH1 0x40 DUP1 DUP4 KECCAK256 SWAP1 MLOAD PUSH4 0x39AB02EB PUSH1 0xE2 SHL DUP2 MSTORE PUSH1 0x9 SWAP1 SWAP2 ADD PUSH1 0x4 DUP3 ADD MSTORE PUSH1 0x24 DUP2 ADD DUP5 SWAP1 MSTORE SWAP1 SWAP2 SWAP1 PUSH20 0x0 SWAP1 PUSH4 0xE6AC0BAC SWAP1 PUSH1 0x44 ADD PUSH1 0x20 PUSH1 0x40 MLOAD DUP1 DUP4 SUB DUP2 DUP7 GAS DELEGATECALL ISZERO DUP1 ISZERO PUSH2 0xA9C JUMPI RETURNDATASIZE PUSH1 0x0 DUP1 RETURNDATACOPY RETURNDATASIZE PUSH1 0x0 REVERT JUMPDEST POP POP POP POP PUSH1 0x40 MLOAD RETURNDATASIZE PUSH1 0x1F NOT PUSH1 0x1F DUP3 ADD AND DUP3 ADD DUP1 PUSH1 0x40 MSTORE POP DUP2 ADD SWAP1 PUSH2 0xAC0 SWAP2 SWAP1 PUSH2 0x2E6B JUMP JUMPDEST PUSH1 0x1 PUSH1 0x1 PUSH1 0xA0 SHL SUB AND DUP2 MSTORE PUSH1 0x20 DUP2 ADD SWAP2 SWAP1 SWAP2 MSTORE PUSH1 0x40 SWAP1 DUP2 ADD PUSH1 0x0 KECCAK256 SWAP1 MLOAD PUSH4 0x1C058A9 PUSH1 0xE2 SHL DUP2 MSTORE PUSH20 0x0 SWAP2 PUSH4 0x70162A4 SWAP2 PUSH2 0xB15 SWAP2 PUSH1 0x6 ADD SWAP1 DUP11 SWAP1 PUSH1 0x4 ADD PUSH2 0x2CE8 JUMP JUMPDEST PUSH1 0x0 PUSH1 0x40 MLOAD DUP1 DUP4 SUB DUP2 DUP7 DUP1 EXTCODESIZE ISZERO DUP1 ISZERO PUSH2 0xB2D JUMPI PUSH1 0x0 DUP1 REVERT JUMPDEST POP GAS DELEGATECALL ISZERO DUP1 ISZERO PUSH2 0xB41 JUMPI RETURNDATASIZE PUSH1 0x0 DUP1 RETURNDATACOPY RETURNDATASIZE PUSH1 0x0 REVERT JUMPDEST POP POP POP POP PUSH1 0x1 PUSH1 0x1 PUSH1 0xA0 SHL SUB DUP7 DUP2 AND PUSH1 0x0 SWAP1 DUP2 MSTORE PUSH1 0x6 PUSH1 0x20 DUP2 DUP2 MSTORE PUSH1 0x40 DUP1 DUP5 KECCAK256 SWAP5 DUP13 AND DUP5 MSTORE PUSH1 0x5 SWAP1 SWAP2 MSTORE SWAP2 DUP3 SWAP1 KECCAK256 SWAP2 MLOAD PUSH4 0x39AB02EB PUSH1 0xE2 SHL DUP2 MSTORE PUSH1 0x9 SWAP1 SWAP3 ADD PUSH1 0x4 DUP4 ADD MSTORE PUSH1 0x24 DUP3 ADD DUP5 SWAP1 MSTORE PUSH20 0x0 SWAP3 PUSH4 0x70162A4 SWAP3 SWAP2 ADD SWAP1 DUP4 SWAP1 PUSH4 0xE6AC0BAC SWAP1 PUSH1 0x44 ADD PUSH1 0x20 PUSH1 0x40 MLOAD DUP1 DUP4 SUB DUP2 DUP7 GAS DELEGATECALL ISZERO DUP1 ISZERO PUSH2 0xBD3 JUMPI RETURNDATASIZE PUSH1 0x0 DUP1 RETURNDATACOPY RETURNDATASIZE PUSH1 0x0 REVERT JUMPDEST POP POP POP POP PUSH1 0x40 MLOAD RETURNDATASIZE PUSH1 0x1F NOT PUSH1 0x1F DUP3 ADD AND DUP3 ADD DUP1 PUSH1 0x40 MSTORE POP DUP2 ADD SWAP1 PUSH2 0xBF7 SWAP2 SWAP1 PUSH2 0x2E6B JUMP JUMPDEST PUSH1 0x40 MLOAD DUP4 PUSH4 0xFFFFFFFF AND PUSH1 0xE0 SHL DUP2 MSTORE PUSH1 0x4 ADD PUSH2 0xC14 SWAP3 SWAP2 SWAP1 PUSH2 0x2CE8 JUMP JUMPDEST PUSH1 0x0 PUSH1 0x40 MLOAD DUP1 DUP4 SUB DUP2 DUP7 DUP1 EXTCODESIZE ISZERO DUP1 ISZERO PUSH2 0xC2C JUMPI PUSH1 0x0 DUP1 REVERT JUMPDEST POP GAS DELEGATECALL ISZERO DUP1 ISZERO PUSH2 0xC40 JUMPI RETURNDATASIZE PUSH1 0x0 DUP1 RETURNDATACOPY RETURNDATASIZE PUSH1 0x0 REVERT JUMPDEST POP POP PUSH1 0x1 SWAP1 SWAP3 ADD SWAP2 POP PUSH2 0x98E SWAP1 POP JUMP JUMPDEST POP PUSH32 0x511A33C21CA1DFD7C3757F4CC04F0DC8E2E26FEDF5E74BE30E61BB71A920E82A DUP6 DUP8 PUSH1 0x40 MLOAD PUSH2 0xC82 SWAP3 SWAP2 SWAP1 PUSH2 0x2DD3 JUMP JUMPDEST PUSH1 0x40 MLOAD DUP1 SWAP2 SUB SWAP1 LOG1 JUMPDEST POP POP PUSH1 0x0 SLOAD PUSH1 0xFF AND SWAP5 SWAP4 POP POP POP POP JUMP JUMPDEST PUSH1 0x1 PUSH1 0x1 PUSH1 0xA0 SHL SUB DUP3 AND PUSH1 0x0 SWAP1 DUP2 MSTORE PUSH1 0x5 PUSH1 0x20 MSTORE PUSH1 0x40 DUP2 KECCAK256 PUSH1 0xC ADD SLOAD DUP4 SWAP1 PUSH1 0xFF AND PUSH2 0xCD8 JUMPI PUSH1 0x40 MLOAD PUSH3 0x461BCD PUSH1 0xE5 SHL DUP2 MSTORE PUSH1 0x4 ADD PUSH2 0x934 SWAP1 PUSH2 0x2DED JUMP JUMPDEST PUSH1 0x1 PUSH1 0x1 PUSH1 0xA0 SHL SUB DUP4 AND PUSH1 0x0 SWAP1 DUP2 MSTORE PUSH1 0x5 PUSH1 0x20 MSTORE PUSH1 0x40 SWAP1 KECCAK256 PUSH1 0xC ADD SLOAD DUP4 SWAP1 PUSH1 0xFF AND PUSH2 0xD15 JUMPI PUSH1 0x40 MLOAD PUSH3 0x461BCD PUSH1 0xE5 SHL DUP2 MSTORE PUSH1 0x4 ADD PUSH2 0x934 SWAP1 PUSH2 0x2DED JUMP JUMPDEST PUSH1 0x0 SLOAD PUSH1 0xFF AND ISZERO PUSH2 0xE62 JUMPI PUSH1 0x1 PUSH1 0x1 PUSH1 0xA0 SHL SUB DUP6 AND PUSH1 0x0 SWAP1 DUP2 MSTORE PUSH1 0x5 PUSH1 0x20 MSTORE PUSH1 0x40 SWAP1 DUP2 SWAP1 KECCAK256 SWAP1 MLOAD PUSH4 0x1C058A9 PUSH1 0xE2 SHL DUP2 MSTORE PUSH20 0x0 SWAP2 PUSH4 0x70162A4 SWAP2 PUSH2 0xD74 SWAP2 PUSH1 0x9 ADD SWAP1 DUP9 SWAP1 PUSH1 0x4 ADD PUSH2 0x2CE8 JUMP JUMPDEST PUSH1 0x0 PUSH1 0x40 MLOAD DUP1 DUP4 SUB DUP2 DUP7 DUP1 EXTCODESIZE ISZERO DUP1 ISZERO PUSH2 0xD8C JUMPI PUSH1 0x0 DUP1 REVERT JUMPDEST POP GAS DELEGATECALL ISZERO DUP1 ISZERO PUSH2 0xDA0 JUMPI RETURNDATASIZE PUSH1 0x0 DUP1 RETURNDATACOPY RETURNDATASIZE PUSH1 0x0 REVERT JUMPDEST POP POP POP POP PUSH1 0x1 PUSH1 0x1 PUSH1 0xA0 SHL SUB DUP5 AND PUSH1 0x0 SWAP1 DUP2 MSTORE PUSH1 0x5 PUSH1 0x20 MSTORE PUSH1 0x40 SWAP1 DUP2 SWAP1 KECCAK256 SWAP1 MLOAD PUSH4 0x1C058A9 PUSH1 0xE2 SHL DUP2 MSTORE PUSH20 0x0 SWAP2 PUSH4 0x70162A4 SWAP2 PUSH2 0xDF8 SWAP2 PUSH1 0x9 ADD SWAP1 DUP10 SWAP1 PUSH1 0x4 ADD PUSH2 0x2CE8 JUMP JUMPDEST PUSH1 0x0 PUSH1 0x40 MLOAD DUP1 DUP4 SUB DUP2 DUP7 DUP1 EXTCODESIZE ISZERO DUP1 ISZERO PUSH2 0xE10 JUMPI PUSH1 0x0 DUP1 REVERT JUMPDEST POP GAS DELEGATECALL ISZERO DUP1 ISZERO PUSH2 0xE24 JUMPI RETURNDATASIZE PUSH1 0x0 DUP1 RETURNDATACOPY RETURNDATASIZE PUSH1 0x0 REVERT JUMPDEST POP POP POP POP PUSH32 0x991DA500DC9F910CE2A64C3D13783D3F75D912D123AE2D8334AD0A817C91F23B DUP6 DUP6 PUSH1 0x40 MLOAD PUSH2 0xE59 SWAP3 SWAP2 SWAP1 PUSH2 0x2DD3 JUMP JUMPDEST PUSH1 0x40 MLOAD DUP1 SWAP2 SUB SWAP1 LOG1 JUMPDEST POP POP PUSH1 0x0 SLOAD PUSH1 0xFF AND SWAP4 SWAP3 POP POP POP JUMP JUMPDEST PUSH1 0x1 PUSH1 0x1 PUSH1 0xA0 SHL SUB DUP4 AND PUSH1 0x0 SWAP1 DUP2 MSTORE PUSH1 0x5 PUSH1 0x20 MSTORE PUSH1 0x40 DUP2 KECCAK256 PUSH1 0xC ADD SLOAD DUP5 SWAP1 PUSH1 0xFF AND PUSH2 0xEAE JUMPI PUSH1 0x40 MLOAD PUSH3 0x461BCD PUSH1 0xE5 SHL DUP2 MSTORE PUSH1 0x4 ADD PUSH2 0x934 SWAP1 PUSH2 0x2DED JUMP JUMPDEST PUSH1 0x1 PUSH1 0x1 PUSH1 0xA0 SHL SUB DUP1 DUP6 AND PUSH1 0x0 SWAP1 DUP2 MSTORE PUSH1 0x6 PUSH1 0x20 MSTORE PUSH1 0x40 SWAP1 KECCAK256 PUSH1 0x1 ADD SLOAD DUP7 SWAP2 DUP7 SWAP2 DUP2 DUP5 AND SWAP2 AND EQ PUSH2 0xEF1 JUMPI PUSH1 0x40 MLOAD PUSH3 0x461BCD PUSH1 0xE5 SHL DUP2 MSTORE PUSH1 0x4 ADD PUSH2 0x934 SWAP1 PUSH2 0x2E1B JUMP JUMPDEST PUSH1 0x0 SLOAD PUSH1 0xFF AND ISZERO PUSH2 0x10EC JUMPI PUSH1 0x1 PUSH1 0x1 PUSH1 0xA0 SHL SUB DUP8 AND PUSH1 0x0 SWAP1 DUP2 MSTORE PUSH1 0x5 PUSH1 0x20 MSTORE PUSH1 0x40 SWAP1 DUP2 SWAP1 KECCAK256 SWAP1 MLOAD PUSH4 0x76DF7BFF PUSH1 0xE0 SHL DUP2 MSTORE PUSH20 0x0 SWAP2 PUSH4 0x76DF7BFF SWAP2 PUSH2 0xF50 SWAP2 PUSH1 0x9 ADD SWAP1 DUP10 SWAP1 PUSH1 0x4 ADD PUSH2 0x2CE8 JUMP JUMPDEST PUSH1 0x20 PUSH1 0x40 MLOAD DUP1 DUP4 SUB DUP2 DUP7 GAS DELEGATECALL ISZERO DUP1 ISZERO PUSH2 0xF6D JUMPI RETURNDATASIZE PUSH1 0x0 DUP1 RETURNDATACOPY RETURNDATASIZE PUSH1 0x0 REVERT JUMPDEST POP POP POP POP PUSH1 0x40 MLOAD RETURNDATASIZE PUSH1 0x1F NOT PUSH1 0x1F DUP3 ADD AND DUP3 ADD DUP1 PUSH1 0x40 MSTORE POP DUP2 ADD SWAP1 PUSH2 0xF91 SWAP2 SWAP1 PUSH2 0x2CFF JUMP JUMPDEST ISZERO PUSH2 0x10A0 JUMPI PUSH1 0x1 PUSH1 0x1 PUSH1 0xA0 SHL SUB DUP7 AND PUSH1 0x0 SWAP1 DUP2 MSTORE PUSH1 0x6 PUSH1 0x20 DUP2 SWAP1 MSTORE PUSH1 0x40 SWAP2 DUP3 SWAP1 KECCAK256 SWAP2 MLOAD PUSH4 0x1C058A9 PUSH1 0xE2 SHL DUP2 MSTORE PUSH20 0x0 SWAP3 PUSH4 0x70162A4 SWAP3 PUSH2 0xFEB SWAP3 SWAP2 ADD SWAP1 DUP10 SWAP1 PUSH1 0x4 ADD PUSH2 0x2CE8 JUMP JUMPDEST PUSH1 0x0 PUSH1 0x40 MLOAD DUP1 DUP4 SUB DUP2 DUP7 DUP1 EXTCODESIZE ISZERO DUP1 ISZERO PUSH2 0x1003 JUMPI PUSH1 0x0 DUP1 REVERT JUMPDEST POP GAS DELEGATECALL ISZERO DUP1 ISZERO PUSH2 0x1017 JUMPI RETURNDATASIZE PUSH1 0x0 DUP1 RETURNDATACOPY RETURNDATASIZE PUSH1 0x0 REVERT JUMPDEST POP POP POP POP PUSH1 0x1 PUSH1 0x1 PUSH1 0xA0 SHL SUB DUP6 AND PUSH1 0x0 SWAP1 DUP2 MSTORE PUSH1 0x5 PUSH1 0x20 MSTORE PUSH1 0x40 SWAP1 DUP2 SWAP1 KECCAK256 SWAP1 MLOAD PUSH4 0x1C058A9 PUSH1 0xE2 SHL DUP2 MSTORE PUSH20 0x0 SWAP2 PUSH4 0x70162A4 SWAP2 PUSH2 0x106F SWAP2 PUSH1 0x6 ADD SWAP1 DUP11 SWAP1 PUSH1 0x4 ADD PUSH2 0x2CE8 JUMP JUMPDEST PUSH1 0x0 PUSH1 0x40 MLOAD DUP1 DUP4 SUB DUP2 DUP7 DUP1 EXTCODESIZE ISZERO DUP1 ISZERO PUSH2 0x1087 JUMPI PUSH1 0x0 DUP1 REVERT JUMPDEST POP GAS DELEGATECALL ISZERO DUP1 ISZERO PUSH2 0x109B JUMPI RETURNDATASIZE PUSH1 0x0 DUP1 RETURNDATACOPY RETURNDATASIZE PUSH1 0x0 REVERT JUMPDEST POP POP POP POP JUMPDEST PUSH1 0x40 DUP1 MLOAD PUSH1 0x1 PUSH1 0x1 PUSH1 0xA0 SHL SUB DUP9 DUP2 AND DUP3 MSTORE DUP10 DUP2 AND PUSH1 0x20 DUP4 ADD MSTORE DUP8 AND DUP2 DUP4 ADD MSTORE SWAP1 MLOAD PUSH32 0x14DD0B4B05DF5E2D084D0ED825D4149376D62CBF6632AA97CFB20891BACEE74C SWAP2 DUP2 SWAP1 SUB PUSH1 0x60 ADD SWAP1 LOG1 JUMPDEST POP POP PUSH1 0x0 SLOAD PUSH1 0xFF AND SWAP6 SWAP5 POP POP POP POP POP JUMP JUMPDEST PUSH1 0x1 PUSH1 0x1 PUSH1 0xA0 SHL SUB DUP3 AND PUSH1 0x0 SWAP1 DUP2 MSTORE PUSH1 0x5 PUSH1 0x20 MSTORE PUSH1 0x40 DUP2 KECCAK256 PUSH1 0xC ADD SLOAD DUP4 SWAP1 PUSH1 0xFF AND PUSH2 0x113A JUMPI PUSH1 0x40 MLOAD PUSH3 0x461BCD PUSH1 0xE5 SHL DUP2 MSTORE PUSH1 0x4 ADD PUSH2 0x934 SWAP1 PUSH2 0x2DED JUMP JUMPDEST PUSH1 0x1 PUSH1 0x1 PUSH1 0xA0 SHL SUB DUP1 DUP5 AND PUSH1 0x0 SWAP1 DUP2 MSTORE PUSH1 0x6 PUSH1 0x20 MSTORE PUSH1 0x40 SWAP1 KECCAK256 PUSH1 0x1 ADD SLOAD DUP6 SWAP2 DUP6 SWAP2 DUP2 DUP5 AND SWAP2 AND EQ PUSH2 0x117D JUMPI PUSH1 0x40 MLOAD PUSH3 0x461BCD PUSH1 0xE5 SHL DUP2 MSTORE PUSH1 0x4 ADD PUSH2 0x934 SWAP1 PUSH2 0x2E1B JUMP JUMPDEST PUSH1 0x0 SLOAD PUSH1 0xFF AND ISZERO PUSH2 0xC8B JUMPI PUSH1 0x0 JUMPDEST PUSH1 0x1 PUSH1 0x1 PUSH1 0xA0 SHL SUB DUP7 AND PUSH1 0x0 SWAP1 DUP2 MSTORE PUSH1 0x6 PUSH1 0x20 DUP2 SWAP1 MSTORE PUSH1 0x40 SWAP2 DUP3 SWAP1 KECCAK256 SWAP2 MLOAD PUSH4 0xB7E4A69 PUSH1 0xE1 SHL DUP2 MSTORE SWAP2 ADD PUSH1 0x4 DUP3 ADD MSTORE PUSH20 0x0 SWAP1 PUSH4 0x16FC94D2 SWAP1 PUSH1 0x24 ADD PUSH1 0x20 PUSH1 0x40 MLOAD DUP1 DUP4 SUB DUP2 DUP7 GAS DELEGATECALL ISZERO DUP1 ISZERO PUSH2 0x11F6 JUMPI RETURNDATASIZE PUSH1 0x0 DUP1 RETURNDATACOPY RETURNDATASIZE PUSH1 0x0 REVERT JUMPDEST POP POP POP POP PUSH1 0x40 MLOAD RETURNDATASIZE PUSH1 0x1F NOT PUSH1 0x1F DUP3 ADD AND DUP3 ADD DUP1 PUSH1 0x40 MSTORE POP DUP2 ADD SWAP1 PUSH2 0x121A SWAP2 SWAP1 PUSH2 0x2E52 JUMP JUMPDEST DUP2 LT ISZERO PUSH2 0x134B JUMPI PUSH1 0x1 PUSH1 0x1 PUSH1 0xA0 SHL SUB DUP7 AND PUSH1 0x0 SWAP1 DUP2 MSTORE PUSH1 0x6 PUSH1 0x20 DUP2 SWAP1 MSTORE PUSH1 0x40 DUP1 DUP4 KECCAK256 SWAP1 MLOAD PUSH4 0x39AB02EB PUSH1 0xE2 SHL DUP2 MSTORE SWAP2 ADD PUSH1 0x4 DUP3 ADD MSTORE PUSH1 0x24 DUP2 ADD DUP4 SWAP1 MSTORE PUSH1 0x5 SWAP2 SWAP1 PUSH20 0x0 SWAP1 PUSH4 0xE6AC0BAC SWAP1 PUSH1 0x44 ADD PUSH1 0x20 PUSH1 0x40 MLOAD DUP1 DUP4 SUB DUP2 DUP7 GAS DELEGATECALL ISZERO DUP1 ISZERO PUSH2 0x1296 JUMPI RETURNDATASIZE PUSH1 0x0 DUP1 RETURNDATACOPY RETURNDATASIZE PUSH1 0x0 REVERT JUMPDEST POP POP POP POP PUSH1 0x40 MLOAD RETURNDATASIZE PUSH1 0x1F NOT PUSH1 0x1F DUP3 ADD AND DUP3 ADD DUP1 PUSH1 0x40 MSTORE POP DUP2 ADD SWAP1 PUSH2 0x12BA SWAP2 SWAP1 PUSH2 0x2E6B JUMP JUMPDEST PUSH1 0x1 PUSH1 0x1 PUSH1 0xA0 SHL SUB AND DUP2 MSTORE PUSH1 0x20 DUP2 ADD SWAP2 SWAP1 SWAP2 MSTORE PUSH1 0x40 SWAP1 DUP2 ADD PUSH1 0x0 KECCAK256 SWAP1 MLOAD PUSH4 0xF00C56F PUSH1 0xE4 SHL DUP2 MSTORE PUSH20 0x0 SWAP2 PUSH4 0xF00C56F0 SWAP2 PUSH2 0x130F SWAP2 PUSH1 0x6 ADD SWAP1 DUP11 SWAP1 PUSH1 0x4 ADD PUSH2 0x2CE8 JUMP JUMPDEST PUSH1 0x0 PUSH1 0x40 MLOAD DUP1 DUP4 SUB DUP2 DUP7 DUP1 EXTCODESIZE ISZERO DUP1 ISZERO PUSH2 0x1327 JUMPI PUSH1 0x0 DUP1 REVERT JUMPDEST POP GAS DELEGATECALL ISZERO DUP1 ISZERO PUSH2 0x133B JUMPI RETURNDATASIZE PUSH1 0x0 DUP1 RETURNDATACOPY RETURNDATASIZE PUSH1 0x0 REVERT JUMPDEST POP POP PUSH1 0x1 SWAP1 SWAP3 ADD SWAP2 POP PUSH2 0x118B SWAP1 POP JUMP JUMPDEST POP PUSH1 0x1 PUSH1 0x1 PUSH1 0xA0 SHL SUB DUP7 AND PUSH1 0x0 SWAP1 DUP2 MSTORE PUSH1 0x5 PUSH1 0x20 MSTORE PUSH1 0x40 SWAP1 DUP2 SWAP1 KECCAK256 SWAP1 MLOAD PUSH4 0xF00C56F PUSH1 0xE4 SHL DUP2 MSTORE PUSH20 0x0 SWAP2 PUSH4 0xF00C56F0 SWAP2 PUSH2 0x13A0 SWAP2 PUSH1 0x3 ADD SWAP1 DUP10 SWAP1 PUSH1 0x4 ADD PUSH2 0x2CE8 JUMP JUMPDEST PUSH1 0x0 PUSH1 0x40 MLOAD DUP1 DUP4 SUB DUP2 DUP7 DUP1 EXTCODESIZE ISZERO DUP1 ISZERO PUSH2 0x13B8 JUMPI PUSH1 0x0 DUP1 REVERT JUMPDEST POP GAS DELEGATECALL ISZERO DUP1 ISZERO PUSH2 0x13CC JUMPI RETURNDATASIZE PUSH1 0x0 DUP1 RETURNDATACOPY RETURNDATASIZE PUSH1 0x0 REVERT JUMPDEST POP POP POP PUSH1 0x1 PUSH1 0x1 PUSH1 0xA0 SHL SUB DUP7 AND PUSH1 0x0 SWAP1 DUP2 MSTORE PUSH1 0x6 PUSH1 0x20 MSTORE PUSH1 0x40 DUP2 KECCAK256 DUP2 DUP2 SSTORE PUSH1 0x1 DUP2 ADD DUP1 SLOAD PUSH1 0x1 PUSH1 0x1 PUSH1 0xA0 SHL SUB NOT AND SWAP1 SSTORE SWAP2 POP PUSH2 0x140B PUSH1 0x2 DUP4 ADD DUP3 PUSH2 0x269C JUMP JUMPDEST PUSH1 0x3 DUP3 ADD PUSH1 0x0 SWAP1 SSTORE PUSH1 0x4 DUP3 ADD PUSH1 0x0 PUSH2 0x1423 SWAP2 SWAP1 PUSH2 0x269C JUMP JUMPDEST PUSH1 0x0 PUSH1 0x5 DUP4 ADD DUP2 SWAP1 SSTORE PUSH1 0x6 DUP4 ADD SWAP1 PUSH2 0x143B DUP3 DUP3 PUSH2 0x26D9 JUMP JUMPDEST POP POP POP PUSH1 0x9 ADD DUP1 SLOAD PUSH1 0xFF NOT AND SWAP1 SSTORE PUSH1 0x1 PUSH1 0x1 PUSH1 0xA0 SHL SUB DUP6 AND PUSH1 0x0 SWAP1 DUP2 MSTORE PUSH1 0x6 PUSH1 0x20 MSTORE PUSH1 0x40 SWAP1 DUP2 SWAP1 KECCAK256 SWAP1 MLOAD PUSH1 0x8 SWAP2 PUSH2 0x1477 SWAP2 PUSH1 0x4 SWAP1 SWAP2 ADD SWAP1 PUSH2 0x2E88 JUMP JUMPDEST SWAP1 DUP2 MSTORE PUSH1 0x40 MLOAD SWAP1 DUP2 SWAP1 SUB PUSH1 0x20 ADD SWAP1 KECCAK256 DUP1 SLOAD PUSH1 0xFF NOT AND SWAP1 SSTORE PUSH1 0x2 DUP1 SLOAD SWAP1 PUSH1 0x0 PUSH2 0x149E DUP4 PUSH2 0x2F14 JUMP JUMPDEST SWAP2 SWAP1 POP SSTORE POP PUSH32 0x4BBE610ABCBB36DFDC44C6F9719CF0D679122BA9F2349DC036E6F2E6D7F135AE DUP6 DUP8 PUSH1 0x40 MLOAD PUSH2 0xC82 SWAP3 SWAP2 SWAP1 PUSH2 0x2DD3 JUMP JUMPDEST PUSH1 0x1 PUSH1 0x1 PUSH1 0xA0 SHL SUB DUP2 AND PUSH1 0x0 SWAP1 DUP2 MSTORE PUSH1 0x5 PUSH1 0x20 MSTORE PUSH1 0x40 DUP2 KECCAK256 DUP1 SLOAD PUSH1 0xC DUP3 ADD SLOAD PUSH1 0x1 DUP4 ADD DUP1 SLOAD PUSH1 0x60 SWAP5 DUP6 SWAP5 DUP8 SWAP5 SWAP1 SWAP4 SWAP3 PUSH1 0x2 SWAP1 SWAP3 ADD SWAP2 PUSH1 0xFF SWAP1 SWAP2 AND SWAP1 DUP4 SWAP1 PUSH2 0x151A SWAP1 PUSH2 0x2CAE JUMP JUMPDEST DUP1 PUSH1 0x1F ADD PUSH1 0x20 DUP1 SWAP2 DIV MUL PUSH1 0x20 ADD PUSH1 0x40 MLOAD SWAP1 DUP2 ADD PUSH1 0x40 MSTORE DUP1 SWAP3 SWAP2 SWAP1 DUP2 DUP2 MSTORE PUSH1 0x20 ADD DUP3 DUP1 SLOAD PUSH2 0x1546 SWAP1 PUSH2 0x2CAE JUMP JUMPDEST DUP1 ISZERO PUSH2 0x1593 JUMPI DUP1 PUSH1 0x1F LT PUSH2 0x1568 JUMPI PUSH2 0x100 DUP1 DUP4 SLOAD DIV MUL DUP4 MSTORE SWAP2 PUSH1 0x20 ADD SWAP2 PUSH2 0x1593 JUMP JUMPDEST DUP3 ADD SWAP2 SWAP1 PUSH1 0x0 MSTORE PUSH1 0x20 PUSH1 0x0 KECCAK256 SWAP1 JUMPDEST DUP2 SLOAD DUP2 MSTORE SWAP1 PUSH1 0x1 ADD SWAP1 PUSH1 0x20 ADD DUP1 DUP4 GT PUSH2 0x1576 JUMPI DUP3 SWAP1 SUB PUSH1 0x1F AND DUP3 ADD SWAP2 JUMPDEST POP POP POP POP POP SWAP3 POP DUP2 DUP1 SLOAD PUSH2 0x15A6 SWAP1 PUSH2 0x2CAE JUMP JUMPDEST DUP1 PUSH1 0x1F ADD PUSH1 0x20 DUP1 SWAP2 DIV MUL PUSH1 0x20 ADD PUSH1 0x40 MLOAD SWAP1 DUP2 ADD PUSH1 0x40 MSTORE DUP1 SWAP3 SWAP2 SWAP1 DUP2 DUP2 MSTORE PUSH1 0x20 ADD DUP3 DUP1 SLOAD PUSH2 0x15D2 SWAP1 PUSH2 0x2CAE JUMP JUMPDEST DUP1 ISZERO PUSH2 0x161F JUMPI DUP1 PUSH1 0x1F LT PUSH2 0x15F4 JUMPI PUSH2 0x100 DUP1 DUP4 SLOAD DIV MUL DUP4 MSTORE SWAP2 PUSH1 0x20 ADD SWAP2 PUSH2 0x161F JUMP JUMPDEST DUP3 ADD SWAP2 SWAP1 PUSH1 0x0 MSTORE PUSH1 0x20 PUSH1 0x0 KECCAK256 SWAP1 JUMPDEST DUP2 SLOAD DUP2 MSTORE SWAP1 PUSH1 0x1 ADD SWAP1 PUSH1 0x20 ADD DUP1 DUP4 GT PUSH2 0x1602 JUMPI DUP3 SWAP1 SUB PUSH1 0x1F AND DUP3 ADD SWAP2 JUMPDEST POP POP POP POP POP SWAP2 POP SWAP4 POP SWAP4 POP SWAP4 POP SWAP4 POP SWAP2 SWAP4 POP SWAP2 SWAP4 JUMP JUMPDEST PUSH1 0x1 PUSH1 0x1 PUSH1 0xA0 SHL SUB DUP2 AND PUSH1 0x0 SWAP1 DUP2 MSTORE PUSH1 0x5 PUSH1 0x20 MSTORE PUSH1 0x40 SWAP1 DUP2 SWAP1 KECCAK256 SWAP1 MLOAD PUSH4 0x535FF665 PUSH1 0xE0 SHL DUP2 MSTORE PUSH1 0x3 SWAP1 SWAP2 ADD PUSH1 0x4 DUP3 ADD MSTORE PUSH1 0x60 SWAP1 PUSH20 0x0 SWAP1 PUSH4 0x535FF665 SWAP1 PUSH1 0x24 ADD PUSH2 0x751 JUMP JUMPDEST PUSH1 0x1 PUSH1 0x1 PUSH1 0xA0 SHL SUB DUP6 AND PUSH1 0x0 SWAP1 DUP2 MSTORE PUSH1 0x5 PUSH1 0x20 MSTORE PUSH1 0x40 DUP2 KECCAK256 PUSH1 0xC ADD SLOAD DUP7 SWAP1 PUSH1 0xFF AND PUSH2 0x16C9 JUMPI PUSH1 0x40 MLOAD PUSH3 0x461BCD PUSH1 0xE5 SHL DUP2 MSTORE PUSH1 0x4 ADD PUSH2 0x934 SWAP1 PUSH2 0x2DED JUMP JUMPDEST PUSH1 0x1 PUSH1 0x1 PUSH1 0xA0 SHL SUB DUP7 AND PUSH1 0x0 SWAP1 DUP2 MSTORE PUSH1 0x6 PUSH1 0x20 MSTORE PUSH1 0x40 SWAP1 KECCAK256 PUSH1 0x9 ADD SLOAD DUP7 SWAP1 DUP6 SWAP1 PUSH1 0xFF AND ISZERO DUP1 ISZERO PUSH2 0x1719 JUMPI POP PUSH1 0x8 DUP2 PUSH1 0x40 MLOAD PUSH2 0x1704 SWAP2 SWAP1 PUSH2 0x2F2B JUMP JUMPDEST SWAP1 DUP2 MSTORE PUSH1 0x40 MLOAD SWAP1 DUP2 SWAP1 SUB PUSH1 0x20 ADD SWAP1 KECCAK256 SLOAD PUSH1 0xFF AND ISZERO JUMPDEST PUSH2 0x175C JUMPI PUSH1 0x40 MLOAD PUSH3 0x461BCD PUSH1 0xE5 SHL DUP2 MSTORE PUSH1 0x20 PUSH1 0x4 DUP3 ADD MSTORE PUSH1 0x14 PUSH1 0x24 DUP3 ADD MSTORE PUSH20 0x2334B6329030B63932B0B23C9032BC34B9BA3997 PUSH1 0x61 SHL PUSH1 0x44 DUP3 ADD MSTORE PUSH1 0x64 ADD PUSH2 0x934 JUMP JUMPDEST PUSH1 0x0 SLOAD PUSH1 0xFF AND ISZERO PUSH2 0x1926 JUMPI PUSH1 0x4 DUP1 SLOAD DUP7 SWAP2 PUSH1 0x0 PUSH2 0x1778 DUP4 PUSH2 0x2F47 JUMP JUMPDEST SWAP1 SWAP2 SSTORE POP PUSH1 0x1 PUSH1 0x1 PUSH1 0xA0 SHL SUB DUP11 DUP2 AND PUSH1 0x0 SWAP1 DUP2 MSTORE PUSH1 0x6 PUSH1 0x20 MSTORE PUSH1 0x40 SWAP1 KECCAK256 SWAP2 DUP3 SSTORE PUSH1 0x1 DUP3 ADD DUP1 SLOAD PUSH1 0x1 PUSH1 0x1 PUSH1 0xA0 SHL SUB NOT AND SWAP2 DUP14 AND SWAP2 SWAP1 SWAP2 OR SWAP1 SSTORE PUSH1 0x2 ADD PUSH2 0x17BE DUP10 DUP3 PUSH2 0x2FB1 JUMP JUMPDEST POP DUP1 MLOAD PUSH1 0x1 PUSH1 0x1 PUSH1 0xA0 SHL SUB DUP11 AND PUSH1 0x0 SWAP1 DUP2 MSTORE PUSH1 0x6 PUSH1 0x20 MSTORE PUSH1 0x40 SWAP1 KECCAK256 PUSH1 0x3 DUP2 ADD SWAP2 SWAP1 SWAP2 SSTORE PUSH1 0x4 ADD PUSH2 0x17EE DUP9 DUP3 PUSH2 0x2FB1 JUMP JUMPDEST POP DUP1 MLOAD PUSH1 0x20 DUP1 DUP4 ADD SWAP2 SWAP1 SWAP2 KECCAK256 PUSH1 0x1 PUSH1 0x1 PUSH1 0xA0 SHL SUB DUP1 DUP13 AND PUSH1 0x0 SWAP1 DUP2 MSTORE PUSH1 0x6 DUP5 MSTORE PUSH1 0x40 DUP1 DUP3 KECCAK256 PUSH1 0x5 DUP1 DUP3 ADD SWAP6 SWAP1 SWAP6 SSTORE PUSH1 0x9 ADD DUP1 SLOAD PUSH1 0xFF NOT AND PUSH1 0x1 OR SWAP1 SSTORE SWAP2 DUP15 AND DUP2 MSTORE SWAP2 SWAP1 SWAP3 MSTORE DUP2 SWAP1 KECCAK256 SWAP1 MLOAD PUSH4 0x1C058A9 PUSH1 0xE2 SHL DUP2 MSTORE PUSH20 0x0 SWAP2 PUSH4 0x70162A4 SWAP2 PUSH2 0x1870 SWAP2 PUSH1 0x3 ADD SWAP1 DUP14 SWAP1 PUSH1 0x4 ADD PUSH2 0x2CE8 JUMP JUMPDEST PUSH1 0x0 PUSH1 0x40 MLOAD DUP1 DUP4 SUB DUP2 DUP7 DUP1 EXTCODESIZE ISZERO DUP1 ISZERO PUSH2 0x1888 JUMPI PUSH1 0x0 DUP1 REVERT JUMPDEST POP GAS DELEGATECALL ISZERO DUP1 ISZERO PUSH2 0x189C JUMPI RETURNDATASIZE PUSH1 0x0 DUP1 RETURNDATACOPY RETURNDATASIZE PUSH1 0x0 REVERT JUMPDEST POP POP POP POP PUSH1 0x1 PUSH1 0x8 DUP9 PUSH1 0x40 MLOAD PUSH2 0x18B2 SWAP2 SWAP1 PUSH2 0x2F2B JUMP JUMPDEST SWAP1 DUP2 MSTORE PUSH1 0x40 MLOAD SWAP1 DUP2 SWAP1 SUB PUSH1 0x20 ADD SWAP1 KECCAK256 DUP1 SLOAD SWAP2 ISZERO ISZERO PUSH1 0xFF NOT SWAP1 SWAP3 AND SWAP2 SWAP1 SWAP2 OR SWAP1 SSTORE PUSH1 0x2 DUP1 SLOAD SWAP1 PUSH1 0x0 PUSH2 0x18E2 DUP4 PUSH2 0x2F47 JUMP JUMPDEST SWAP2 SWAP1 POP SSTORE POP PUSH32 0xE0F76FB99D0FDCC765FE6A79952945F024346AB3418E7D8CC9EED19185D31D4C DUP11 DUP11 DUP11 DUP11 PUSH1 0x40 MLOAD PUSH2 0x191C SWAP5 SWAP4 SWAP3 SWAP2 SWAP1 PUSH2 0x3071 JUMP JUMPDEST PUSH1 0x40 MLOAD DUP1 SWAP2 SUB SWAP1 LOG1 POP JUMPDEST POP POP PUSH1 0x0 SLOAD PUSH1 0xFF AND SWAP8 SWAP7 POP POP POP POP POP POP POP JUMP JUMPDEST PUSH1 0x1 PUSH1 0x1 PUSH1 0xA0 SHL SUB DUP4 AND PUSH1 0x0 SWAP1 DUP2 MSTORE PUSH1 0x5 PUSH1 0x20 MSTORE PUSH1 0x40 DUP2 KECCAK256 PUSH1 0xC ADD SLOAD DUP5 SWAP1 PUSH1 0xFF AND PUSH2 0x1976 JUMPI PUSH1 0x40 MLOAD PUSH3 0x461BCD PUSH1 0xE5 SHL DUP2 MSTORE PUSH1 0x4 ADD PUSH2 0x934 SWAP1 PUSH2 0x2DED JUMP JUMPDEST PUSH1 0x1 PUSH1 0x1 PUSH1 0xA0 SHL SUB DUP1 DUP6 AND PUSH1 0x0 SWAP1 DUP2 MSTORE PUSH1 0x6 PUSH1 0x20 MSTORE PUSH1 0x40 SWAP1 KECCAK256 PUSH1 0x1 ADD SLOAD DUP7 SWAP2 DUP7 SWAP2 DUP2 DUP5 AND SWAP2 AND EQ PUSH2 0x19B9 JUMPI PUSH1 0x40 MLOAD PUSH3 0x461BCD PUSH1 0xE5 SHL DUP2 MSTORE PUSH1 0x4 ADD PUSH2 0x934 SWAP1 PUSH2 0x2E1B JUMP JUMPDEST PUSH1 0x0 SLOAD PUSH1 0xFF AND ISZERO PUSH2 0x10EC JUMPI DUP5 MLOAD PUSH1 0x1 PUSH1 0x1 PUSH1 0xA0 SHL SUB DUP8 AND PUSH1 0x0 SWAP1 DUP2 MSTORE PUSH1 0x6 PUSH1 0x20 SWAP1 DUP2 MSTORE PUSH1 0x40 SWAP2 DUP3 SWAP1 KECCAK256 PUSH1 0x3 DUP2 ADD SWAP4 SWAP1 SWAP4 SSTORE DUP8 MLOAD SWAP1 DUP9 ADD KECCAK256 PUSH1 0x5 SWAP1 SWAP3 ADD SWAP2 SWAP1 SWAP2 SSTORE MLOAD DUP6 SWAP1 PUSH32 0x5001157A468BBEF1C03DBA122785F55C5C7CEF98E8E79E9661E00C0BE74700A6 SWAP1 PUSH2 0x1A2B SWAP1 DUP10 SWAP1 DUP12 SWAP1 PUSH2 0x2DD3 JUMP JUMPDEST PUSH1 0x40 MLOAD DUP1 SWAP2 SUB SWAP1 LOG1 POP POP PUSH1 0x0 SLOAD PUSH1 0xFF AND SWAP7 SWAP6 POP POP POP POP POP POP JUMP JUMPDEST PUSH1 0x0 DUP1 SLOAD PUSH1 0xFF AND ISZERO PUSH2 0x6F0 JUMPI PUSH1 0x0 JUMPDEST DUP3 DUP2 LT ISZERO PUSH2 0x1BC3 JUMPI PUSH1 0x1 PUSH1 0x1 PUSH1 0xA0 SHL SUB DUP6 AND PUSH1 0x0 SWAP1 DUP2 MSTORE PUSH1 0x5 PUSH1 0x20 MSTORE PUSH1 0x40 SWAP1 KECCAK256 PUSH20 0x0 SWAP1 PUSH4 0xF00C56F0 SWAP1 PUSH1 0x9 ADD DUP7 DUP7 DUP6 DUP2 DUP2 LT PUSH2 0x1AA5 JUMPI PUSH2 0x1AA5 PUSH2 0x30BA JUMP JUMPDEST SWAP1 POP PUSH1 0x20 MUL ADD PUSH1 0x20 DUP2 ADD SWAP1 PUSH2 0x1ABA SWAP2 SWAP1 PUSH2 0x2721 JUMP JUMPDEST PUSH1 0x40 MLOAD DUP4 PUSH4 0xFFFFFFFF AND PUSH1 0xE0 SHL DUP2 MSTORE PUSH1 0x4 ADD PUSH2 0x1AD7 SWAP3 SWAP2 SWAP1 PUSH2 0x2CE8 JUMP JUMPDEST PUSH1 0x0 PUSH1 0x40 MLOAD DUP1 DUP4 SUB DUP2 DUP7 DUP1 EXTCODESIZE ISZERO DUP1 ISZERO PUSH2 0x1AEF JUMPI PUSH1 0x0 DUP1 REVERT JUMPDEST POP GAS DELEGATECALL ISZERO DUP1 ISZERO PUSH2 0x1B03 JUMPI RETURNDATASIZE PUSH1 0x0 DUP1 RETURNDATACOPY RETURNDATASIZE PUSH1 0x0 REVERT JUMPDEST POP POP POP POP PUSH1 0x5 PUSH1 0x0 DUP6 DUP6 DUP5 DUP2 DUP2 LT PUSH2 0x1B1D JUMPI PUSH2 0x1B1D PUSH2 0x30BA JUMP JUMPDEST SWAP1 POP PUSH1 0x20 MUL ADD PUSH1 0x20 DUP2 ADD SWAP1 PUSH2 0x1B32 SWAP2 SWAP1 PUSH2 0x2721 JUMP JUMPDEST PUSH1 0x1 PUSH1 0x1 PUSH1 0xA0 SHL SUB AND DUP2 MSTORE PUSH1 0x20 DUP2 ADD SWAP2 SWAP1 SWAP2 MSTORE PUSH1 0x40 SWAP1 DUP2 ADD PUSH1 0x0 KECCAK256 SWAP1 MLOAD PUSH4 0xF00C56F PUSH1 0xE4 SHL DUP2 MSTORE PUSH20 0x0 SWAP2 PUSH4 0xF00C56F0 SWAP2 PUSH2 0x1B87 SWAP2 PUSH1 0x9 ADD SWAP1 DUP10 SWAP1 PUSH1 0x4 ADD PUSH2 0x2CE8 JUMP JUMPDEST PUSH1 0x0 PUSH1 0x40 MLOAD DUP1 DUP4 SUB DUP2 DUP7 DUP1 EXTCODESIZE ISZERO DUP1 ISZERO PUSH2 0x1B9F JUMPI PUSH1 0x0 DUP1 REVERT JUMPDEST POP GAS DELEGATECALL ISZERO DUP1 ISZERO PUSH2 0x1BB3 JUMPI RETURNDATASIZE PUSH1 0x0 DUP1 RETURNDATACOPY RETURNDATASIZE PUSH1 0x0 REVERT JUMPDEST POP POP PUSH1 0x1 SWAP1 SWAP3 ADD SWAP2 POP PUSH2 0x1A54 SWAP1 POP JUMP JUMPDEST POP PUSH1 0x40 MLOAD PUSH1 0x1 PUSH1 0x1 PUSH1 0xA0 SHL SUB DUP6 AND DUP2 MSTORE PUSH32 0xB8132C270E672746207D3FD022B2C141A3183A6C1504B7A0D4916C1C5510C0F5 SWAP1 PUSH1 0x20 ADD PUSH2 0x6E7 JUMP JUMPDEST PUSH1 0x1 PUSH1 0x1 PUSH1 0xA0 SHL SUB DUP2 AND PUSH1 0x0 SWAP1 DUP2 MSTORE PUSH1 0x6 PUSH1 0x20 DUP2 SWAP1 MSTORE PUSH1 0x40 SWAP2 DUP3 SWAP1 KECCAK256 SWAP2 MLOAD PUSH4 0x535FF665 PUSH1 0xE0 SHL DUP2 MSTORE SWAP2 ADD PUSH1 0x4 DUP3 ADD MSTORE PUSH1 0x60 SWAP1 PUSH20 0x0 SWAP1 PUSH4 0x535FF665 SWAP1 PUSH1 0x24 ADD PUSH2 0x751 JUMP JUMPDEST PUSH1 0x1 PUSH1 0x1 PUSH1 0xA0 SHL SUB DUP5 AND PUSH1 0x0 SWAP1 DUP2 MSTORE PUSH1 0x5 PUSH1 0x20 MSTORE PUSH1 0x40 DUP2 KECCAK256 PUSH1 0xC ADD SLOAD DUP6 SWAP1 PUSH1 0xFF AND PUSH2 0x1C90 JUMPI PUSH1 0x40 MLOAD PUSH3 0x461BCD PUSH1 0xE5 SHL DUP2 MSTORE PUSH1 0x4 ADD PUSH2 0x934 SWAP1 PUSH2 0x2DED JUMP JUMPDEST PUSH1 0x1 PUSH1 0x1 PUSH1 0xA0 SHL SUB DUP1 DUP7 AND PUSH1 0x0 SWAP1 DUP2 MSTORE PUSH1 0x6 PUSH1 0x20 MSTORE PUSH1 0x40 SWAP1 KECCAK256 PUSH1 0x1 ADD SLOAD DUP8 SWAP2 DUP8 SWAP2 DUP2 DUP5 AND SWAP2 AND EQ PUSH2 0x1CD3 JUMPI PUSH1 0x40 MLOAD PUSH3 0x461BCD PUSH1 0xE5 SHL DUP2 MSTORE PUSH1 0x4 ADD PUSH2 0x934 SWAP1 PUSH2 0x2E1B JUMP JUMPDEST PUSH1 0x0 SLOAD PUSH1 0xFF AND ISZERO PUSH2 0x1F41 JUMPI PUSH1 0x0 JUMPDEST DUP6 DUP2 LT ISZERO PUSH2 0x1F0F JUMPI PUSH1 0x1 PUSH1 0x1 PUSH1 0xA0 SHL SUB DUP10 AND PUSH1 0x0 SWAP1 DUP2 MSTORE PUSH1 0x5 PUSH1 0x20 MSTORE PUSH1 0x40 SWAP1 KECCAK256 PUSH20 0x0 SWAP1 PUSH4 0x76DF7BFF SWAP1 PUSH1 0x9 ADD DUP10 DUP10 DUP6 DUP2 DUP2 LT PUSH2 0x1D32 JUMPI PUSH2 0x1D32 PUSH2 0x30BA JUMP JUMPDEST SWAP1 POP PUSH1 0x20 MUL ADD PUSH1 0x20 DUP2 ADD SWAP1 PUSH2 0x1D47 SWAP2 SWAP1 PUSH2 0x2721 JUMP JUMPDEST PUSH1 0x40 MLOAD DUP4 PUSH4 0xFFFFFFFF AND PUSH1 0xE0 SHL DUP2 MSTORE PUSH1 0x4 ADD PUSH2 0x1D64 SWAP3 SWAP2 SWAP1 PUSH2 0x2CE8 JUMP JUMPDEST PUSH1 0x20 PUSH1 0x40 MLOAD DUP1 DUP4 SUB DUP2 DUP7 GAS DELEGATECALL ISZERO DUP1 ISZERO PUSH2 0x1D81 JUMPI RETURNDATASIZE PUSH1 0x0 DUP1 RETURNDATACOPY RETURNDATASIZE PUSH1 0x0 REVERT JUMPDEST POP POP POP POP PUSH1 0x40 MLOAD RETURNDATASIZE PUSH1 0x1F NOT PUSH1 0x1F DUP3 ADD AND DUP3 ADD DUP1 PUSH1 0x40 MSTORE POP DUP2 ADD SWAP1 PUSH2 0x1DA5 SWAP2 SWAP1 PUSH2 0x2CFF JUMP JUMPDEST ISZERO PUSH2 0x1F07 JUMPI PUSH1 0x1 PUSH1 0x1 PUSH1 0xA0 SHL SUB DUP9 AND PUSH1 0x0 SWAP1 DUP2 MSTORE PUSH1 0x6 PUSH1 0x20 DUP2 SWAP1 MSTORE PUSH1 0x40 SWAP1 SWAP2 KECCAK256 PUSH20 0x0 SWAP2 PUSH4 0x70162A4 SWAP2 ADD DUP10 DUP10 DUP6 DUP2 DUP2 LT PUSH2 0x1DF4 JUMPI PUSH2 0x1DF4 PUSH2 0x30BA JUMP JUMPDEST SWAP1 POP PUSH1 0x20 MUL ADD PUSH1 0x20 DUP2 ADD SWAP1 PUSH2 0x1E09 SWAP2 SWAP1 PUSH2 0x2721 JUMP JUMPDEST PUSH1 0x40 MLOAD DUP4 PUSH4 0xFFFFFFFF AND PUSH1 0xE0 SHL DUP2 MSTORE PUSH1 0x4 ADD PUSH2 0x1E26 SWAP3 SWAP2 SWAP1 PUSH2 0x2CE8 JUMP JUMPDEST PUSH1 0x0 PUSH1 0x40 MLOAD DUP1 DUP4 SUB DUP2 DUP7 DUP1 EXTCODESIZE ISZERO DUP1 ISZERO PUSH2 0x1E3E JUMPI PUSH1 0x0 DUP1 REVERT JUMPDEST POP GAS DELEGATECALL ISZERO DUP1 ISZERO PUSH2 0x1E52 JUMPI RETURNDATASIZE PUSH1 0x0 DUP1 RETURNDATACOPY RETURNDATASIZE PUSH1 0x0 REVERT JUMPDEST POP POP POP POP PUSH1 0x5 PUSH1 0x0 DUP9 DUP9 DUP5 DUP2 DUP2 LT PUSH2 0x1E6C JUMPI PUSH2 0x1E6C PUSH2 0x30BA JUMP JUMPDEST SWAP1 POP PUSH1 0x20 MUL ADD PUSH1 0x20 DUP2 ADD SWAP1 PUSH2 0x1E81 SWAP2 SWAP1 PUSH2 0x2721 JUMP JUMPDEST PUSH1 0x1 PUSH1 0x1 PUSH1 0xA0 SHL SUB AND DUP2 MSTORE PUSH1 0x20 DUP2 ADD SWAP2 SWAP1 SWAP2 MSTORE PUSH1 0x40 SWAP1 DUP2 ADD PUSH1 0x0 KECCAK256 SWAP1 MLOAD PUSH4 0x1C058A9 PUSH1 0xE2 SHL DUP2 MSTORE PUSH20 0x0 SWAP2 PUSH4 0x70162A4 SWAP2 PUSH2 0x1ED6 SWAP2 PUSH1 0x6 ADD SWAP1 DUP13 SWAP1 PUSH1 0x4 ADD PUSH2 0x2CE8 JUMP JUMPDEST PUSH1 0x0 PUSH1 0x40 MLOAD DUP1 DUP4 SUB DUP2 DUP7 DUP1 EXTCODESIZE ISZERO DUP1 ISZERO PUSH2 0x1EEE JUMPI PUSH1 0x0 DUP1 REVERT JUMPDEST POP GAS DELEGATECALL ISZERO DUP1 ISZERO PUSH2 0x1F02 JUMPI RETURNDATASIZE PUSH1 0x0 DUP1 RETURNDATACOPY RETURNDATASIZE PUSH1 0x0 REVERT JUMPDEST POP POP POP POP JUMPDEST PUSH1 0x1 ADD PUSH2 0x1CE1 JUMP JUMPDEST POP PUSH32 0x83B7E751CA40152ECB3F193BAD2BDEC238F8E455238659DC5B21DE9AF3E4951E DUP8 DUP10 PUSH1 0x40 MLOAD PUSH2 0x1A2B SWAP3 SWAP2 SWAP1 PUSH2 0x2DD3 JUMP JUMPDEST POP POP PUSH1 0x0 SLOAD PUSH1 0xFF AND SWAP7 SWAP6 POP POP POP POP POP POP JUMP JUMPDEST PUSH1 0x0 DUP1 SLOAD PUSH1 0xFF AND ISZERO PUSH2 0x21CB JUMPI PUSH1 0x0 JUMPDEST DUP3 DUP2 LT ISZERO PUSH2 0x2190 JUMPI PUSH1 0x1 PUSH1 0x1 PUSH1 0xA0 SHL SUB DUP7 AND PUSH1 0x0 SWAP1 DUP2 MSTORE PUSH1 0x5 PUSH1 0x20 MSTORE PUSH1 0x40 SWAP1 KECCAK256 PUSH20 0x0 SWAP1 PUSH4 0x76DF7BFF SWAP1 PUSH1 0x9 ADD DUP7 DUP7 DUP6 DUP2 DUP2 LT PUSH2 0x1FB3 JUMPI PUSH2 0x1FB3 PUSH2 0x30BA JUMP JUMPDEST SWAP1 POP PUSH1 0x20 MUL ADD PUSH1 0x20 DUP2 ADD SWAP1 PUSH2 0x1FC8 SWAP2 SWAP1 PUSH2 0x2721 JUMP JUMPDEST PUSH1 0x40 MLOAD DUP4 PUSH4 0xFFFFFFFF AND PUSH1 0xE0 SHL DUP2 MSTORE PUSH1 0x4 ADD PUSH2 0x1FE5 SWAP3 SWAP2 SWAP1 PUSH2 0x2CE8 JUMP JUMPDEST PUSH1 0x20 PUSH1 0x40 MLOAD DUP1 DUP4 SUB DUP2 DUP7 GAS DELEGATECALL ISZERO DUP1 ISZERO PUSH2 0x2002 JUMPI RETURNDATASIZE PUSH1 0x0 DUP1 RETURNDATACOPY RETURNDATASIZE PUSH1 0x0 REVERT JUMPDEST POP POP POP POP PUSH1 0x40 MLOAD RETURNDATASIZE PUSH1 0x1F NOT PUSH1 0x1F DUP3 ADD AND DUP3 ADD DUP1 PUSH1 0x40 MSTORE POP DUP2 ADD SWAP1 PUSH2 0x2026 SWAP2 SWAP1 PUSH2 0x2CFF JUMP JUMPDEST ISZERO PUSH2 0x2188 JUMPI PUSH1 0x5 PUSH1 0x0 DUP6 DUP6 DUP5 DUP2 DUP2 LT PUSH2 0x2041 JUMPI PUSH2 0x2041 PUSH2 0x30BA JUMP JUMPDEST SWAP1 POP PUSH1 0x20 MUL ADD PUSH1 0x20 DUP2 ADD SWAP1 PUSH2 0x2056 SWAP2 SWAP1 PUSH2 0x2721 JUMP JUMPDEST PUSH1 0x1 PUSH1 0x1 PUSH1 0xA0 SHL SUB AND DUP2 MSTORE PUSH1 0x20 DUP2 ADD SWAP2 SWAP1 SWAP2 MSTORE PUSH1 0x40 SWAP1 DUP2 ADD PUSH1 0x0 KECCAK256 SWAP1 MLOAD PUSH4 0xF00C56F PUSH1 0xE4 SHL DUP2 MSTORE PUSH20 0x0 SWAP2 PUSH4 0xF00C56F0 SWAP2 PUSH2 0x20AB SWAP2 PUSH1 0x6 ADD SWAP1 DUP10 SWAP1 PUSH1 0x4 ADD PUSH2 0x2CE8 JUMP JUMPDEST PUSH1 0x0 PUSH1 0x40 MLOAD DUP1 DUP4 SUB DUP2 DUP7 DUP1 EXTCODESIZE ISZERO DUP1 ISZERO PUSH2 0x20C3 JUMPI PUSH1 0x0 DUP1 REVERT JUMPDEST POP GAS DELEGATECALL ISZERO DUP1 ISZERO PUSH2 0x20D7 JUMPI RETURNDATASIZE PUSH1 0x0 DUP1 RETURNDATACOPY RETURNDATASIZE PUSH1 0x0 REVERT JUMPDEST POP POP POP PUSH1 0x1 PUSH1 0x1 PUSH1 0xA0 SHL SUB DUP7 AND PUSH1 0x0 SWAP1 DUP2 MSTORE PUSH1 0x6 PUSH1 0x20 DUP2 SWAP1 MSTORE PUSH1 0x40 SWAP1 SWAP2 KECCAK256 PUSH20 0x0 SWAP3 POP PUSH4 0xF00C56F0 SWAP2 ADD DUP7 DUP7 DUP6 DUP2 DUP2 LT PUSH2 0x2125 JUMPI PUSH2 0x2125 PUSH2 0x30BA JUMP JUMPDEST SWAP1 POP PUSH1 0x20 MUL ADD PUSH1 0x20 DUP2 ADD SWAP1 PUSH2 0x213A SWAP2 SWAP1 PUSH2 0x2721 JUMP JUMPDEST PUSH1 0x40 MLOAD DUP4 PUSH4 0xFFFFFFFF AND PUSH1 0xE0 SHL DUP2 MSTORE PUSH1 0x4 ADD PUSH2 0x2157 SWAP3 SWAP2 SWAP1 PUSH2 0x2CE8 JUMP JUMPDEST PUSH1 0x0 PUSH1 0x40 MLOAD DUP1 DUP4 SUB DUP2 DUP7 DUP1 EXTCODESIZE ISZERO DUP1 ISZERO PUSH2 0x216F JUMPI PUSH1 0x0 DUP1 REVERT JUMPDEST POP GAS DELEGATECALL ISZERO DUP1 ISZERO PUSH2 0x2183 JUMPI RETURNDATASIZE PUSH1 0x0 DUP1 RETURNDATACOPY RETURNDATASIZE PUSH1 0x0 REVERT JUMPDEST POP POP POP POP JUMPDEST PUSH1 0x1 ADD PUSH2 0x1F62 JUMP JUMPDEST POP PUSH32 0x869BA4359358AED5DE3D3CB02C3C622E762CD5A563823281F89DC5B3BF955AC1 DUP5 DUP7 PUSH1 0x40 MLOAD PUSH2 0x21C2 SWAP3 SWAP2 SWAP1 PUSH2 0x2DD3 JUMP JUMPDEST PUSH1 0x40 MLOAD DUP1 SWAP2 SUB SWAP1 LOG1 JUMPDEST POP PUSH1 0x0 SLOAD PUSH1 0xFF AND SWAP5 SWAP4 POP POP POP POP JUMP JUMPDEST PUSH1 0x1 PUSH1 0x1 PUSH1 0xA0 SHL SUB DUP4 AND PUSH1 0x0 SWAP1 DUP2 MSTORE PUSH1 0x5 PUSH1 0x20 MSTORE PUSH1 0x40 DUP2 KECCAK256 PUSH1 0xC ADD SLOAD DUP5 SWAP1 DUP4 SWAP1 PUSH1 0xFF AND ISZERO DUP1 ISZERO PUSH2 0x222A JUMPI POP PUSH1 0x7 DUP2 PUSH1 0x40 MLOAD PUSH2 0x2215 SWAP2 SWAP1 PUSH2 0x2F2B JUMP JUMPDEST SWAP1 DUP2 MSTORE PUSH1 0x40 MLOAD SWAP1 DUP2 SWAP1 SUB PUSH1 0x20 ADD SWAP1 KECCAK256 SLOAD PUSH1 0xFF AND ISZERO JUMPDEST PUSH2 0x226D JUMPI PUSH1 0x40 MLOAD PUSH3 0x461BCD PUSH1 0xE5 SHL DUP2 MSTORE PUSH1 0x20 PUSH1 0x4 DUP3 ADD MSTORE PUSH1 0x14 PUSH1 0x24 DUP3 ADD MSTORE PUSH20 0x2AB9B2B91030B63932B0B23C9032BC34B9BA3997 PUSH1 0x61 SHL PUSH1 0x44 DUP3 ADD MSTORE PUSH1 0x64 ADD PUSH2 0x934 JUMP JUMPDEST PUSH1 0x0 SLOAD PUSH1 0xFF AND ISZERO PUSH2 0xC8B JUMPI PUSH1 0x3 DUP1 SLOAD SWAP1 PUSH1 0x0 PUSH2 0x2288 DUP4 PUSH2 0x2F47 JUMP JUMPDEST SWAP1 SWAP2 SSTORE POP PUSH1 0x1 PUSH1 0x1 PUSH1 0xA0 SHL SUB DUP8 AND PUSH1 0x0 SWAP1 DUP2 MSTORE PUSH1 0x5 PUSH1 0x20 MSTORE PUSH1 0x40 SWAP1 KECCAK256 SWAP1 DUP2 SSTORE PUSH1 0x1 ADD PUSH2 0x22B4 DUP7 DUP3 PUSH2 0x2FB1 JUMP JUMPDEST POP PUSH1 0x1 PUSH1 0x1 PUSH1 0xA0 SHL SUB DUP7 AND PUSH1 0x0 SWAP1 DUP2 MSTORE PUSH1 0x5 PUSH1 0x20 MSTORE PUSH1 0x40 SWAP1 KECCAK256 PUSH1 0x2 ADD PUSH2 0x22DA DUP6 DUP3 PUSH2 0x2FB1 JUMP JUMPDEST POP PUSH1 0x1 PUSH1 0x1 PUSH1 0xA0 SHL SUB DUP7 AND PUSH1 0x0 SWAP1 DUP2 MSTORE PUSH1 0x5 PUSH1 0x20 MSTORE PUSH1 0x40 SWAP1 DUP2 SWAP1 KECCAK256 PUSH1 0xC ADD DUP1 SLOAD PUSH1 0xFF NOT AND PUSH1 0x1 SWAP1 DUP2 OR SWAP1 SWAP2 SSTORE SWAP1 MLOAD PUSH1 0x7 SWAP1 PUSH2 0x2316 SWAP1 DUP8 SWAP1 PUSH2 0x2F2B JUMP JUMPDEST SWAP1 DUP2 MSTORE PUSH1 0x40 MLOAD SWAP1 DUP2 SWAP1 SUB PUSH1 0x20 ADD SWAP1 KECCAK256 DUP1 SLOAD SWAP2 ISZERO ISZERO PUSH1 0xFF NOT SWAP1 SWAP3 AND SWAP2 SWAP1 SWAP2 OR SWAP1 SSTORE PUSH1 0x1 DUP1 SLOAD SWAP1 PUSH1 0x0 PUSH2 0x2346 DUP4 PUSH2 0x2F47 JUMP JUMPDEST SWAP2 SWAP1 POP SSTORE POP PUSH32 0xE42B7E5CE4F4D261F8411F66412B019FBFF329671721A467C933E254CFE79133 DUP7 PUSH1 0x3 SLOAD DUP8 DUP8 PUSH1 0x40 MLOAD PUSH2 0xC82 SWAP5 SWAP4 SWAP3 SWAP2 SWAP1 PUSH2 0x30D0 JUMP JUMPDEST PUSH1 0x1 PUSH1 0x1 PUSH1 0xA0 SHL SUB DUP2 AND PUSH1 0x0 SWAP1 DUP2 MSTORE PUSH1 0x5 PUSH1 0x20 MSTORE PUSH1 0x40 SWAP1 DUP2 SWAP1 KECCAK256 SWAP1 MLOAD PUSH4 0x535FF665 PUSH1 0xE0 SHL DUP2 MSTORE PUSH1 0x9 SWAP1 SWAP2 ADD PUSH1 0x4 DUP3 ADD MSTORE PUSH1 0x60 SWAP1 PUSH20 0x0 SWAP1 PUSH4 0x535FF665 SWAP1 PUSH1 0x24 ADD PUSH2 0x751 JUMP JUMPDEST PUSH1 0x1 PUSH1 0x1 PUSH1 0xA0 SHL SUB DUP1 DUP3 AND PUSH1 0x0 SWAP1 DUP2 MSTORE PUSH1 0x6 PUSH1 0x20 MSTORE PUSH1 0x40 DUP2 KECCAK256 PUSH1 0x1 ADD SLOAD SWAP1 SWAP2 DUP5 SWAP2 DUP5 SWAP2 DUP1 DUP5 AND SWAP2 AND EQ PUSH2 0x241E JUMPI PUSH1 0x40 MLOAD PUSH3 0x461BCD PUSH1 0xE5 SHL DUP2 MSTORE PUSH1 0x4 ADD PUSH2 0x934 SWAP1 PUSH2 0x2E1B JUMP JUMPDEST PUSH1 0x0 SLOAD PUSH1 0xFF AND ISZERO PUSH2 0xE62 JUMPI PUSH1 0x0 JUMPDEST PUSH1 0x1 PUSH1 0x1 PUSH1 0xA0 SHL SUB DUP6 AND PUSH1 0x0 SWAP1 DUP2 MSTORE PUSH1 0x6 PUSH1 0x20 DUP2 SWAP1 MSTORE PUSH1 0x40 SWAP2 DUP3 SWAP1 KECCAK256 SWAP2 MLOAD PUSH4 0xB7E4A69 PUSH1 0xE1 SHL DUP2 MSTORE SWAP2 ADD PUSH1 0x4 DUP3 ADD MSTORE PUSH20 0x0 SWAP1 PUSH4 0x16FC94D2 SWAP1 PUSH1 0x24 ADD PUSH1 0x20 PUSH1 0x40 MLOAD DUP1 DUP4 SUB DUP2 DUP7 GAS DELEGATECALL ISZERO DUP1 ISZERO PUSH2 0x2497 JUMPI RETURNDATASIZE PUSH1 0x0 DUP1 RETURNDATACOPY RETURNDATASIZE PUSH1 0x0 REVERT JUMPDEST POP POP POP POP PUSH1 0x40 MLOAD RETURNDATASIZE PUSH1 0x1F NOT PUSH1 0x1F DUP3 ADD AND DUP3 ADD DUP1 PUSH1 0x40 MSTORE POP DUP2 ADD SWAP1 PUSH2 0x24BB SWAP2 SWAP1 PUSH2 0x2E52 JUMP JUMPDEST DUP2 LT ISZERO PUSH2 0x25EC JUMPI PUSH1 0x1 PUSH1 0x1 PUSH1 0xA0 SHL SUB DUP6 AND PUSH1 0x0 SWAP1 DUP2 MSTORE PUSH1 0x6 PUSH1 0x20 DUP2 SWAP1 MSTORE PUSH1 0x40 DUP1 DUP4 KECCAK256 SWAP1 MLOAD PUSH4 0x39AB02EB PUSH1 0xE2 SHL DUP2 MSTORE SWAP2 ADD PUSH1 0x4 DUP3 ADD MSTORE PUSH1 0x24 DUP2 ADD DUP4 SWAP1 MSTORE PUSH1 0x5 SWAP2 SWAP1 PUSH20 0x0 SWAP1 PUSH4 0xE6AC0BAC SWAP1 PUSH1 0x44 ADD PUSH1 0x20 PUSH1 0x40 MLOAD DUP1 DUP4 SUB DUP2 DUP7 GAS DELEGATECALL ISZERO DUP1 ISZERO PUSH2 0x2537 JUMPI RETURNDATASIZE PUSH1 0x0 DUP1 RETURNDATACOPY RETURNDATASIZE PUSH1 0x0 REVERT JUMPDEST POP POP POP POP PUSH1 0x40 MLOAD RETURNDATASIZE PUSH1 0x1F NOT PUSH1 0x1F DUP3 ADD AND DUP3 ADD DUP1 PUSH1 0x40 MSTORE POP DUP2 ADD SWAP1 PUSH2 0x255B SWAP2 SWAP1 PUSH2 0x2E6B JUMP JUMPDEST PUSH1 0x1 PUSH1 0x1 PUSH1 0xA0 SHL SUB AND DUP2 MSTORE PUSH1 0x20 DUP2 ADD SWAP2 SWAP1 SWAP2 MSTORE PUSH1 0x40 SWAP1 DUP2 ADD PUSH1 0x0 KECCAK256 SWAP1 MLOAD PUSH4 0xF00C56F PUSH1 0xE4 SHL DUP2 MSTORE PUSH20 0x0 SWAP2 PUSH4 0xF00C56F0 SWAP2 PUSH2 0x25B0 SWAP2 PUSH1 0x6 ADD SWAP1 DUP10 SWAP1 PUSH1 0x4 ADD PUSH2 0x2CE8 JUMP JUMPDEST PUSH1 0x0 PUSH1 0x40 MLOAD DUP1 DUP4 SUB DUP2 DUP7 DUP1 EXTCODESIZE ISZERO DUP1 ISZERO PUSH2 0x25C8 JUMPI PUSH1 0x0 DUP1 REVERT JUMPDEST POP GAS DELEGATECALL ISZERO DUP1 ISZERO PUSH2 0x25DC JUMPI RETURNDATASIZE PUSH1 0x0 DUP1 RETURNDATACOPY RETURNDATASIZE PUSH1 0x0 REVERT JUMPDEST POP POP PUSH1 0x1 SWAP1 SWAP3 ADD SWAP2 POP PUSH2 0x242C SWAP1 POP JUMP JUMPDEST POP PUSH1 0x1 PUSH1 0x1 PUSH1 0xA0 SHL SUB DUP5 AND PUSH1 0x0 SWAP1 DUP2 MSTORE PUSH1 0x6 PUSH1 0x20 DUP2 SWAP1 MSTORE PUSH1 0x40 SWAP2 DUP3 SWAP1 KECCAK256 SWAP2 MLOAD PUSH4 0x44DD2D71 PUSH1 0xE0 SHL DUP2 MSTORE SWAP2 ADD PUSH1 0x4 DUP3 ADD MSTORE PUSH20 0x0 SWAP1 PUSH4 0x44DD2D71 SWAP1 PUSH1 0x24 ADD PUSH1 0x0 PUSH1 0x40 MLOAD DUP1 DUP4 SUB DUP2 DUP7 DUP1 EXTCODESIZE ISZERO DUP1 ISZERO PUSH2 0x2653 JUMPI PUSH1 0x0 DUP1 REVERT JUMPDEST POP GAS DELEGATECALL ISZERO DUP1 ISZERO PUSH2 0x2667 JUMPI RETURNDATASIZE PUSH1 0x0 DUP1 RETURNDATACOPY RETURNDATASIZE PUSH1 0x0 REVERT JUMPDEST POP POP POP POP PUSH32 0x7DFA20DDC214724F0CBA405349540340823D557E6FE0BEC9DC15DD3540F67CA8 DUP5 DUP7 PUSH1 0x40 MLOAD PUSH2 0xE59 SWAP3 SWAP2 SWAP1 PUSH2 0x2DD3 JUMP JUMPDEST POP DUP1 SLOAD PUSH2 0x26A8 SWAP1 PUSH2 0x2CAE JUMP JUMPDEST PUSH1 0x0 DUP3 SSTORE DUP1 PUSH1 0x1F LT PUSH2 0x26B8 JUMPI POP POP JUMP JUMPDEST PUSH1 0x1F ADD PUSH1 0x20 SWAP1 DIV SWAP1 PUSH1 0x0 MSTORE PUSH1 0x20 PUSH1 0x0 KECCAK256 SWAP1 DUP2 ADD SWAP1 PUSH2 0x26D6 SWAP2 SWAP1 PUSH2 0x26F3 JUMP JUMPDEST POP JUMP JUMPDEST POP DUP1 SLOAD PUSH1 0x0 DUP3 SSTORE SWAP1 PUSH1 0x0 MSTORE PUSH1 0x20 PUSH1 0x0 KECCAK256 SWAP1 DUP2 ADD SWAP1 PUSH2 0x26D6 SWAP2 SWAP1 JUMPDEST JUMPDEST DUP1 DUP3 GT ISZERO PUSH2 0x2708 JUMPI PUSH1 0x0 DUP2 SSTORE PUSH1 0x1 ADD PUSH2 0x26F4 JUMP JUMPDEST POP SWAP1 JUMP JUMPDEST PUSH1 0x1 PUSH1 0x1 PUSH1 0xA0 SHL SUB DUP2 AND DUP2 EQ PUSH2 0x26D6 JUMPI PUSH1 0x0 DUP1 REVERT JUMPDEST PUSH1 0x0 PUSH1 0x20 DUP3 DUP5 SUB SLT ISZERO PUSH2 0x2733 JUMPI PUSH1 0x0 DUP1 REVERT JUMPDEST DUP2 CALLDATALOAD PUSH2 0x273E DUP2 PUSH2 0x270C JUMP JUMPDEST SWAP4 SWAP3 POP POP POP JUMP JUMPDEST PUSH1 0x0 JUMPDEST DUP4 DUP2 LT ISZERO PUSH2 0x2760 JUMPI DUP2 DUP2 ADD MLOAD DUP4 DUP3 ADD MSTORE PUSH1 0x20 ADD PUSH2 0x2748 JUMP JUMPDEST POP POP PUSH1 0x0 SWAP2 ADD MSTORE JUMP JUMPDEST PUSH1 0x0 DUP2 MLOAD DUP1 DUP5 MSTORE PUSH2 0x2781 DUP2 PUSH1 0x20 DUP7 ADD PUSH1 0x20 DUP7 ADD PUSH2 0x2745 JUMP JUMPDEST PUSH1 0x1F ADD PUSH1 0x1F NOT AND SWAP3 SWAP1 SWAP3 ADD PUSH1 0x20 ADD SWAP3 SWAP2 POP POP JUMP JUMPDEST DUP6 DUP2 MSTORE PUSH1 0x1 PUSH1 0x1 PUSH1 0xA0 SHL SUB DUP6 AND PUSH1 0x20 DUP3 ADD MSTORE PUSH1 0xA0 PUSH1 0x40 DUP3 ADD DUP2 SWAP1 MSTORE PUSH1 0x0 SWAP1 PUSH2 0x27BF SWAP1 DUP4 ADD DUP7 PUSH2 0x2769 JUMP JUMPDEST PUSH1 0x60 DUP4 ADD SWAP5 SWAP1 SWAP5 MSTORE POP SWAP1 ISZERO ISZERO PUSH1 0x80 SWAP1 SWAP2 ADD MSTORE SWAP4 SWAP3 POP POP POP JUMP JUMPDEST PUSH1 0x0 DUP1 PUSH1 0x0 PUSH1 0x60 DUP5 DUP7 SUB SLT ISZERO PUSH2 0x27ED JUMPI PUSH1 0x0 DUP1 REVERT JUMPDEST DUP4 CALLDATALOAD PUSH2 0x27F8 DUP2 PUSH2 0x270C JUMP JUMPDEST SWAP3 POP PUSH1 0x20 DUP5 ADD CALLDATALOAD PUSH2 0x2808 DUP2 PUSH2 0x270C JUMP JUMPDEST SWAP2 POP PUSH1 0x40 DUP5 ADD CALLDATALOAD PUSH2 0x2818 DUP2 PUSH2 0x270C JUMP JUMPDEST DUP1 SWAP2 POP POP SWAP3 POP SWAP3 POP SWAP3 JUMP JUMPDEST PUSH4 0x4E487B71 PUSH1 0xE0 SHL PUSH1 0x0 MSTORE PUSH1 0x41 PUSH1 0x4 MSTORE PUSH1 0x24 PUSH1 0x0 REVERT JUMPDEST PUSH1 0x40 MLOAD PUSH1 0x1F DUP3 ADD PUSH1 0x1F NOT AND DUP2 ADD PUSH8 0xFFFFFFFFFFFFFFFF DUP2 GT DUP3 DUP3 LT OR ISZERO PUSH2 0x2862 JUMPI PUSH2 0x2862 PUSH2 0x2823 JUMP JUMPDEST PUSH1 0x40 MSTORE SWAP2 SWAP1 POP JUMP JUMPDEST PUSH1 0x0 DUP3 PUSH1 0x1F DUP4 ADD SLT PUSH2 0x287B JUMPI PUSH1 0x0 DUP1 REVERT JUMPDEST DUP2 CALLDATALOAD PUSH8 0xFFFFFFFFFFFFFFFF DUP2 GT ISZERO PUSH2 0x2895 JUMPI PUSH2 0x2895 PUSH2 0x2823 JUMP JUMPDEST PUSH2 0x28A8 PUSH1 0x1F DUP3 ADD PUSH1 0x1F NOT AND PUSH1 0x20 ADD PUSH2 0x2839 JUMP JUMPDEST DUP2 DUP2 MSTORE DUP5 PUSH1 0x20 DUP4 DUP7 ADD ADD GT ISZERO PUSH2 0x28BD JUMPI PUSH1 0x0 DUP1 REVERT JUMPDEST DUP2 PUSH1 0x20 DUP6 ADD PUSH1 0x20 DUP4 ADD CALLDATACOPY PUSH1 0x0 SWAP2 DUP2 ADD PUSH1 0x20 ADD SWAP2 SWAP1 SWAP2 MSTORE SWAP4 SWAP3 POP POP POP JUMP JUMPDEST PUSH1 0x0 DUP1 PUSH1 0x40 DUP4 DUP6 SUB SLT ISZERO PUSH2 0x28ED JUMPI PUSH1 0x0 DUP1 REVERT JUMPDEST DUP3 CALLDATALOAD PUSH2 0x28F8 DUP2 PUSH2 0x270C JUMP JUMPDEST SWAP2 POP PUSH1 0x20 DUP4 ADD CALLDATALOAD PUSH8 0xFFFFFFFFFFFFFFFF DUP2 GT ISZERO PUSH2 0x2914 JUMPI PUSH1 0x0 DUP1 REVERT JUMPDEST PUSH2 0x2920 DUP6 DUP3 DUP7 ADD PUSH2 0x286A JUMP JUMPDEST SWAP2 POP POP SWAP3 POP SWAP3 SWAP1 POP JUMP JUMPDEST PUSH1 0x20 DUP1 DUP3 MSTORE DUP3 MLOAD DUP3 DUP3 ADD DUP2 SWAP1 MSTORE PUSH1 0x0 SWAP2 SWAP1 DUP5 DUP3 ADD SWAP1 PUSH1 0x40 DUP6 ADD SWAP1 DUP5 JUMPDEST DUP2 DUP2 LT ISZERO PUSH2 0x296B JUMPI DUP4 MLOAD PUSH1 0x1 PUSH1 0x1 PUSH1 0xA0 SHL SUB AND DUP4 MSTORE SWAP3 DUP5 ADD SWAP3 SWAP2 DUP5 ADD SWAP2 PUSH1 0x1 ADD PUSH2 0x2946 JUMP JUMPDEST POP SWAP1 SWAP7 SWAP6 POP POP POP POP POP POP JUMP JUMPDEST PUSH1 0x0 DUP1 PUSH1 0x40 DUP4 DUP6 SUB SLT ISZERO PUSH2 0x298A JUMPI PUSH1 0x0 DUP1 REVERT JUMPDEST DUP3 CALLDATALOAD PUSH2 0x2995 DUP2 PUSH2 0x270C JUMP JUMPDEST SWAP2 POP PUSH1 0x20 DUP4 ADD CALLDATALOAD PUSH2 0x29A5 DUP2 PUSH2 0x270C JUMP JUMPDEST DUP1 SWAP2 POP POP SWAP3 POP SWAP3 SWAP1 POP JUMP JUMPDEST PUSH1 0x0 PUSH1 0x20 DUP3 DUP5 SUB SLT ISZERO PUSH2 0x29C2 JUMPI PUSH1 0x0 DUP1 REVERT JUMPDEST DUP2 CALLDATALOAD PUSH8 0xFFFFFFFFFFFFFFFF DUP2 GT ISZERO PUSH2 0x29D9 JUMPI PUSH1 0x0 DUP1 REVERT JUMPDEST PUSH2 0x29E5 DUP5 DUP3 DUP6 ADD PUSH2 0x286A JUMP JUMPDEST SWAP5 SWAP4 POP POP POP POP JUMP JUMPDEST DUP5 DUP2 MSTORE PUSH1 0x80 PUSH1 0x20 DUP3 ADD MSTORE PUSH1 0x0 PUSH2 0x2A06 PUSH1 0x80 DUP4 ADD DUP7 PUSH2 0x2769 JUMP JUMPDEST DUP3 DUP2 SUB PUSH1 0x40 DUP5 ADD MSTORE PUSH2 0x2A18 DUP2 DUP7 PUSH2 0x2769 JUMP JUMPDEST SWAP2 POP POP DUP3 ISZERO ISZERO PUSH1 0x60 DUP4 ADD MSTORE SWAP6 SWAP5 POP POP POP POP POP JUMP JUMPDEST PUSH1 0x0 DUP1 PUSH1 0x0 DUP1 PUSH1 0x0 PUSH1 0xA0 DUP7 DUP9 SUB SLT ISZERO PUSH2 0x2A44 JUMPI PUSH1 0x0 DUP1 REVERT JUMPDEST DUP6 CALLDATALOAD PUSH2 0x2A4F DUP2 PUSH2 0x270C JUMP JUMPDEST SWAP5 POP PUSH1 0x20 DUP7 ADD CALLDATALOAD PUSH2 0x2A5F DUP2 PUSH2 0x270C JUMP JUMPDEST SWAP4 POP PUSH1 0x40 DUP7 ADD CALLDATALOAD PUSH8 0xFFFFFFFFFFFFFFFF DUP1 DUP3 GT ISZERO PUSH2 0x2A7C JUMPI PUSH1 0x0 DUP1 REVERT JUMPDEST PUSH2 0x2A88 DUP10 DUP4 DUP11 ADD PUSH2 0x286A JUMP JUMPDEST SWAP5 POP PUSH1 0x60 DUP9 ADD CALLDATALOAD SWAP2 POP DUP1 DUP3 GT ISZERO PUSH2 0x2A9E JUMPI PUSH1 0x0 DUP1 REVERT JUMPDEST PUSH2 0x2AAA DUP10 DUP4 DUP11 ADD PUSH2 0x286A JUMP JUMPDEST SWAP4 POP PUSH1 0x80 DUP9 ADD CALLDATALOAD SWAP2 POP DUP1 DUP3 GT ISZERO PUSH2 0x2AC0 JUMPI PUSH1 0x0 DUP1 REVERT JUMPDEST POP PUSH2 0x2ACD DUP9 DUP3 DUP10 ADD PUSH2 0x286A JUMP JUMPDEST SWAP2 POP POP SWAP3 SWAP6 POP SWAP3 SWAP6 SWAP1 SWAP4 POP JUMP JUMPDEST PUSH1 0x0 DUP1 PUSH1 0x0 PUSH1 0x60 DUP5 DUP7 SUB SLT ISZERO PUSH2 0x2AEF JUMPI PUSH1 0x0 DUP1 REVERT JUMPDEST DUP4 CALLDATALOAD PUSH2 0x2AFA DUP2 PUSH2 0x270C JUMP JUMPDEST SWAP3 POP PUSH1 0x20 DUP5 ADD CALLDATALOAD PUSH2 0x2B0A DUP2 PUSH2 0x270C JUMP JUMPDEST SWAP2 POP PUSH1 0x40 DUP5 ADD CALLDATALOAD PUSH8 0xFFFFFFFFFFFFFFFF DUP2 GT ISZERO PUSH2 0x2B26 JUMPI PUSH1 0x0 DUP1 REVERT JUMPDEST PUSH2 0x2B32 DUP7 DUP3 DUP8 ADD PUSH2 0x286A JUMP JUMPDEST SWAP2 POP POP SWAP3 POP SWAP3 POP SWAP3 JUMP JUMPDEST PUSH1 0x0 DUP1 DUP4 PUSH1 0x1F DUP5 ADD SLT PUSH2 0x2B4E JUMPI PUSH1 0x0 DUP1 REVERT JUMPDEST POP DUP2 CALLDATALOAD PUSH8 0xFFFFFFFFFFFFFFFF DUP2 GT ISZERO PUSH2 0x2B66 JUMPI PUSH1 0x0 DUP1 REVERT JUMPDEST PUSH1 0x20 DUP4 ADD SWAP2 POP DUP4 PUSH1 0x20 DUP3 PUSH1 0x5 SHL DUP6 ADD ADD GT ISZERO PUSH2 0x2B81 JUMPI PUSH1 0x0 DUP1 REVERT JUMPDEST SWAP3 POP SWAP3 SWAP1 POP JUMP JUMPDEST PUSH1 0x0 DUP1 PUSH1 0x0 PUSH1 0x40 DUP5 DUP7 SUB SLT ISZERO PUSH2 0x2B9D JUMPI PUSH1 0x0 DUP1 REVERT JUMPDEST DUP4 CALLDATALOAD PUSH2 0x2BA8 DUP2 PUSH2 0x270C JUMP JUMPDEST SWAP3 POP PUSH1 0x20 DUP5 ADD CALLDATALOAD PUSH8 0xFFFFFFFFFFFFFFFF DUP2 GT ISZERO PUSH2 0x2BC4 JUMPI PUSH1 0x0 DUP1 REVERT JUMPDEST PUSH2 0x2BD0 DUP7 DUP3 DUP8 ADD PUSH2 0x2B3C JUMP JUMPDEST SWAP5 SWAP8 SWAP1 SWAP7 POP SWAP4 SWAP5 POP POP POP POP JUMP JUMPDEST PUSH1 0x0 DUP1 PUSH1 0x0 DUP1 PUSH1 0x60 DUP6 DUP8 SUB SLT ISZERO PUSH2 0x2BF3 JUMPI PUSH1 0x0 DUP1 REVERT JUMPDEST DUP5 CALLDATALOAD PUSH2 0x2BFE DUP2 PUSH2 0x270C JUMP JUMPDEST SWAP4 POP PUSH1 0x20 DUP6 ADD CALLDATALOAD PUSH2 0x2C0E DUP2 PUSH2 0x270C JUMP JUMPDEST SWAP3 POP PUSH1 0x40 DUP6 ADD CALLDATALOAD PUSH8 0xFFFFFFFFFFFFFFFF DUP2 GT ISZERO PUSH2 0x2C2A JUMPI PUSH1 0x0 DUP1 REVERT JUMPDEST PUSH2 0x2C36 DUP8 DUP3 DUP9 ADD PUSH2 0x2B3C JUMP JUMPDEST SWAP6 SWAP9 SWAP5 SWAP8 POP SWAP6 POP POP POP POP JUMP JUMPDEST PUSH1 0x0 DUP1 PUSH1 0x0 PUSH1 0x60 DUP5 DUP7 SUB SLT ISZERO PUSH2 0x2C57 JUMPI PUSH1 0x0 DUP1 REVERT JUMPDEST DUP4 CALLDATALOAD PUSH2 0x2C62 DUP2 PUSH2 0x270C JUMP JUMPDEST SWAP3 POP PUSH1 0x20 DUP5 ADD CALLDATALOAD PUSH8 0xFFFFFFFFFFFFFFFF DUP1 DUP3 GT ISZERO PUSH2 0x2C7F JUMPI PUSH1 0x0 DUP1 REVERT JUMPDEST PUSH2 0x2C8B DUP8 DUP4 DUP9 ADD PUSH2 0x286A JUMP JUMPDEST SWAP4 POP PUSH1 0x40 DUP7 ADD CALLDATALOAD SWAP2 POP DUP1 DUP3 GT ISZERO PUSH2 0x2CA1 JUMPI PUSH1 0x0 DUP1 REVERT JUMPDEST POP PUSH2 0x2B32 DUP7 DUP3 DUP8 ADD PUSH2 0x286A JUMP JUMPDEST PUSH1 0x1 DUP2 DUP2 SHR SWAP1 DUP3 AND DUP1 PUSH2 0x2CC2 JUMPI PUSH1 0x7F DUP3 AND SWAP2 POP JUMPDEST PUSH1 0x20 DUP3 LT DUP2 SUB PUSH2 0x2CE2 JUMPI PUSH4 0x4E487B71 PUSH1 0xE0 SHL PUSH1 0x0 MSTORE PUSH1 0x22 PUSH1 0x4 MSTORE PUSH1 0x24 PUSH1 0x0 REVERT JUMPDEST POP SWAP2 SWAP1 POP JUMP JUMPDEST SWAP2 DUP3 MSTORE PUSH1 0x1 PUSH1 0x1 PUSH1 0xA0 SHL SUB AND PUSH1 0x20 DUP3 ADD MSTORE PUSH1 0x40 ADD SWAP1 JUMP JUMPDEST PUSH1 0x0 PUSH1 0x20 DUP3 DUP5 SUB SLT ISZERO PUSH2 0x2D11 JUMPI PUSH1 0x0 DUP1 REVERT JUMPDEST DUP2 MLOAD DUP1 ISZERO ISZERO DUP2 EQ PUSH2 0x273E JUMPI PUSH1 0x0 DUP1 REVERT JUMPDEST PUSH1 0x0 PUSH1 0x20 DUP1 DUP4 DUP6 SUB SLT ISZERO PUSH2 0x2D34 JUMPI PUSH1 0x0 DUP1 REVERT JUMPDEST DUP3 MLOAD PUSH8 0xFFFFFFFFFFFFFFFF DUP1 DUP3 GT ISZERO PUSH2 0x2D4C JUMPI PUSH1 0x0 DUP1 REVERT JUMPDEST DUP2 DUP6 ADD SWAP2 POP DUP6 PUSH1 0x1F DUP4 ADD SLT PUSH2 0x2D60 JUMPI PUSH1 0x0 DUP1 REVERT JUMPDEST DUP2 MLOAD DUP2 DUP2 GT ISZERO PUSH2 0x2D72 JUMPI PUSH2 0x2D72 PUSH2 0x2823 JUMP JUMPDEST DUP1 PUSH1 0x5 SHL SWAP2 POP PUSH2 0x2D83 DUP5 DUP4 ADD PUSH2 0x2839 JUMP JUMPDEST DUP2 DUP2 MSTORE SWAP2 DUP4 ADD DUP5 ADD SWAP2 DUP5 DUP2 ADD SWAP1 DUP9 DUP5 GT ISZERO PUSH2 0x2D9D JUMPI PUSH1 0x0 DUP1 REVERT JUMPDEST SWAP4 DUP6 ADD SWAP4 JUMPDEST DUP4 DUP6 LT ISZERO PUSH2 0x2DC7 JUMPI DUP5 MLOAD SWAP3 POP PUSH2 0x2DB7 DUP4 PUSH2 0x270C JUMP JUMPDEST DUP3 DUP3 MSTORE SWAP4 DUP6 ADD SWAP4 SWAP1 DUP6 ADD SWAP1 PUSH2 0x2DA2 JUMP JUMPDEST SWAP9 SWAP8 POP POP POP POP POP POP POP POP JUMP JUMPDEST PUSH1 0x1 PUSH1 0x1 PUSH1 0xA0 SHL SUB SWAP3 DUP4 AND DUP2 MSTORE SWAP2 AND PUSH1 0x20 DUP3 ADD MSTORE PUSH1 0x40 ADD SWAP1 JUMP JUMPDEST PUSH1 0x20 DUP1 DUP3 MSTORE PUSH1 0x14 SWAP1 DUP3 ADD MSTORE PUSH20 0x2AB9B2B9103237B2B9903737BA1032BC34B9BA17 PUSH1 0x61 SHL PUSH1 0x40 DUP3 ADD MSTORE PUSH1 0x60 ADD SWAP1 JUMP JUMPDEST PUSH1 0x20 DUP1 DUP3 MSTORE PUSH1 0x1B SWAP1 DUP3 ADD MSTORE PUSH32 0x55736572206973206E6F74207468652066696C65206F776E65722E0000000000 PUSH1 0x40 DUP3 ADD MSTORE PUSH1 0x60 ADD SWAP1 JUMP JUMPDEST PUSH1 0x0 PUSH1 0x20 DUP3 DUP5 SUB SLT ISZERO PUSH2 0x2E64 JUMPI PUSH1 0x0 DUP1 REVERT JUMPDEST POP MLOAD SWAP2 SWAP1 POP JUMP JUMPDEST PUSH1 0x0 PUSH1 0x20 DUP3 DUP5 SUB SLT ISZERO PUSH2 0x2E7D JUMPI PUSH1 0x0 DUP1 REVERT JUMPDEST DUP2 MLOAD PUSH2 0x273E DUP2 PUSH2 0x270C JUMP JUMPDEST PUSH1 0x0 DUP1 DUP4 SLOAD PUSH2 0x2E96 DUP2 PUSH2 0x2CAE JUMP JUMPDEST PUSH1 0x1 DUP3 DUP2 AND DUP1 ISZERO PUSH2 0x2EAE JUMPI PUSH1 0x1 DUP2 EQ PUSH2 0x2EC3 JUMPI PUSH2 0x2EF2 JUMP JUMPDEST PUSH1 0xFF NOT DUP5 AND DUP8 MSTORE DUP3 ISZERO ISZERO DUP4 MUL DUP8 ADD SWAP5 POP PUSH2 0x2EF2 JUMP JUMPDEST DUP8 PUSH1 0x0 MSTORE PUSH1 0x20 DUP1 PUSH1 0x0 KECCAK256 PUSH1 0x0 JUMPDEST DUP6 DUP2 LT ISZERO PUSH2 0x2EE9 JUMPI DUP2 SLOAD DUP11 DUP3 ADD MSTORE SWAP1 DUP5 ADD SWAP1 DUP3 ADD PUSH2 0x2ED0 JUMP JUMPDEST POP POP POP DUP3 DUP8 ADD SWAP5 POP JUMPDEST POP SWAP3 SWAP7 SWAP6 POP POP POP POP POP POP JUMP JUMPDEST PUSH4 0x4E487B71 PUSH1 0xE0 SHL PUSH1 0x0 MSTORE PUSH1 0x11 PUSH1 0x4 MSTORE PUSH1 0x24 PUSH1 0x0 REVERT JUMPDEST PUSH1 0x0 DUP2 PUSH2 0x2F23 JUMPI PUSH2 0x2F23 PUSH2 0x2EFE JUMP JUMPDEST POP PUSH1 0x0 NOT ADD SWAP1 JUMP JUMPDEST PUSH1 0x0 DUP3 MLOAD PUSH2 0x2F3D DUP2 DUP5 PUSH1 0x20 DUP8 ADD PUSH2 0x2745 JUMP JUMPDEST SWAP2 SWAP1 SWAP2 ADD SWAP3 SWAP2 POP POP JUMP JUMPDEST PUSH1 0x0 PUSH1 0x1 DUP3 ADD PUSH2 0x2F59 JUMPI PUSH2 0x2F59 PUSH2 0x2EFE JUMP JUMPDEST POP PUSH1 0x1 ADD SWAP1 JUMP JUMPDEST PUSH1 0x1F DUP3 GT ISZERO PUSH2 0x2FAC JUMPI PUSH1 0x0 DUP2 PUSH1 0x0 MSTORE PUSH1 0x20 PUSH1 0x0 KECCAK256 PUSH1 0x1F DUP6 ADD PUSH1 0x5 SHR DUP2 ADD PUSH1 0x20 DUP7 LT ISZERO PUSH2 0x2F89 JUMPI POP DUP1 JUMPDEST PUSH1 0x1F DUP6 ADD PUSH1 0x5 SHR DUP3 ADD SWAP2 POP JUMPDEST DUP2 DUP2 LT ISZERO PUSH2 0x2FA8 JUMPI DUP3 DUP2 SSTORE PUSH1 0x1 ADD PUSH2 0x2F95 JUMP JUMPDEST POP POP POP JUMPDEST POP POP POP JUMP JUMPDEST DUP2 MLOAD PUSH8 0xFFFFFFFFFFFFFFFF DUP2 GT ISZERO PUSH2 0x2FCB JUMPI PUSH2 0x2FCB PUSH2 0x2823 JUMP JUMPDEST PUSH2 0x2FDF DUP2 PUSH2 0x2FD9 DUP5 SLOAD PUSH2 0x2CAE JUMP JUMPDEST DUP5 PUSH2 0x2F60 JUMP JUMPDEST PUSH1 0x20 DUP1 PUSH1 0x1F DUP4 GT PUSH1 0x1 DUP2 EQ PUSH2 0x3014 JUMPI PUSH1 0x0 DUP5 ISZERO PUSH2 0x2FFC JUMPI POP DUP6 DUP4 ADD MLOAD JUMPDEST PUSH1 0x0 NOT PUSH1 0x3 DUP7 SWAP1 SHL SHR NOT AND PUSH1 0x1 DUP6 SWAP1 SHL OR DUP6 SSTORE PUSH2 0x2FA8 JUMP JUMPDEST PUSH1 0x0 DUP6 DUP2 MSTORE PUSH1 0x20 DUP2 KECCAK256 PUSH1 0x1F NOT DUP7 AND SWAP2 JUMPDEST DUP3 DUP2 LT ISZERO PUSH2 0x3043 JUMPI DUP9 DUP7 ADD MLOAD DUP3 SSTORE SWAP5 DUP5 ADD SWAP5 PUSH1 0x1 SWAP1 SWAP2 ADD SWAP1 DUP5 ADD PUSH2 0x3024 JUMP JUMPDEST POP DUP6 DUP3 LT ISZERO PUSH2 0x3061 JUMPI DUP8 DUP6 ADD MLOAD PUSH1 0x0 NOT PUSH1 0x3 DUP9 SWAP1 SHL PUSH1 0xF8 AND SHR NOT AND DUP2 SSTORE JUMPDEST POP POP POP POP POP PUSH1 0x1 SWAP1 DUP2 SHL ADD SWAP1 SSTORE POP JUMP JUMPDEST PUSH1 0x1 PUSH1 0x1 PUSH1 0xA0 SHL SUB DUP6 DUP2 AND DUP3 MSTORE DUP5 AND PUSH1 0x20 DUP3 ADD MSTORE PUSH1 0x80 PUSH1 0x40 DUP3 ADD DUP2 SWAP1 MSTORE PUSH1 0x0 SWAP1 PUSH2 0x309D SWAP1 DUP4 ADD DUP6 PUSH2 0x2769 JUMP JUMPDEST DUP3 DUP2 SUB PUSH1 0x60 DUP5 ADD MSTORE PUSH2 0x30AF DUP2 DUP6 PUSH2 0x2769 JUMP JUMPDEST SWAP8 SWAP7 POP POP POP POP POP POP POP JUMP JUMPDEST PUSH4 0x4E487B71 PUSH1 0xE0 SHL PUSH1 0x0 MSTORE PUSH1 0x32 PUSH1 0x4 MSTORE PUSH1 0x24 PUSH1 0x0 REVERT JUMPDEST PUSH1 0x1 DUP1 PUSH1 0xA0 SHL SUB DUP6 AND DUP2 MSTORE DUP4 PUSH1 0x20 DUP3 ADD MSTORE PUSH1 0x80 PUSH1 0x40 DUP3 ADD MSTORE PUSH1 0x0 PUSH2 0x309D PUSH1 0x80 DUP4 ADD DUP6 PUSH2 0x2769 JUMP INVALID LOG2 PUSH5 0x6970667358 0x22 SLT KECCAK256 0xC3 0xE6 0xC3 SWAP16 0xED CODECOPY 0x24 MOD DUP15 PUSH4 0x56D5F868 PUSH17 0x81A80B682315EC24EC4BB552F12E0FB84F PUSH5 0x736F6C6343 STOP ADDMOD XOR STOP CALLER PUSH5 0x6A6965696A CALLER BLOBHASH 0x4B 0x24 0x4B BASEFEE 0x2D PUSH7 0x6A64406B665F66 PUSH12 0x6B666C6B6451574625484342 0x2B CALLER CALLDATASIZE ORIGIN PUSH9 0x3435673D4F39336A64 PUSH9 0x2A403F000000000000 "
        },
        "methodIdentifiers": {
          "addContact(address,address)": "37858b0c",
          "addFile(address,address,string,string,string)": "842a1584",
          "addUser(address,string,string)": "d7554a68",
          "deleteFile(address,address)": "5df9d4ae",
          "emails(string)": "d5b0d30d",
          "filecount()": "c4b3199c",
          "getContacts(address)": "e2c427db",
          "getFile(address)": "0b87c1e0",
          "getFileusers(address)": "bb18a65b",
          "getSharedfiles(address)": "26309555",
          "getUser(address)": "6f77926b",
          "getUserfiles(address)": "8261dcc8",
          "matchFile(address,string)": "2101772a",
          "maxfileid()": "d34cb330",
          "maxuserid()": "0a3f1cc7",
          "paths(string)": "5de8c116",
          "removeContact(address,address)": "27080fbb",
          "removeContacts(address,address[])": "a3f04236",
          "shareFile(address,address,address)": "3c88a3e1",
          "shareFileWithAll(address,address)": "2d1d6b8d",
          "shareFileWithSome(address,address,address[])": "c17d4190",
          "unshareFile(address,address,address)": "177caf35",
          "unshareFileWithAll(address,address)": "ee43437f",
          "unshareFileWithSome(address,address,address[])": "d2653470",
          "updateFile(address,address,string)": "99a2c2ae",
          "usercount()": "0f322c1e"
        }
      }
    }
  }
}