{
  "_format": "hh-sol-artifact-1",
  "contractName": "Database",
  "sourceName": "contracts/Database.sol",
  "abi": [
    {
      "inputs": [
        {
          "internalType": "string",
          "name": "authkey",
          "type": "string"
        }
      ],
      "stateMutability": "nonpayable",
      "type": "constructor"
    },
    {
      "anonymous": false,
      "inputs": [
        {
          "indexed": false,
          "internalType": "address",
          "name": "useraddr",
          "type": "address"
        },
        {
          "indexed": false,
          "internalType": "address",
          "name": "contactaddr",
          "type": "address"
        }
      ],
      "name": "ContactAdded",
      "type": "event"
    },
    {
      "anonymous": false,
      "inputs": [
        {
          "indexed": false,
          "internalType": "address",
          "name": "useraddr",
          "type": "address"
        },
        {
          "indexed": false,
          "internalType": "address",
          "name": "contactaddr",
          "type": "address"
        }
      ],
      "name": "ContactRemoved",
      "type": "event"
    },
    {
      "anonymous": false,
      "inputs": [
        {
          "indexed": false,
          "internalType": "address",
          "name": "useraddr",
          "type": "address"
        }
      ],
      "name": "ContactsRemoved",
      "type": "event"
    },
    {
      "anonymous": false,
      "inputs": [
        {
          "indexed": false,
          "internalType": "address",
          "name": "owneraddr",
          "type": "address"
        },
        {
          "indexed": false,
          "internalType": "address",
          "name": "fileaddr",
          "type": "address"
        },
        {
          "indexed": false,
          "internalType": "string",
          "name": "name",
          "type": "string"
        },
        {
          "indexed": false,
          "internalType": "string",
          "name": "path",
          "type": "string"
        }
      ],
      "name": "FileAdded",
      "type": "event"
    },
    {
      "anonymous": false,
      "inputs": [
        {
          "indexed": false,
          "internalType": "address",
          "name": "fileaddr",
          "type": "address"
        },
        {
          "indexed": false,
          "internalType": "address",
          "name": "owneraddr",
          "type": "address"
        }
      ],
      "name": "FileDeleted",
      "type": "event"
    },
    {
      "anonymous": false,
      "inputs": [
        {
          "indexed": false,
          "internalType": "address",
          "name": "fileaddr",
          "type": "address"
        },
        {
          "indexed": false,
          "internalType": "address",
          "name": "owneraddr",
          "type": "address"
        },
        {
          "indexed": false,
          "internalType": "address",
          "name": "useraddr",
          "type": "address"
        }
      ],
      "name": "FileShared",
      "type": "event"
    },
    {
      "anonymous": false,
      "inputs": [
        {
          "indexed": false,
          "internalType": "address",
          "name": "fileaddr",
          "type": "address"
        },
        {
          "indexed": false,
          "internalType": "address",
          "name": "owneraddr",
          "type": "address"
        }
      ],
      "name": "FileSharedWithAll",
      "type": "event"
    },
    {
      "anonymous": false,
      "inputs": [
        {
          "indexed": false,
          "internalType": "address",
          "name": "fileaddr",
          "type": "address"
        },
        {
          "indexed": false,
          "internalType": "address",
          "name": "owneraddr",
          "type": "address"
        }
      ],
      "name": "FileSharedWithSome",
      "type": "event"
    },
    {
      "anonymous": false,
      "inputs": [
        {
          "indexed": false,
          "internalType": "address",
          "name": "fileaddr",
          "type": "address"
        },
        {
          "indexed": false,
          "internalType": "address",
          "name": "owneraddr",
          "type": "address"
        },
        {
          "indexed": false,
          "internalType": "address",
          "name": "useraddr",
          "type": "address"
        }
      ],
      "name": "FileUnshared",
      "type": "event"
    },
    {
      "anonymous": false,
      "inputs": [
        {
          "indexed": false,
          "internalType": "address",
          "name": "fileaddr",
          "type": "address"
        },
        {
          "indexed": false,
          "internalType": "address",
          "name": "owneraddr",
          "type": "address"
        }
      ],
      "name": "FileUnsharedWithAll",
      "type": "event"
    },
    {
      "anonymous": false,
      "inputs": [
        {
          "indexed": false,
          "internalType": "address",
          "name": "fileaddr",
          "type": "address"
        },
        {
          "indexed": false,
          "internalType": "address",
          "name": "owneraddr",
          "type": "address"
        }
      ],
      "name": "FileUnsharedWithSome",
      "type": "event"
    },
    {
      "anonymous": false,
      "inputs": [
        {
          "indexed": false,
          "internalType": "address",
          "name": "fileaddr",
          "type": "address"
        },
        {
          "indexed": false,
          "internalType": "address",
          "name": "owneraddr",
          "type": "address"
        }
      ],
      "name": "FileUpdated",
      "type": "event"
    },
    {
      "anonymous": false,
      "inputs": [
        {
          "indexed": false,
          "internalType": "address",
          "name": "useraddr",
          "type": "address"
        },
        {
          "indexed": false,
          "internalType": "uint256",
          "name": "id",
          "type": "uint256"
        },
        {
          "indexed": false,
          "internalType": "string",
          "name": "name",
          "type": "string"
        },
        {
          "indexed": false,
          "internalType": "string",
          "name": "email",
          "type": "string"
        }
      ],
      "name": "UserAdded",
      "type": "event"
    },
    {
      "inputs": [
        {
          "internalType": "address",
          "name": "useraddr",
          "type": "address"
        },
        {
          "internalType": "address",
          "name": "contactaddr",
          "type": "address"
        }
      ],
      "name": "addContact",
      "outputs": [
        {
          "internalType": "bool",
          "name": "",
          "type": "bool"
        }
      ],
      "stateMutability": "nonpayable",
      "type": "function"
    },
    {
      "inputs": [
        {
          "internalType": "address",
          "name": "owneraddr",
          "type": "address"
        },
        {
          "internalType": "address",
          "name": "fileaddr",
          "type": "address"
        },
        {
          "internalType": "string",
          "name": "name",
          "type": "string"
        },
        {
          "internalType": "string",
          "name": "path",
          "type": "string"
        },
        {
          "internalType": "string",
          "name": "filestring",
          "type": "string"
        }
      ],
      "name": "addFile",
      "outputs": [
        {
          "internalType": "bool",
          "name": "",
          "type": "bool"
        }
      ],
      "stateMutability": "nonpayable",
      "type": "function"
    },
    {
      "inputs": [
        {
          "internalType": "address",
          "name": "useraddr",
          "type": "address"
        },
        {
          "internalType": "string",
          "name": "name",
          "type": "string"
        },
        {
          "internalType": "string",
          "name": "email",
          "type": "string"
        }
      ],
      "name": "addUser",
      "outputs": [
        {
          "internalType": "bool",
          "name": "",
          "type": "bool"
        }
      ],
      "stateMutability": "nonpayable",
      "type": "function"
    },
    {
      "inputs": [
        {
          "internalType": "address",
          "name": "owneraddr",
          "type": "address"
        },
        {
          "internalType": "address",
          "name": "fileaddr",
          "type": "address"
        }
      ],
      "name": "deleteFile",
      "outputs": [
        {
          "internalType": "bool",
          "name": "",
          "type": "bool"
        }
      ],
      "stateMutability": "nonpayable",
      "type": "function"
    },
    {
      "inputs": [
        {
          "internalType": "string",
          "name": "",
          "type": "string"
        }
      ],
      "name": "emails",
      "outputs": [
        {
          "internalType": "bool",
          "name": "",
          "type": "bool"
        }
      ],
      "stateMutability": "view",
      "type": "function"
    },
    {
      "inputs": [],
      "name": "filecount",
      "outputs": [
        {
          "internalType": "uint256",
          "name": "",
          "type": "uint256"
        }
      ],
      "stateMutability": "view",
      "type": "function"
    },
    {
      "inputs": [
        {
          "internalType": "address",
          "name": "useraddr",
          "type": "address"
        }
      ],
      "name": "getContacts",
      "outputs": [
        {
          "internalType": "address[]",
          "name": "",
          "type": "address[]"
        }
      ],
      "stateMutability": "view",
      "type": "function"
    },
    {
      "inputs": [
        {
          "internalType": "address",
          "name": "fileaddr",
          "type": "address"
        }
      ],
      "name": "getFile",
      "outputs": [
        {
          "internalType": "uint256",
          "name": "",
          "type": "uint256"
        },
        {
          "internalType": "address",
          "name": "",
          "type": "address"
        },
        {
          "internalType": "string",
          "name": "",
          "type": "string"
        },
        {
          "internalType": "uint256",
          "name": "",
          "type": "uint256"
        },
        {
          "internalType": "bool",
          "name": "",
          "type": "bool"
        }
      ],
      "stateMutability": "view",
      "type": "function"
    },
    {
      "inputs": [
        {
          "internalType": "address",
          "name": "fileaddr",
          "type": "address"
        }
      ],
      "name": "getFileusers",
      "outputs": [
        {
          "internalType": "address[]",
          "name": "",
          "type": "address[]"
        }
      ],
      "stateMutability": "view",
      "type": "function"
    },
    {
      "inputs": [
        {
          "internalType": "address",
          "name": "useraddr",
          "type": "address"
        }
      ],
      "name": "getSharedfiles",
      "outputs": [
        {
          "internalType": "address[]",
          "name": "",
          "type": "address[]"
        }
      ],
      "stateMutability": "view",
      "type": "function"
    },
    {
      "inputs": [
        {
          "internalType": "address",
          "name": "useraddr",
          "type": "address"
        }
      ],
      "name": "getUser",
      "outputs": [
        {
          "internalType": "uint256",
          "name": "",
          "type": "uint256"
        },
        {
          "internalType": "string",
          "name": "",
          "type": "string"
        },
        {
          "internalType": "string",
          "name": "",
          "type": "string"
        },
        {
          "internalType": "bool",
          "name": "",
          "type": "bool"
        }
      ],
      "stateMutability": "view",
      "type": "function"
    },
    {
      "inputs": [
        {
          "internalType": "address",
          "name": "useraddr",
          "type": "address"
        }
      ],
      "name": "getUserfiles",
      "outputs": [
        {
          "internalType": "address[]",
          "name": "",
          "type": "address[]"
        }
      ],
      "stateMutability": "view",
      "type": "function"
    },
    {
      "inputs": [
        {
          "internalType": "address",
          "name": "fileaddr",
          "type": "address"
        },
        {
          "internalType": "string",
          "name": "filestring",
          "type": "string"
        }
      ],
      "name": "matchFile",
      "outputs": [
        {
          "internalType": "bool",
          "name": "",
          "type": "bool"
        }
      ],
      "stateMutability": "view",
      "type": "function"
    },
    {
      "inputs": [],
      "name": "maxfileid",
      "outputs": [
        {
          "internalType": "uint256",
          "name": "",
          "type": "uint256"
        }
      ],
      "stateMutability": "view",
      "type": "function"
    },
    {
      "inputs": [],
      "name": "maxuserid",
      "outputs": [
        {
          "internalType": "uint256",
          "name": "",
          "type": "uint256"
        }
      ],
      "stateMutability": "view",
      "type": "function"
    },
    {
      "inputs": [
        {
          "internalType": "string",
          "name": "",
          "type": "string"
        }
      ],
      "name": "paths",
      "outputs": [
        {
          "internalType": "bool",
          "name": "",
          "type": "bool"
        }
      ],
      "stateMutability": "view",
      "type": "function"
    },
    {
      "inputs": [
        {
          "internalType": "address",
          "name": "useraddr",
          "type": "address"
        },
        {
          "internalType": "address",
          "name": "contactaddr",
          "type": "address"
        }
      ],
      "name": "removeContact",
      "outputs": [
        {
          "internalType": "bool",
          "name": "",
          "type": "bool"
        }
      ],
      "stateMutability": "nonpayable",
      "type": "function"
    },
    {
      "inputs": [
        {
          "internalType": "address",
          "name": "useraddr",
          "type": "address"
        },
        {
          "internalType": "address[]",
          "name": "contactaddrs",
          "type": "address[]"
        }
      ],
      "name": "removeContacts",
      "outputs": [
        {
          "internalType": "bool",
          "name": "",
          "type": "bool"
        }
      ],
      "stateMutability": "nonpayable",
      "type": "function"
    },
    {
      "inputs": [
        {
          "internalType": "address",
          "name": "owneraddr",
          "type": "address"
        },
        {
          "internalType": "address",
          "name": "fileaddr",
          "type": "address"
        },
        {
          "internalType": "address",
          "name": "useraddr",
          "type": "address"
        }
      ],
      "name": "shareFile",
      "outputs": [
        {
          "internalType": "bool",
          "name": "",
          "type": "bool"
        }
      ],
      "stateMutability": "nonpayable",
      "type": "function"
    },
    {
      "inputs": [
        {
          "internalType": "address",
          "name": "owneraddr",
          "type": "address"
        },
        {
          "internalType": "address",
          "name": "fileaddr",
          "type": "address"
        }
      ],
      "name": "shareFileWithAll",
      "outputs": [
        {
          "internalType": "bool",
          "name": "",
          "type": "bool"
        }
      ],
      "stateMutability": "nonpayable",
      "type": "function"
    },
    {
      "inputs": [
        {
          "internalType": "address",
          "name": "owneraddr",
          "type": "address"
        },
        {
          "internalType": "address",
          "name": "fileaddr",
          "type": "address"
        },
        {
          "internalType": "address[]",
          "name": "useraddrs",
          "type": "address[]"
        }
      ],
      "name": "shareFileWithSome",
      "outputs": [
        {
          "internalType": "bool",
          "name": "",
          "type": "bool"
        }
      ],
      "stateMutability": "nonpayable",
      "type": "function"
    },
    {
      "inputs": [
        {
          "internalType": "address",
          "name": "owneraddr",
          "type": "address"
        },
        {
          "internalType": "address",
          "name": "fileaddr",
          "type": "address"
        },
        {
          "internalType": "address",
          "name": "useraddr",
          "type": "address"
        }
      ],
      "name": "unshareFile",
      "outputs": [
        {
          "internalType": "bool",
          "name": "",
          "type": "bool"
        }
      ],
      "stateMutability": "nonpayable",
      "type": "function"
    },
    {
      "inputs": [
        {
          "internalType": "address",
          "name": "owneraddr",
          "type": "address"
        },
        {
          "internalType": "address",
          "name": "fileaddr",
          "type": "address"
        }
      ],
      "name": "unshareFileWithAll",
      "outputs": [
        {
          "internalType": "bool",
          "name": "",
          "type": "bool"
        }
      ],
      "stateMutability": "nonpayable",
      "type": "function"
    },
    {
      "inputs": [
        {
          "internalType": "address",
          "name": "owneraddr",
          "type": "address"
        },
        {
          "internalType": "address",
          "name": "fileaddr",
          "type": "address"
        },
        {
          "internalType": "address[]",
          "name": "useraddrs",
          "type": "address[]"
        }
      ],
      "name": "unshareFileWithSome",
      "outputs": [
        {
          "internalType": "bool",
          "name": "",
          "type": "bool"
        }
      ],
      "stateMutability": "nonpayable",
      "type": "function"
    },
    {
      "inputs": [
        {
          "internalType": "address",
          "name": "owneraddr",
          "type": "address"
        },
        {
          "internalType": "address",
          "name": "fileaddr",
          "type": "address"
        },
        {
          "internalType": "string",
          "name": "filestring",
          "type": "string"
        }
      ],
      "name": "updateFile",
      "outputs": [
        {
          "internalType": "bool",
          "name": "",
          "type": "bool"
        }
      ],
      "stateMutability": "nonpayable",
      "type": "function"
    },
    {
      "inputs": [],
      "name": "usercount",
      "outputs": [
        {
          "internalType": "uint256",
          "name": "",
          "type": "uint256"
        }
      ],
      "stateMutability": "view",
      "type": "function"
    }
  ],
  "bytecode": "0x60806040526000805460ff1916815560038190556004553480156200002357600080fd5b50604051620032e6380380620032e68339810160408190526200004691620000a0565b604051806060016040528060348152602001620032b2603491398051906020012081805190602001200362000083576000805460ff191660011790555b5062000175565b634e487b7160e01b600052604160045260246000fd5b60006020808385031215620000b457600080fd5b82516001600160401b0380821115620000cc57600080fd5b818501915085601f830112620000e157600080fd5b815181811115620000f657620000f66200008a565b604051601f8201601f19908116603f011681019083821181831017156200012157620001216200008a565b8160405282815288868487010111156200013a57600080fd5b600093505b828410156200015e57848401860151818501870152928501926200013f565b600086848301015280965050505050505092915050565b61312d80620001856000396000f3fe608060405234801561001057600080fd5b506004361061018e5760003560e01c80638261dcc8116100de578063c4b3199c11610097578063d5b0d30d11610071578063d5b0d30d146103a3578063d7554a68146103d1578063e2c427db146103e4578063ee43437f146103f757600080fd5b8063c4b3199c1461037e578063d265347014610387578063d34cb3301461039a57600080fd5b80638261dcc81461030c578063842a15841461031f57806399a2c2ae14610332578063a3f0423614610345578063bb18a65b14610358578063c17d41901461036b57600080fd5b806327080fbb1161014b5780633c88a3e1116101255780633c88a3e1146102955780635de8c116146102a85780635df9d4ae146102d65780636f77926b146102e957600080fd5b806327080fbb1461025c5780632d1d6b8d1461026f57806337858b0c1461028257600080fd5b80630a3f1cc7146101935780630b87c1e0146101af5780630f322c1e146101d3578063177caf35146101dc5780632101772a146101ff578063263095551461023c575b600080fd5b61019c60035481565b6040519081526020015b60405180910390f35b6101c26101bd366004612721565b61040a565b6040516101a6959493929190612795565b61019c60015481565b6101ef6101ea3660046127d8565b6104f1565b60405190151581526020016101a6565b6101ef61020d3660046128da565b6001600160a01b0382166000908152600660209081526040909120600501548251918301919091201492915050565b61024f61024a366004612721565b6106fe565b6040516101a6919061292a565b6101ef61026a366004612977565b61079c565b6101ef61027d366004612977565b6108f7565b6101ef610290366004612977565b610c9b565b6101ef6102a33660046127d8565b610e71565b6101ef6102b63660046129b0565b805160208183018101805160088252928201919093012091525460ff1681565b6101ef6102e4366004612977565b6110fd565b6102fc6102f7366004612721565b6114d4565b6040516101a694939291906129ed565b61024f61031a366004612721565b611635565b6101ef61032d366004612a2c565b61168c565b6101ef610340366004612ada565b611939565b6101ef610353366004612b88565b611a45565b61024f610366366004612721565b611bfd565b6101ef610379366004612bdd565b611c53565b61019c60025481565b6101ef610395366004612bdd565b611f53565b61019c60045481565b6101ef6103b13660046129b0565b805160208183018101805160078252928201919093012091525460ff1681565b6101ef6103df366004612c42565b6121da565b61024f6103f2366004612721565b612382565b6101ef610405366004612977565b6123d9565b6001600160a01b03808216600090815260066020526040812080546001820154600383015460098401546002909401805495968796606096889687969095931693929160ff90911690839061045e90612cae565b80601f016020809104026020016040519081016040528092919081815260200182805461048a90612cae565b80156104d75780601f106104ac576101008083540402835291602001916104d7565b820191906000526020600020905b8154815290600101906020018083116104ba57829003601f168201915b505050505092509450945094509450945091939590929450565b6000805460ff16156106f0576001600160a01b0384166000908152600560205260409081902090516376df7bff60e01b815273__$fff9ae4b06e46ab93aa37f30cb41b1f7bb$__916376df7bff9161055191600901908690600401612ce8565b602060405180830381865af415801561056e573d6000803e3d6000fd5b505050506040513d601f19601f820116820180604052508101906105929190612cff565b156106f0576001600160a01b038216600090815260056020526040908190209051630f00c56f60e41b815273__$fff9ae4b06e46ab93aa37f30cb41b1f7bb$__9163f00c56f0916105eb91600601908790600401612ce8565b60006040518083038186803b15801561060357600080fd5b505af4158015610617573d6000803e3d6000fd5b5050506001600160a01b0384166000908152600660208190526040918290209151630f00c56f60e41b815273__$fff9ae4b06e46ab93aa37f30cb41b1f7bb$__935063f00c56f09261066f9201908690600401612ce8565b60006040518083038186803b15801561068757600080fd5b505af415801561069b573d6000803e3d6000fd5b5050604080516001600160a01b03808816825280891660208301528616918101919091527e3d084bcd6d65c03b3ada258da4839c348614ea44a675b9d25c87d6d04ff8c2925060600190505b60405180910390a15b5060005460ff169392505050565b6001600160a01b03811660009081526005602052604090819020905163535ff66560e01b81526006909101600482015260609073__$fff9ae4b06e46ab93aa37f30cb41b1f7bb$__9063535ff665906024015b600060405180830381865af415801561076e573d6000803e3d6000fd5b505050506040513d6000823e601f3d908101601f191682016040526107969190810190612d21565b92915050565b6000805460ff16156108ea576001600160a01b038316600090815260056020526040908190209051630f00c56f60e41b815273__$fff9ae4b06e46ab93aa37f30cb41b1f7bb$__9163f00c56f0916107fc91600901908690600401612ce8565b60006040518083038186803b15801561081457600080fd5b505af4158015610828573d6000803e3d6000fd5b505050506001600160a01b038216600090815260056020526040908190209051630f00c56f60e41b815273__$fff9ae4b06e46ab93aa37f30cb41b1f7bb$__9163f00c56f09161088091600901908790600401612ce8565b60006040518083038186803b15801561089857600080fd5b505af41580156108ac573d6000803e3d6000fd5b505050507f0c65bfcfc9323f4e0510884c021b5a6dbb865ff94299eb9a8f89b36412a7d99883836040516108e1929190612dd3565b60405180910390a15b5060005460ff1692915050565b6001600160a01b0382166000908152600560205260408120600c0154839060ff1661093d5760405162461bcd60e51b815260040161093490612ded565b60405180910390fd5b6001600160a01b03808416600090815260066020526040902060010154859185918184169116146109805760405162461bcd60e51b815260040161093490612e1b565b60005460ff1615610c8b5760005b6001600160a01b038716600090815260056020526040908190209051630b7e4a6960e11b81526009909101600482015273__$fff9ae4b06e46ab93aa37f30cb41b1f7bb$__906316fc94d290602401602060405180830381865af41580156109fa573d6000803e3d6000fd5b505050506040513d601f19601f82011682018060405250810190610a1e9190612e52565b811015610c50576001600160a01b038716600090815260056020819052604080832090516339ab02eb60e21b8152600990910160048201526024810184905290919073__$fff9ae4b06e46ab93aa37f30cb41b1f7bb$__9063e6ac0bac90604401602060405180830381865af4158015610a9c573d6000803e3d6000fd5b505050506040513d601f19601f82011682018060405250810190610ac09190612e6b565b6001600160a01b031681526020810191909152604090810160002090516301c058a960e21b815273__$fff9ae4b06e46ab93aa37f30cb41b1f7bb$__9163070162a491610b1591600601908a90600401612ce8565b60006040518083038186803b158015610b2d57600080fd5b505af4158015610b41573d6000803e3d6000fd5b505050506001600160a01b038681166000908152600660208181526040808420948c16845260059091529182902091516339ab02eb60e21b8152600990920160048301526024820184905273__$fff9ae4b06e46ab93aa37f30cb41b1f7bb$__9263070162a492910190839063e6ac0bac90604401602060405180830381865af4158015610bd3573d6000803e3d6000fd5b505050506040513d601f19601f82011682018060405250810190610bf79190612e6b565b6040518363ffffffff1660e01b8152600401610c14929190612ce8565b60006040518083038186803b158015610c2c57600080fd5b505af4158015610c40573d6000803e3d6000fd5b50506001909201915061098e9050565b507f511a33c21ca1dfd7c3757f4cc04f0dc8e2e26fedf5e74be30e61bb71a920e82a8587604051610c82929190612dd3565b60405180910390a15b505060005460ff16949350505050565b6001600160a01b0382166000908152600560205260408120600c0154839060ff16610cd85760405162461bcd60e51b815260040161093490612ded565b6001600160a01b0383166000908152600560205260409020600c0154839060ff16610d155760405162461bcd60e51b815260040161093490612ded565b60005460ff1615610e62576001600160a01b0385166000908152600560205260409081902090516301c058a960e21b815273__$fff9ae4b06e46ab93aa37f30cb41b1f7bb$__9163070162a491610d7491600901908890600401612ce8565b60006040518083038186803b158015610d8c57600080fd5b505af4158015610da0573d6000803e3d6000fd5b505050506001600160a01b0384166000908152600560205260409081902090516301c058a960e21b815273__$fff9ae4b06e46ab93aa37f30cb41b1f7bb$__9163070162a491610df891600901908990600401612ce8565b60006040518083038186803b158015610e1057600080fd5b505af4158015610e24573d6000803e3d6000fd5b505050507f991da500dc9f910ce2a64c3d13783d3f75d912d123ae2d8334ad0a817c91f23b8585604051610e59929190612dd3565b60405180910390a15b505060005460ff169392505050565b6001600160a01b0383166000908152600560205260408120600c0154849060ff16610eae5760405162461bcd60e51b815260040161093490612ded565b6001600160a01b0380851660009081526006602052604090206001015486918691818416911614610ef15760405162461bcd60e51b815260040161093490612e1b565b60005460ff16156110ec576001600160a01b0387166000908152600560205260409081902090516376df7bff60e01b815273__$fff9ae4b06e46ab93aa37f30cb41b1f7bb$__916376df7bff91610f5091600901908990600401612ce8565b602060405180830381865af4158015610f6d573d6000803e3d6000fd5b505050506040513d601f19601f82011682018060405250810190610f919190612cff565b156110a0576001600160a01b03861660009081526006602081905260409182902091516301c058a960e21b815273__$fff9ae4b06e46ab93aa37f30cb41b1f7bb$__9263070162a492610feb929101908990600401612ce8565b60006040518083038186803b15801561100357600080fd5b505af4158015611017573d6000803e3d6000fd5b505050506001600160a01b0385166000908152600560205260409081902090516301c058a960e21b815273__$fff9ae4b06e46ab93aa37f30cb41b1f7bb$__9163070162a49161106f91600601908a90600401612ce8565b60006040518083038186803b15801561108757600080fd5b505af415801561109b573d6000803e3d6000fd5b505050505b604080516001600160a01b038881168252898116602083015287168183015290517f14dd0b4b05df5e2d084d0ed825d4149376d62cbf6632aa97cfb20891bacee74c9181900360600190a15b505060005460ff1695945050505050565b6001600160a01b0382166000908152600560205260408120600c0154839060ff1661113a5760405162461bcd60e51b815260040161093490612ded565b6001600160a01b038084166000908152600660205260409020600101548591859181841691161461117d5760405162461bcd60e51b815260040161093490612e1b565b60005460ff1615610c8b5760005b6001600160a01b0386166000908152600660208190526040918290209151630b7e4a6960e11b81529101600482015273__$fff9ae4b06e46ab93aa37f30cb41b1f7bb$__906316fc94d290602401602060405180830381865af41580156111f6573d6000803e3d6000fd5b505050506040513d601f19601f8201168201806040525081019061121a9190612e52565b81101561134b576001600160a01b038616600090815260066020819052604080832090516339ab02eb60e21b815291016004820152602481018390526005919073__$fff9ae4b06e46ab93aa37f30cb41b1f7bb$__9063e6ac0bac90604401602060405180830381865af4158015611296573d6000803e3d6000fd5b505050506040513d601f19601f820116820180604052508101906112ba9190612e6b565b6001600160a01b03168152602081019190915260409081016000209051630f00c56f60e41b815273__$fff9ae4b06e46ab93aa37f30cb41b1f7bb$__9163f00c56f09161130f91600601908a90600401612ce8565b60006040518083038186803b15801561132757600080fd5b505af415801561133b573d6000803e3d6000fd5b50506001909201915061118b9050565b506001600160a01b038616600090815260056020526040908190209051630f00c56f60e41b815273__$fff9ae4b06e46ab93aa37f30cb41b1f7bb$__9163f00c56f0916113a091600301908990600401612ce8565b60006040518083038186803b1580156113b857600080fd5b505af41580156113cc573d6000803e3d6000fd5b5050506001600160a01b03861660009081526006602052604081208181556001810180546001600160a01b0319169055915061140b600283018261269c565b6003820160009055600482016000611423919061269c565b600060058301819055600683019061143b82826126d9565b505050600901805460ff191690556001600160a01b03851660009081526006602052604090819020905160089161147791600490910190612e88565b908152604051908190036020019020805460ff191690556002805490600061149e83612f14565b91905055507f4bbe610abcbb36dfdc44c6f9719cf0d679122ba9f2349dc036e6f2e6d7f135ae8587604051610c82929190612dd3565b6001600160a01b03811660009081526005602052604081208054600c8201546001830180546060948594879490939260029092019160ff90911690839061151a90612cae565b80601f016020809104026020016040519081016040528092919081815260200182805461154690612cae565b80156115935780601f1061156857610100808354040283529160200191611593565b820191906000526020600020905b81548152906001019060200180831161157657829003601f168201915b505050505092508180546115a690612cae565b80601f01602080910402602001604051908101604052809291908181526020018280546115d290612cae565b801561161f5780601f106115f45761010080835404028352916020019161161f565b820191906000526020600020905b81548152906001019060200180831161160257829003601f168201915b5050505050915093509350935093509193509193565b6001600160a01b03811660009081526005602052604090819020905163535ff66560e01b81526003909101600482015260609073__$fff9ae4b06e46ab93aa37f30cb41b1f7bb$__9063535ff66590602401610751565b6001600160a01b0385166000908152600560205260408120600c0154869060ff166116c95760405162461bcd60e51b815260040161093490612ded565b6001600160a01b0386166000908152600660205260409020600901548690859060ff1615801561171957506008816040516117049190612f2b565b9081526040519081900360200190205460ff16155b61175c5760405162461bcd60e51b81526020600482015260146024820152732334b6329030b63932b0b23c9032bc34b9ba399760611b6044820152606401610934565b60005460ff161561192657600480548691600061177883612f47565b909155506001600160a01b038a811660009081526006602052604090209182556001820180546001600160a01b031916918d169190911790556002016117be8982612fb1565b5080516001600160a01b038a16600090815260066020526040902060038101919091556004016117ee8882612fb1565b5080516020808301919091206001600160a01b03808c166000908152600684526040808220600580820195909555600901805460ff19166001179055918e1681529190925281902090516301c058a960e21b815273__$fff9ae4b06e46ab93aa37f30cb41b1f7bb$__9163070162a49161187091600301908d90600401612ce8565b60006040518083038186803b15801561188857600080fd5b505af415801561189c573d6000803e3d6000fd5b5050505060016008886040516118b29190612f2b565b908152604051908190036020019020805491151560ff19909216919091179055600280549060006118e283612f47565b91905055507fe0f76fb99d0fdcc765fe6a79952945f024346ab3418e7d8cc9eed19185d31d4c8a8a8a8a60405161191c9493929190613071565b60405180910390a1505b505060005460ff16979650505050505050565b6001600160a01b0383166000908152600560205260408120600c0154849060ff166119765760405162461bcd60e51b815260040161093490612ded565b6001600160a01b03808516600090815260066020526040902060010154869186918184169116146119b95760405162461bcd60e51b815260040161093490612e1b565b60005460ff16156110ec5784516001600160a01b03871660009081526006602090815260409182902060038101939093558751908801206005909201919091555185907f5001157a468bbef1c03dba122785f55c5c7cef98e8e79e9661e00c0be74700a690611a2b9089908b90612dd3565b60405180910390a1505060005460ff169695505050505050565b6000805460ff16156106f05760005b82811015611bc3576001600160a01b038516600090815260056020526040902073__$fff9ae4b06e46ab93aa37f30cb41b1f7bb$__9063f00c56f090600901868685818110611aa557611aa56130ba565b9050602002016020810190611aba9190612721565b6040518363ffffffff1660e01b8152600401611ad7929190612ce8565b60006040518083038186803b158015611aef57600080fd5b505af4158015611b03573d6000803e3d6000fd5b5050505060056000858584818110611b1d57611b1d6130ba565b9050602002016020810190611b329190612721565b6001600160a01b03168152602081019190915260409081016000209051630f00c56f60e41b815273__$fff9ae4b06e46ab93aa37f30cb41b1f7bb$__9163f00c56f091611b8791600901908990600401612ce8565b60006040518083038186803b158015611b9f57600080fd5b505af4158015611bb3573d6000803e3d6000fd5b505060019092019150611a549050565b506040516001600160a01b03851681527fb8132c270e672746207d3fd022b2c141a3183a6c1504b7a0d4916c1c5510c0f5906020016106e7565b6001600160a01b038116600090815260066020819052604091829020915163535ff66560e01b81529101600482015260609073__$fff9ae4b06e46ab93aa37f30cb41b1f7bb$__9063535ff66590602401610751565b6001600160a01b0384166000908152600560205260408120600c0154859060ff16611c905760405162461bcd60e51b815260040161093490612ded565b6001600160a01b0380861660009081526006602052604090206001015487918791818416911614611cd35760405162461bcd60e51b815260040161093490612e1b565b60005460ff1615611f415760005b85811015611f0f576001600160a01b038916600090815260056020526040902073__$fff9ae4b06e46ab93aa37f30cb41b1f7bb$__906376df7bff90600901898985818110611d3257611d326130ba565b9050602002016020810190611d479190612721565b6040518363ffffffff1660e01b8152600401611d64929190612ce8565b602060405180830381865af4158015611d81573d6000803e3d6000fd5b505050506040513d601f19601f82011682018060405250810190611da59190612cff565b15611f07576001600160a01b038816600090815260066020819052604090912073__$fff9ae4b06e46ab93aa37f30cb41b1f7bb$__9163070162a49101898985818110611df457611df46130ba565b9050602002016020810190611e099190612721565b6040518363ffffffff1660e01b8152600401611e26929190612ce8565b60006040518083038186803b158015611e3e57600080fd5b505af4158015611e52573d6000803e3d6000fd5b5050505060056000888884818110611e6c57611e6c6130ba565b9050602002016020810190611e819190612721565b6001600160a01b031681526020810191909152604090810160002090516301c058a960e21b815273__$fff9ae4b06e46ab93aa37f30cb41b1f7bb$__9163070162a491611ed691600601908c90600401612ce8565b60006040518083038186803b158015611eee57600080fd5b505af4158015611f02573d6000803e3d6000fd5b505050505b600101611ce1565b507f83b7e751ca40152ecb3f193bad2bdec238f8e455238659dc5b21de9af3e4951e8789604051611a2b929190612dd3565b505060005460ff169695505050505050565b6000805460ff16156121cb5760005b82811015612190576001600160a01b038616600090815260056020526040902073__$fff9ae4b06e46ab93aa37f30cb41b1f7bb$__906376df7bff90600901868685818110611fb357611fb36130ba565b9050602002016020810190611fc89190612721565b6040518363ffffffff1660e01b8152600401611fe5929190612ce8565b602060405180830381865af4158015612002573d6000803e3d6000fd5b505050506040513d601f19601f820116820180604052508101906120269190612cff565b156121885760056000858584818110612041576120416130ba565b90506020020160208101906120569190612721565b6001600160a01b03168152602081019190915260409081016000209051630f00c56f60e41b815273__$fff9ae4b06e46ab93aa37f30cb41b1f7bb$__9163f00c56f0916120ab91600601908990600401612ce8565b60006040518083038186803b1580156120c357600080fd5b505af41580156120d7573d6000803e3d6000fd5b5050506001600160a01b038616600090815260066020819052604090912073__$fff9ae4b06e46ab93aa37f30cb41b1f7bb$__925063f00c56f09101868685818110612125576121256130ba565b905060200201602081019061213a9190612721565b6040518363ffffffff1660e01b8152600401612157929190612ce8565b60006040518083038186803b15801561216f57600080fd5b505af4158015612183573d6000803e3d6000fd5b505050505b600101611f62565b507f869ba4359358aed5de3d3cb02c3c622e762cd5a563823281f89dc5b3bf955ac184866040516121c2929190612dd3565b60405180910390a15b5060005460ff16949350505050565b6001600160a01b0383166000908152600560205260408120600c01548490839060ff1615801561222a57506007816040516122159190612f2b565b9081526040519081900360200190205460ff16155b61226d5760405162461bcd60e51b81526020600482015260146024820152732ab9b2b91030b63932b0b23c9032bc34b9ba399760611b6044820152606401610934565b60005460ff1615610c8b576003805490600061228883612f47565b909155506001600160a01b03871660009081526005602052604090209081556001016122b48682612fb1565b506001600160a01b03861660009081526005602052604090206002016122da8582612fb1565b506001600160a01b03861660009081526005602052604090819020600c01805460ff191660019081179091559051600790612316908790612f2b565b908152604051908190036020019020805491151560ff199092169190911790556001805490600061234683612f47565b91905055507fe42b7e5ce4f4d261f8411f66412b019fbff329671721a467c933e254cfe79133866003548787604051610c8294939291906130d0565b6001600160a01b03811660009081526005602052604090819020905163535ff66560e01b81526009909101600482015260609073__$fff9ae4b06e46ab93aa37f30cb41b1f7bb$__9063535ff66590602401610751565b6001600160a01b0380821660009081526006602052604081206001015490918491849180841691161461241e5760405162461bcd60e51b815260040161093490612e1b565b60005460ff1615610e625760005b6001600160a01b0385166000908152600660208190526040918290209151630b7e4a6960e11b81529101600482015273__$fff9ae4b06e46ab93aa37f30cb41b1f7bb$__906316fc94d290602401602060405180830381865af4158015612497573d6000803e3d6000fd5b505050506040513d601f19601f820116820180604052508101906124bb9190612e52565b8110156125ec576001600160a01b038516600090815260066020819052604080832090516339ab02eb60e21b815291016004820152602481018390526005919073__$fff9ae4b06e46ab93aa37f30cb41b1f7bb$__9063e6ac0bac90604401602060405180830381865af4158015612537573d6000803e3d6000fd5b505050506040513d601f19601f8201168201806040525081019061255b9190612e6b565b6001600160a01b03168152602081019190915260409081016000209051630f00c56f60e41b815273__$fff9ae4b06e46ab93aa37f30cb41b1f7bb$__9163f00c56f0916125b091600601908990600401612ce8565b60006040518083038186803b1580156125c857600080fd5b505af41580156125dc573d6000803e3d6000fd5b50506001909201915061242c9050565b506001600160a01b03841660009081526006602081905260409182902091516344dd2d7160e01b81529101600482015273__$fff9ae4b06e46ab93aa37f30cb41b1f7bb$__906344dd2d719060240160006040518083038186803b15801561265357600080fd5b505af4158015612667573d6000803e3d6000fd5b505050507f7dfa20ddc214724f0cba405349540340823d557e6fe0bec9dc15dd3540f67ca88486604051610e59929190612dd3565b5080546126a890612cae565b6000825580601f106126b8575050565b601f0160209004906000526020600020908101906126d691906126f3565b50565b50805460008255906000526020600020908101906126d691905b5b8082111561270857600081556001016126f4565b5090565b6001600160a01b03811681146126d657600080fd5b60006020828403121561273357600080fd5b813561273e8161270c565b9392505050565b60005b83811015612760578181015183820152602001612748565b50506000910152565b60008151808452612781816020860160208601612745565b601f01601f19169290920160200192915050565b8581526001600160a01b038516602082015260a0604082018190526000906127bf90830186612769565b6060830194909452509015156080909101529392505050565b6000806000606084860312156127ed57600080fd5b83356127f88161270c565b925060208401356128088161270c565b915060408401356128188161270c565b809150509250925092565b634e487b7160e01b600052604160045260246000fd5b604051601f8201601f1916810167ffffffffffffffff8111828210171561286257612862612823565b604052919050565b600082601f83011261287b57600080fd5b813567ffffffffffffffff81111561289557612895612823565b6128a8601f8201601f1916602001612839565b8181528460208386010111156128bd57600080fd5b816020850160208301376000918101602001919091529392505050565b600080604083850312156128ed57600080fd5b82356128f88161270c565b9150602083013567ffffffffffffffff81111561291457600080fd5b6129208582860161286a565b9150509250929050565b6020808252825182820181905260009190848201906040850190845b8181101561296b5783516001600160a01b031683529284019291840191600101612946565b50909695505050505050565b6000806040838503121561298a57600080fd5b82356129958161270c565b915060208301356129a58161270c565b809150509250929050565b6000602082840312156129c257600080fd5b813567ffffffffffffffff8111156129d957600080fd5b6129e58482850161286a565b949350505050565b848152608060208201526000612a066080830186612769565b8281036040840152612a188186612769565b915050821515606083015295945050505050565b600080600080600060a08688031215612a4457600080fd5b8535612a4f8161270c565b94506020860135612a5f8161270c565b9350604086013567ffffffffffffffff80821115612a7c57600080fd5b612a8889838a0161286a565b94506060880135915080821115612a9e57600080fd5b612aaa89838a0161286a565b93506080880135915080821115612ac057600080fd5b50612acd8882890161286a565b9150509295509295909350565b600080600060608486031215612aef57600080fd5b8335612afa8161270c565b92506020840135612b0a8161270c565b9150604084013567ffffffffffffffff811115612b2657600080fd5b612b328682870161286a565b9150509250925092565b60008083601f840112612b4e57600080fd5b50813567ffffffffffffffff811115612b6657600080fd5b6020830191508360208260051b8501011115612b8157600080fd5b9250929050565b600080600060408486031215612b9d57600080fd5b8335612ba88161270c565b9250602084013567ffffffffffffffff811115612bc457600080fd5b612bd086828701612b3c565b9497909650939450505050565b60008060008060608587031215612bf357600080fd5b8435612bfe8161270c565b93506020850135612c0e8161270c565b9250604085013567ffffffffffffffff811115612c2a57600080fd5b612c3687828801612b3c565b95989497509550505050565b600080600060608486031215612c5757600080fd5b8335612c628161270c565b9250602084013567ffffffffffffffff80821115612c7f57600080fd5b612c8b8783880161286a565b93506040860135915080821115612ca157600080fd5b50612b328682870161286a565b600181811c90821680612cc257607f821691505b602082108103612ce257634e487b7160e01b600052602260045260246000fd5b50919050565b9182526001600160a01b0316602082015260400190565b600060208284031215612d1157600080fd5b8151801515811461273e57600080fd5b60006020808385031215612d3457600080fd5b825167ffffffffffffffff80821115612d4c57600080fd5b818501915085601f830112612d6057600080fd5b815181811115612d7257612d72612823565b8060051b9150612d83848301612839565b8181529183018401918481019088841115612d9d57600080fd5b938501935b83851015612dc75784519250612db78361270c565b8282529385019390850190612da2565b98975050505050505050565b6001600160a01b0392831681529116602082015260400190565b6020808252601490820152732ab9b2b9103237b2b9903737ba1032bc34b9ba1760611b604082015260600190565b6020808252601b908201527f55736572206973206e6f74207468652066696c65206f776e65722e0000000000604082015260600190565b600060208284031215612e6457600080fd5b5051919050565b600060208284031215612e7d57600080fd5b815161273e8161270c565b6000808354612e9681612cae565b60018281168015612eae5760018114612ec357612ef2565b60ff1984168752821515830287019450612ef2565b8760005260208060002060005b85811015612ee95781548a820152908401908201612ed0565b50505082870194505b50929695505050505050565b634e487b7160e01b600052601160045260246000fd5b600081612f2357612f23612efe565b506000190190565b60008251612f3d818460208701612745565b9190910192915050565b600060018201612f5957612f59612efe565b5060010190565b601f821115612fac576000816000526020600020601f850160051c81016020861015612f895750805b601f850160051c820191505b81811015612fa857828155600101612f95565b5050505b505050565b815167ffffffffffffffff811115612fcb57612fcb612823565b612fdf81612fd98454612cae565b84612f60565b602080601f8311600181146130145760008415612ffc5750858301515b600019600386901b1c1916600185901b178555612fa8565b600085815260208120601f198616915b8281101561304357888601518255948401946001909101908401613024565b50858210156130615787850151600019600388901b60f8161c191681555b5050505050600190811b01905550565b6001600160a01b0385811682528416602082015260806040820181905260009061309d90830185612769565b82810360608401526130af8185612769565b979650505050505050565b634e487b7160e01b600052603260045260246000fd5b60018060a01b038516815283602082015260806040820152600061309d608083018561276956fea2646970667358221220c3e6c39fed3924068e6356d5f8687081a80b682315ec24ec4bb552f12e0fb84f64736f6c63430008180033646a6965696a33494b244b482d666a64406b665f666b6b666c6b64515746254843422b333632683435673d4f39336a64682a403f",
  "linkReferences": {
    "contracts/libraries/IterableMap.sol": {
      "IterableMap": [
        {
          "length": 20,
          "start": 1706
        },
        {
          "length": 20,
          "start": 1860
        },
        {
          "length": 20,
          "start": 1993
        },
        {
          "length": 20,
          "start": 2232
        },
        {
          "length": 20,
          "start": 2389
        },
        {
          "length": 20,
          "start": 2521
        },
        {
          "length": 20,
          "start": 2885
        },
        {
          "length": 20,
          "start": 3047
        },
        {
          "length": 20,
          "start": 3182
        },
        {
          "length": 20,
          "start": 3347
        },
        {
          "length": 20,
          "start": 3789
        },
        {
          "length": 20,
          "start": 3921
        },
        {
          "length": 20,
          "start": 4265
        },
        {
          "length": 20,
          "start": 4421
        },
        {
          "length": 20,
          "start": 4552
        },
        {
          "length": 20,
          "start": 4929
        },
        {
          "length": 20,
          "start": 5089
        },
        {
          "length": 20,
          "start": 5224
        },
        {
          "length": 20,
          "start": 5369
        },
        {
          "length": 20,
          "start": 6127
        },
        {
          "length": 20,
          "start": 6601
        },
        {
          "length": 20,
          "start": 7163
        },
        {
          "length": 20,
          "start": 7392
        },
        {
          "length": 20,
          "start": 7606
        },
        {
          "length": 20,
          "start": 7816
        },
        {
          "length": 20,
          "start": 8012
        },
        {
          "length": 20,
          "start": 8239
        },
        {
          "length": 20,
          "start": 8457
        },
        {
          "length": 20,
          "start": 8708
        },
        {
          "length": 20,
          "start": 8828
        },
        {
          "length": 20,
          "start": 9532
        },
        {
          "length": 20,
          "start": 9698
        },
        {
          "length": 20,
          "start": 9858
        },
        {
          "length": 20,
          "start": 9993
        },
        {
          "length": 20,
          "start": 10147
        }
      ]
    }
  },
  "deployedLinkReferences": {
    "contracts/libraries/IterableMap.sol": {
      "IterableMap": [
        {
          "length": 20,
          "start": 1317
        },
        {
          "length": 20,
          "start": 1471
        },
        {
          "length": 20,
          "start": 1604
        },
        {
          "length": 20,
          "start": 1843
        },
        {
          "length": 20,
          "start": 2000
        },
        {
          "length": 20,
          "start": 2132
        },
        {
          "length": 20,
          "start": 2496
        },
        {
          "length": 20,
          "start": 2658
        },
        {
          "length": 20,
          "start": 2793
        },
        {
          "length": 20,
          "start": 2958
        },
        {
          "length": 20,
          "start": 3400
        },
        {
          "length": 20,
          "start": 3532
        },
        {
          "length": 20,
          "start": 3876
        },
        {
          "length": 20,
          "start": 4032
        },
        {
          "length": 20,
          "start": 4163
        },
        {
          "length": 20,
          "start": 4540
        },
        {
          "length": 20,
          "start": 4700
        },
        {
          "length": 20,
          "start": 4835
        },
        {
          "length": 20,
          "start": 4980
        },
        {
          "length": 20,
          "start": 5738
        },
        {
          "length": 20,
          "start": 6212
        },
        {
          "length": 20,
          "start": 6774
        },
        {
          "length": 20,
          "start": 7003
        },
        {
          "length": 20,
          "start": 7217
        },
        {
          "length": 20,
          "start": 7427
        },
        {
          "length": 20,
          "start": 7623
        },
        {
          "length": 20,
          "start": 7850
        },
        {
          "length": 20,
          "start": 8068
        },
        {
          "length": 20,
          "start": 8319
        },
        {
          "length": 20,
          "start": 8439
        },
        {
          "length": 20,
          "start": 9143
        },
        {
          "length": 20,
          "start": 9309
        },
        {
          "length": 20,
          "start": 9469
        },
        {
          "length": 20,
          "start": 9604
        },
        {
          "length": 20,
          "start": 9758
        }
      ]
    }
  }
}